{
  "contractName": "SharedWallet",
  "abi": [
    {
      "payable": true,
      "stateMutability": "payable",
      "type": "fallback"
    },
    {
      "constant": true,
      "inputs": [],
      "name": "getWalletBalance",
      "outputs": [
        {
          "internalType": "uint256",
          "name": "",
          "type": "uint256"
        }
      ],
      "payable": false,
      "stateMutability": "view",
      "type": "function"
    },
    {
      "constant": true,
      "inputs": [],
      "name": "getAvailableBalance",
      "outputs": [
        {
          "internalType": "uint256",
          "name": "",
          "type": "uint256"
        }
      ],
      "payable": false,
      "stateMutability": "view",
      "type": "function"
    },
    {
      "constant": true,
      "inputs": [
        {
          "internalType": "address",
          "name": "_account",
          "type": "address"
        }
      ],
      "name": "getAvailableBalanceFor",
      "outputs": [
        {
          "internalType": "uint256",
          "name": "",
          "type": "uint256"
        }
      ],
      "payable": false,
      "stateMutability": "view",
      "type": "function"
    },
    {
      "constant": false,
      "inputs": [],
      "name": "getStakes",
      "outputs": [
        {
          "internalType": "uint256[]",
          "name": "",
          "type": "uint256[]"
        }
      ],
      "payable": false,
      "stateMutability": "nonpayable",
      "type": "function"
    }
  ],
  "bytecode": "0x60806040526000600455600060055534801561001a57600080fd5b506109ed8061002a6000396000f3fe60806040526004361061003f5760003560e01c8063329a27e7146101b0578063809dab6a146101db578063df4b477614610206578063f444a04714610272575b60003411156101ae5760008060003373ffffffffffffffffffffffffffffffffffffffff1673ffffffffffffffffffffffffffffffffffffffff1681526020019081526020016000205414156100f65760033390806001815401808255809150509060018203906000526020600020016000909192909190916101000a81548173ffffffffffffffffffffffffffffffffffffffff021916908373ffffffffffffffffffffffffffffffffffffffff160217905550505b610147346000803373ffffffffffffffffffffffffffffffffffffffff1673ffffffffffffffffffffffffffffffffffffffff168152602001908152602001600020546102d790919063ffffffff16565b6000803373ffffffffffffffffffffffffffffffffffffffff1673ffffffffffffffffffffffffffffffffffffffff1681526020019081526020016000208190555061019e346004546102d790919063ffffffff16565b6004819055506101ad3361035f565b5b005b3480156101bc57600080fd5b506101c5610547565b6040518082815260200191505060405180910390f35b3480156101e757600080fd5b506101f061054f565b6040518082815260200191505060405180910390f35b34801561021257600080fd5b5061021b6105c5565b6040518080602001828103825283818151815260200191508051906020019060200280838360005b8381101561025e578082015181840152602081019050610243565b505050509050019250505060405180910390f35b34801561027e57600080fd5b506102c16004803603602081101561029557600080fd5b81019080803573ffffffffffffffffffffffffffffffffffffffff16906020019092919050505061067f565b6040518082815260200191505060405180910390f35b600080828401905083811015610355576040517f08c379a000000000000000000000000000000000000000000000000000000000815260040180806020018281038252601b8152602001807f536166654d6174683a206164646974696f6e206f766572666c6f77000000000081525060200191505060405180910390fd5b8091505092915050565b60006103806002600a0a6103728461067f565b6106f790919063ffffffff16565b9050600080600454600554111561039a57600090506103b4565b6103b160055460045461077d90919063ffffffff16565b90505b6000808573ffffffffffffffffffffffffffffffffffffffff1673ffffffffffffffffffffffffffffffffffffffff16815260200190815260200160002054600160008673ffffffffffffffffffffffffffffffffffffffff1673ffffffffffffffffffffffffffffffffffffffff16815260200190815260200160002054111561044257600091506104d5565b6104d2600160008673ffffffffffffffffffffffffffffffffffffffff1673ffffffffffffffffffffffffffffffffffffffff168152602001908152602001600020546000808773ffffffffffffffffffffffffffffffffffffffff1673ffffffffffffffffffffffffffffffffffffffff1681526020019081526020016000205461077d90919063ffffffff16565b91505b6104fe816104f06002600a0a856106f790919063ffffffff16565b6107c790919063ffffffff16565b600260008673ffffffffffffffffffffffffffffffffffffffff1673ffffffffffffffffffffffffffffffffffffffff1681526020019081526020016000208190555050505050565b600047905090565b60006105c06002600a0a6105b2600260003373ffffffffffffffffffffffffffffffffffffffff1673ffffffffffffffffffffffffffffffffffffffff168152602001908152602001600020546105a4610547565b6106f790919063ffffffff16565b6107c790919063ffffffff16565b905090565b60608060008090505b6003805490508110156106775760026000600383815481106105ec57fe5b9060005260206000200160009054906101000a900473ffffffffffffffffffffffffffffffffffffffff1673ffffffffffffffffffffffffffffffffffffffff1673ffffffffffffffffffffffffffffffffffffffff1681526020019081526020016000205482828151811061065e57fe5b60200260200101818152505080806001019150506105ce565b508091505090565b60006106f06002600a0a6106e2600260008673ffffffffffffffffffffffffffffffffffffffff1673ffffffffffffffffffffffffffffffffffffffff168152602001908152602001600020546106d4610547565b6106f790919063ffffffff16565b6107c790919063ffffffff16565b9050919050565b60008083141561070a5760009050610777565b600082840290508284828161071b57fe5b0414610772576040517f08c379a00000000000000000000000000000000000000000000000000000000081526004018080602001828103825260218152602001806109986021913960400191505060405180910390fd5b809150505b92915050565b60006107bf83836040518060400160405280601e81526020017f536166654d6174683a207375627472616374696f6e206f766572666c6f770000815250610811565b905092915050565b600061080983836040518060400160405280601a81526020017f536166654d6174683a206469766973696f6e206279207a65726f0000000000008152506108d1565b905092915050565b60008383111582906108be576040517f08c379a00000000000000000000000000000000000000000000000000000000081526004018080602001828103825283818151815260200191508051906020019080838360005b83811015610883578082015181840152602081019050610868565b50505050905090810190601f1680156108b05780820380516001836020036101000a031916815260200191505b509250505060405180910390fd5b5060008385039050809150509392505050565b6000808311829061097d576040517f08c379a00000000000000000000000000000000000000000000000000000000081526004018080602001828103825283818151815260200191508051906020019080838360005b83811015610942578082015181840152602081019050610927565b50505050905090810190601f16801561096f5780820380516001836020036101000a031916815260200191505b509250505060405180910390fd5b50600083858161098957fe5b04905080915050939250505056fe536166654d6174683a206d756c7469706c69636174696f6e206f766572666c6f77a265627a7a72315820dfbc30ec79cdde240a8319bbdaeafc9fc71f569890bfac7440eaa4f4c5d5a90364736f6c63430005110032",
  "source": "pragma solidity ^0.5.16;\n\n//import \"./AccessRestriction.sol\";\n//import \"./StringUtils.sol\";\nimport \"@openzeppelin/contracts/math/SafeMath.sol\";\n\ncontract SharedWallet {\n  using SafeMath for uint256;\n  mapping(address => uint256) deposited;\n  mapping(address => uint256) withdrawn;\n  mapping(address => uint256) stake;\n  address[] accounts;\n  uint256 constant stakeDecimals = 2;\n  uint256 totalDeposited = 0;\n  uint256 totalWithdrawn = 0;\n\n  function getWalletBalance() public view returns (uint256) {\n    return address(this).balance;\n  }\n\n  function() external payable {\n    if (msg.value > 0) {\n      if (deposited[msg.sender] == 0) {\n        accounts.push(msg.sender);\n      }\n      deposited[msg.sender] = deposited[msg.sender].add(msg.value);\n      totalDeposited = totalDeposited.add(msg.value);\n      calibrateStake(msg.sender);\n    }\n  }\n\n  function calibrateStake(address _account) internal {\n    uint256 totalBalance = getAvailableBalanceFor(_account).mul(\n      10**stakeDecimals\n    );\n    uint256 accountContributed;\n    uint256 totalContributed;\n\n    //TOTAL:\n    if (totalWithdrawn > totalDeposited) {\n      totalContributed = 0;\n    } else {\n      totalContributed = totalDeposited.sub(totalWithdrawn);\n    }\n    //ACCOUNT:\n    if (withdrawn[_account] > deposited[_account]) {\n      accountContributed = 0;\n    } else {\n      accountContributed = deposited[_account].sub(withdrawn[_account]);\n    }\n    stake[_account] = accountContributed.mul(10**stakeDecimals).div(\n      totalContributed\n    );\n  }\n\n  function getAvailableBalance() public view returns (uint256) {\n    return getWalletBalance().mul(stake[msg.sender]).div(10**stakeDecimals);\n  }\n\n  function getAvailableBalanceFor(address _account)\n    public\n    view\n    returns (uint256)\n  {\n    return getWalletBalance().mul(stake[_account]).div(10**stakeDecimals);\n  }\n\n  function getStakes() public returns (uint256[] memory) {\n    //uint size = accounts.length;\n    uint256[] memory result;\n    for (uint256 i = 0; i < accounts.length; i++) {\n      result[i] = stake[accounts[i]];\n    }\n    return result;\n  }\n}\n",
  "sourcePath": "/home/grifma/Code/treatify-web3/contracts/SharedWallet.sol",
  "compiler": {
    "name": "solc",
    "version": "0.5.17+commit.d19bba13.Emscripten.clang"
  },
  "schemaVersion": "3.2.3",
  "updatedAt": "2020-11-08T19:10:29.735Z",
  "networkType": "ethereum",
  "devdoc": {
    "methods": {}
  },
  "userdoc": {
    "methods": {}
  }
}