{
  "contractName": "SharedWallet",
  "abi": [
    {
      "anonymous": false,
      "inputs": [
        {
          "indexed": false,
          "internalType": "address",
          "name": "sender",
          "type": "address"
        },
        {
          "indexed": false,
          "internalType": "uint256",
          "name": "stake",
          "type": "uint256"
        }
      ],
      "name": "CalibrateStake",
      "type": "event"
    },
    {
      "payable": true,
      "stateMutability": "payable",
      "type": "fallback"
    },
    {
      "constant": true,
      "inputs": [],
      "name": "getWalletBalance",
      "outputs": [
        {
          "internalType": "uint256",
          "name": "",
          "type": "uint256"
        }
      ],
      "payable": false,
      "stateMutability": "view",
      "type": "function"
    },
    {
      "constant": true,
      "inputs": [],
      "name": "getAvailableBalance",
      "outputs": [
        {
          "internalType": "uint256",
          "name": "",
          "type": "uint256"
        }
      ],
      "payable": false,
      "stateMutability": "view",
      "type": "function"
    },
    {
      "constant": true,
      "inputs": [
        {
          "internalType": "address",
          "name": "_account",
          "type": "address"
        }
      ],
      "name": "getAvailableBalanceFor",
      "outputs": [
        {
          "internalType": "uint256",
          "name": "",
          "type": "uint256"
        }
      ],
      "payable": false,
      "stateMutability": "view",
      "type": "function"
    },
    {
      "constant": true,
      "inputs": [],
      "name": "getStakes",
      "outputs": [
        {
          "internalType": "uint256[]",
          "name": "",
          "type": "uint256[]"
        }
      ],
      "payable": false,
      "stateMutability": "view",
      "type": "function"
    },
    {
      "constant": false,
      "inputs": [
        {
          "internalType": "uint256",
          "name": "_amount",
          "type": "uint256"
        }
      ],
      "name": "withdraw",
      "outputs": [
        {
          "internalType": "bool",
          "name": "",
          "type": "bool"
        }
      ],
      "payable": false,
      "stateMutability": "nonpayable",
      "type": "function"
    },
    {
      "constant": false,
      "inputs": [],
      "name": "withdrawMax",
      "outputs": [
        {
          "internalType": "bool",
          "name": "",
          "type": "bool"
        }
      ],
      "payable": false,
      "stateMutability": "nonpayable",
      "type": "function"
    }
  ],
  "bytecode": "0x608060405260008060006101000a81548160ff0219169083151502179055506000600555600060065534801561003457600080fd5b50610d38806100446000396000f3fe6080604052600436106100555760003560e01c80632e1a7d4d146101c8578063329a27e71461021b578063809dab6a14610246578063df4b477614610271578063e5cd8b6a146102dd578063f444a0471461030c575b60003411156101c6576000600160003373ffffffffffffffffffffffffffffffffffffffff1673ffffffffffffffffffffffffffffffffffffffff16815260200190815260200160002054141561010d5760043390806001815401808255809150509060018203906000526020600020016000909192909190916101000a81548173ffffffffffffffffffffffffffffffffffffffff021916908373ffffffffffffffffffffffffffffffffffffffff160217905550505b61015f34600160003373ffffffffffffffffffffffffffffffffffffffff1673ffffffffffffffffffffffffffffffffffffffff1681526020019081526020016000205461037190919063ffffffff16565b600160003373ffffffffffffffffffffffffffffffffffffffff1673ffffffffffffffffffffffffffffffffffffffff168152602001908152602001600020819055506101b73460055461037190919063ffffffff16565b6005819055506101c56103f9565b5b005b3480156101d457600080fd5b50610201600480360360208110156101eb57600080fd5b810190808035906020019092919050505061045c565b604051808215151515815260200191505060405180910390f35b34801561022757600080fd5b50610230610565565b6040518082815260200191505060405180910390f35b34801561025257600080fd5b5061025b61056d565b6040518082815260200191505060405180910390f35b34801561027d57600080fd5b506102866105e3565b6040518080602001828103825283818151815260200191508051906020019060200280838360005b838110156102c95780820151818401526020810190506102ae565b505050509050019250505060405180910390f35b3480156102e957600080fd5b506102f261069d565b604051808215151515815260200191505060405180910390f35b34801561031857600080fd5b5061035b6004803603602081101561032f57600080fd5b81019080803573ffffffffffffffffffffffffffffffffffffffff169060200190929190505050610765565b6040518082815260200191505060405180910390f35b6000808284019050838110156103ef576040517f08c379a000000000000000000000000000000000000000000000000000000000815260040180806020018281038252601b8152602001807f536166654d6174683a206164646974696f6e206f766572666c6f77000000000081525060200191505060405180910390fd5b8091505092915050565b60008090505b6004805490508110156104595761044c6004828154811061041c57fe5b9060005260206000200160009054906101000a900473ffffffffffffffffffffffffffffffffffffffff166107dd565b80806001019150506103ff565b50565b60008015156000809054906101000a900460ff16151514156105605760016000806101000a81548160ff0219169083151502179055508161049b61056d565b10156104f2576040517f08c379a000000000000000000000000000000000000000000000000000000000815260040180806020018281038252602e815260200180610cb5602e913960400191505060405180910390fd5b3373ffffffffffffffffffffffffffffffffffffffff166108fc839081150290604051600060405180830381858888f19350505050158015610538573d6000803e3d6000fd5b506105416103f9565b6001905060008060006101000a81548160ff0219169083151502179055505b919050565b600047905090565b60006105de6004600a0a6105d0600360003373ffffffffffffffffffffffffffffffffffffffff1673ffffffffffffffffffffffffffffffffffffffff168152602001908152602001600020546105c2610565565b610a1490919063ffffffff16565b610a9a90919063ffffffff16565b905090565b60608060008090505b60048054905081101561069557600360006004838154811061060a57fe5b9060005260206000200160009054906101000a900473ffffffffffffffffffffffffffffffffffffffff1673ffffffffffffffffffffffffffffffffffffffff1673ffffffffffffffffffffffffffffffffffffffff1681526020019081526020016000205482828151811061067c57fe5b60200260200101818152505080806001019150506105ec565b508091505090565b60008015156000809054906101000a900460ff16151514156107625760016000806101000a81548160ff02191690831515021790555060006106dd61056d565b14156106ec5760009050610747565b3373ffffffffffffffffffffffffffffffffffffffff166108fc61070e61056d565b9081150290604051600060405180830381858888f19350505050158015610739573d6000803e3d6000fd5b506107426103f9565b600190505b60008060006101000a81548160ff0219169083151502179055505b90565b60006107d66004600a0a6107c8600360008673ffffffffffffffffffffffffffffffffffffffff1673ffffffffffffffffffffffffffffffffffffffff168152602001908152602001600020546107ba610565565b610a1490919063ffffffff16565b610a9a90919063ffffffff16565b9050919050565b60008060055460065411156107f5576000905061080f565b61080c600654600554610ae490919063ffffffff16565b90505b600160008473ffffffffffffffffffffffffffffffffffffffff1673ffffffffffffffffffffffffffffffffffffffff16815260200190815260200160002054600260008573ffffffffffffffffffffffffffffffffffffffff1673ffffffffffffffffffffffffffffffffffffffff16815260200190815260200160002054111561089e5760009150610932565b61092f600260008573ffffffffffffffffffffffffffffffffffffffff1673ffffffffffffffffffffffffffffffffffffffff16815260200190815260200160002054600160008673ffffffffffffffffffffffffffffffffffffffff1673ffffffffffffffffffffffffffffffffffffffff16815260200190815260200160002054610ae490919063ffffffff16565b91505b600061095d8261094f6004600a0a86610a1490919063ffffffff16565b610a9a90919063ffffffff16565b905080600360008673ffffffffffffffffffffffffffffffffffffffff1673ffffffffffffffffffffffffffffffffffffffff168152602001908152602001600020819055507f705e043b0595dd4bb0e026532e59f87cc01158c819e866e2092811a72e847e818482604051808373ffffffffffffffffffffffffffffffffffffffff1673ffffffffffffffffffffffffffffffffffffffff1681526020018281526020019250505060405180910390a150505050565b600080831415610a275760009050610a94565b6000828402905082848281610a3857fe5b0414610a8f576040517f08c379a0000000000000000000000000000000000000000000000000000000008152600401808060200182810382526021815260200180610ce36021913960400191505060405180910390fd5b809150505b92915050565b6000610adc83836040518060400160405280601a81526020017f536166654d6174683a206469766973696f6e206279207a65726f000000000000815250610b2e565b905092915050565b6000610b2683836040518060400160405280601e81526020017f536166654d6174683a207375627472616374696f6e206f766572666c6f770000815250610bf4565b905092915050565b60008083118290610bda576040517f08c379a00000000000000000000000000000000000000000000000000000000081526004018080602001828103825283818151815260200191508051906020019080838360005b83811015610b9f578082015181840152602081019050610b84565b50505050905090810190601f168015610bcc5780820380516001836020036101000a031916815260200191505b509250505060405180910390fd5b506000838581610be657fe5b049050809150509392505050565b6000838311158290610ca1576040517f08c379a00000000000000000000000000000000000000000000000000000000081526004018080602001828103825283818151815260200191508051906020019080838360005b83811015610c66578082015181840152602081019050610c4b565b50505050905090810190601f168015610c935780820380516001836020036101000a031916815260200191505b509250505060405180910390fd5b506000838503905080915050939250505056fe43616e6e6f742077697468647261772067726561746572207468616e20617661696c61626c652062616c616e6365536166654d6174683a206d756c7469706c69636174696f6e206f766572666c6f77a265627a7a7231582038cf25a551cb0d64fd3cb20eb120d3ac02d505beb593bb204b50f0ac8c37157764736f6c63430005110032",
  "source": "pragma solidity ^0.5.16;\n\n//import \"./AccessRestriction.sol\";\n//import \"./StringUtils.sol\";\nimport \"@openzeppelin/contracts/math/SafeMath.sol\";\n\ncontract SharedWallet {\n    using SafeMath for uint256;\n    bool mutex = false;\n    mapping(address => uint256) deposited;\n    mapping(address => uint256) withdrawn;\n    mapping(address => uint256) stake;\n    address[] accounts;\n    uint256 constant stakeDecimals = 4;\n    uint256 totalDeposited = 0;\n    uint256 totalWithdrawn = 0;\n\n    event CalibrateStake(address sender, uint256 stake);\n\n    modifier preventRecursion() {\n        if (mutex == false) {\n            mutex = true;\n            _;\n            mutex = false;\n        }\n    }\n\n    function getWalletBalance() public view returns (uint256) {\n        return address(this).balance;\n    }\n\n    function() external payable {\n        if (msg.value > 0) {\n            if (deposited[msg.sender] == 0) {\n                accounts.push(msg.sender);\n            }\n            deposited[msg.sender] = deposited[msg.sender].add(msg.value);\n            totalDeposited = totalDeposited.add(msg.value);\n            calibrateStakes();\n        }\n    }\n\n    function calibrateStakes() internal {\n        for (uint256 i = 0; i < accounts.length; i++) {\n            calibrateStake(accounts[i]);\n        }\n    }\n\n    function calibrateStake(address _account) internal {\n        //    uint256 totalBalance = getAvailableBalanceFor(_account).mul(\n        //        10**stakeDecimals\n        //    );\n        uint256 accountContributed;\n        uint256 totalContributed;\n\n        //TOTAL:\n        if (totalWithdrawn > totalDeposited) {\n            totalContributed = 0;\n        } else {\n            totalContributed = totalDeposited.sub(totalWithdrawn);\n        }\n        //ACCOUNT:\n        if (withdrawn[_account] > deposited[_account]) {\n            accountContributed = 0;\n        } else {\n            accountContributed = deposited[_account].sub(withdrawn[_account]);\n        }\n        uint256 adjustedStake = accountContributed.mul(10**stakeDecimals).div(\n            totalContributed\n        );\n        stake[_account] = adjustedStake;\n\n        emit CalibrateStake(_account, adjustedStake);\n    }\n\n    function getAvailableBalance() public view returns (uint256) {\n        return getWalletBalance().mul(stake[msg.sender]).div(10**stakeDecimals);\n    }\n\n    function getAvailableBalanceFor(address _account)\n        public\n        view\n        returns (uint256)\n    {\n        return getWalletBalance().mul(stake[_account]).div(10**stakeDecimals);\n    }\n\n    function getStakes() public view returns (uint256[] memory) {\n        //uint size = accounts.length;\n        uint256[] memory result;\n        for (uint256 i = 0; i < accounts.length; i++) {\n            result[i] = stake[accounts[i]];\n        }\n        return result;\n    }\n\n    function withdraw(uint256 _amount) public preventRecursion returns (bool) {\n        require(\n            getAvailableBalance() >= _amount,\n            \"Cannot withdraw greater than available balance\"\n        );\n        msg.sender.transfer(_amount);\n        calibrateStakes();\n        return true;\n    }\n\n    function withdrawMax() public preventRecursion returns (bool) {\n        if (getAvailableBalance() == 0) return false;\n        msg.sender.transfer(getAvailableBalance());\n        calibrateStakes();\n        return true;\n    }\n}\n",
  "sourcePath": "/home/grifma/Code/treatify-web3/contracts/SharedWallet.sol",
  "compiler": {
    "name": "solc",
    "version": "0.5.17+commit.d19bba13.Emscripten.clang"
  },
  "schemaVersion": "3.2.3",
  "updatedAt": "2020-11-15T14:57:49.190Z",
  "networkType": "ethereum",
  "devdoc": {
    "methods": {}
  },
  "userdoc": {
    "methods": {}
  }
}