{
  "contractName": "StringUtils",
  "abi": [
    {
      "constant": true,
      "inputs": [
        {
          "internalType": "string",
          "name": "a",
          "type": "string"
        },
        {
          "internalType": "string",
          "name": "b",
          "type": "string"
        }
      ],
      "name": "compareStrings",
      "outputs": [
        {
          "internalType": "bool",
          "name": "",
          "type": "bool"
        }
      ],
      "payable": false,
      "stateMutability": "pure",
      "type": "function"
    }
  ],
  "bytecode": "0x6102c8610026600b82828239805160001a60731461001957fe5b30600052607381538281f3fe73000000000000000000000000000000000000000030146080604052600436106100355760003560e01c8063bed34bba1461003a575b600080fd5b61018a6004803603604081101561005057600080fd5b810190808035906020019064010000000081111561006d57600080fd5b82018360208201111561007f57600080fd5b803590602001918460018302840111640100000000831117156100a157600080fd5b91908080601f016020809104026020016040519081016040528093929190818152602001838380828437600081840152601f19601f8201169050808301925050505050505091929192908035906020019064010000000081111561010457600080fd5b82018360208201111561011657600080fd5b8035906020019184600183028401116401000000008311171561013857600080fd5b91908080601f016020809104026020016040519081016040528093929190818152602001838380828437600081840152601f19601f8201169050808301925050505050505091929192905050506101a4565b604051808215151515815260200191505060405180910390f35b6000816040516020018082805190602001908083835b602083106101dd57805182526020820191506020810190506020830392506101ba565b6001836020036101000a03801982511681845116808217855250505050505090500191505060405160208183030381529060405280519060200120836040516020018082805190602001908083835b6020831061024f578051825260208201915060208101905060208303925061022c565b6001836020036101000a038019825116818451168082178552505050505050905001915050604051602081830303815290604052805190602001201490509291505056fea265627a7a7231582057c8f399ead4bcfa9ba7bbc0124a76eb72750c26603de1f304b3d1623afee3d664736f6c63430005100032",
  "source": "pragma solidity >=0.4.22 <0.6.0;\n\nlibrary StringUtils {\n  function strConcat(\n    string memory _a,\n    string memory _b,\n    string memory _c,\n    string memory _d,\n    string memory _e\n  ) internal pure returns (string memory) {\n    bytes memory _ba = bytes(_a);\n    bytes memory _bb = bytes(_b);\n    bytes memory _bc = bytes(_c);\n    bytes memory _bd = bytes(_d);\n    bytes memory _be = bytes(_e);\n    string memory abcde = new string(\n      _ba.length + _bb.length + _bc.length + _bd.length + _be.length\n    );\n    bytes memory babcde = bytes(abcde);\n    uint256 k = 0;\n    for (uint256 i = 0; i < _ba.length; i++) babcde[k++] = _ba[i];\n    for (uint256 i = 0; i < _bb.length; i++) babcde[k++] = _bb[i];\n    for (uint256 i = 0; i < _bc.length; i++) babcde[k++] = _bc[i];\n    for (uint256 i = 0; i < _bd.length; i++) babcde[k++] = _bd[i];\n    for (uint256 i = 0; i < _be.length; i++) babcde[k++] = _be[i];\n    return string(babcde);\n  }\n\n  function strConcat(\n    string memory _a,\n    string memory _b,\n    string memory _c,\n    string memory _d\n  ) internal pure returns (string memory) {\n    return strConcat(_a, _b, _c, _d, \"\");\n  }\n\n  function strConcat(\n    string memory _a,\n    string memory _b,\n    string memory _c\n  ) internal pure returns (string memory) {\n    return strConcat(_a, _b, _c, \"\", \"\");\n  }\n\n  function strConcat(string memory _a, string memory _b)\n    internal\n    pure\n    returns (string memory)\n  {\n    return strConcat(_a, _b, \"\", \"\", \"\");\n  }\n\n  function toString(address _x) internal pure returns (string memory) {\n    bytes memory b = new bytes(20);\n    for (uint256 i = 0; i < 20; i++)\n      b[i] = bytes1(uint8(uint256(_x) / (2**(8 * (19 - i)))));\n    return string(b);\n  }\n\n  function compareStrings(string memory a, string memory b)\n    public\n    pure\n    returns (bool)\n  {\n    return (keccak256(abi.encodePacked((a))) ==\n      keccak256(abi.encodePacked((b))));\n  }\n}\n",
  "sourcePath": "/home/grifma/Code/treatify-web3/contracts/StringUtils.sol",
  "compiler": {
    "name": "solc",
    "version": "0.5.16+commit.9c3226ce.Emscripten.clang"
  },
  "schemaVersion": "3.0.23",
  "updatedAt": "2020-08-06T15:24:21.857Z",
  "devdoc": {
    "methods": {}
  },
  "userdoc": {
    "methods": {}
  }
}