{
  "contractName": "TreatyIndex",
  "abi": [
    {
      "inputs": [
        {
          "internalType": "string",
          "name": "_name",
          "type": "string"
        }
      ],
      "payable": false,
      "stateMutability": "nonpayable",
      "type": "constructor"
    },
    {
      "anonymous": false,
      "inputs": [
        {
          "indexed": false,
          "internalType": "address",
          "name": "_treatyAddress",
          "type": "address"
        }
      ],
      "name": "AddTreaty",
      "type": "event"
    },
    {
      "constant": false,
      "inputs": [
        {
          "internalType": "address",
          "name": "_newOwner",
          "type": "address"
        }
      ],
      "name": "changeOwner",
      "outputs": [],
      "payable": false,
      "stateMutability": "nonpayable",
      "type": "function"
    },
    {
      "constant": true,
      "inputs": [],
      "name": "creationTime",
      "outputs": [
        {
          "internalType": "uint256",
          "name": "",
          "type": "uint256"
        }
      ],
      "payable": false,
      "stateMutability": "view",
      "type": "function"
    },
    {
      "constant": false,
      "inputs": [],
      "name": "disown",
      "outputs": [],
      "payable": false,
      "stateMutability": "nonpayable",
      "type": "function"
    },
    {
      "constant": true,
      "inputs": [],
      "name": "name",
      "outputs": [
        {
          "internalType": "string",
          "name": "",
          "type": "string"
        }
      ],
      "payable": false,
      "stateMutability": "view",
      "type": "function"
    },
    {
      "constant": true,
      "inputs": [],
      "name": "owner",
      "outputs": [
        {
          "internalType": "address",
          "name": "",
          "type": "address"
        }
      ],
      "payable": false,
      "stateMutability": "view",
      "type": "function"
    },
    {
      "constant": true,
      "inputs": [
        {
          "internalType": "uint256",
          "name": "",
          "type": "uint256"
        }
      ],
      "name": "treatyIndex",
      "outputs": [
        {
          "internalType": "address",
          "name": "",
          "type": "address"
        }
      ],
      "payable": false,
      "stateMutability": "view",
      "type": "function"
    },
    {
      "constant": true,
      "inputs": [],
      "name": "getNumTreaties",
      "outputs": [
        {
          "internalType": "uint256",
          "name": "",
          "type": "uint256"
        }
      ],
      "payable": false,
      "stateMutability": "view",
      "type": "function"
    },
    {
      "constant": false,
      "inputs": [
        {
          "internalType": "string",
          "name": "_name",
          "type": "string"
        }
      ],
      "name": "rename",
      "outputs": [],
      "payable": false,
      "stateMutability": "nonpayable",
      "type": "function"
    },
    {
      "constant": false,
      "inputs": [
        {
          "internalType": "address",
          "name": "_treatyAddress",
          "type": "address"
        }
      ],
      "name": "addTreaty",
      "outputs": [],
      "payable": false,
      "stateMutability": "nonpayable",
      "type": "function"
    },
    {
      "constant": false,
      "inputs": [
        {
          "internalType": "uint256",
          "name": "_indexToDelete",
          "type": "uint256"
        }
      ],
      "name": "deleteTreaty",
      "outputs": [],
      "payable": false,
      "stateMutability": "nonpayable",
      "type": "function"
    },
    {
      "constant": true,
      "inputs": [],
      "name": "getTreatyIndex",
      "outputs": [
        {
          "internalType": "address[]",
          "name": "",
          "type": "address[]"
        }
      ],
      "payable": false,
      "stateMutability": "view",
      "type": "function"
    }
  ],
  "bytecode": "0x6080604052336000806101000a81548173ffffffffffffffffffffffffffffffffffffffff021916908373ffffffffffffffffffffffffffffffffffffffff160217905550426001553480156200005557600080fd5b5060405162000eb138038062000eb1833981810160405260208110156200007b57600080fd5b81019080805160405193929190846401000000008211156200009c57600080fd5b83820191506020820185811115620000b357600080fd5b8251866001820283011164010000000082111715620000d157600080fd5b8083526020830192505050908051906020019080838360005b8381101562000107578082015181840152602081019050620000ea565b50505050905090810190601f168015620001355780820380516001836020036101000a031916815260200191505b506040525050508060039080519060200190620001549291906200015c565b50506200020b565b828054600181600116156101000203166002900490600052602060002090601f016020900481019282601f106200019f57805160ff1916838001178555620001d0565b82800160010185558215620001d0579182015b82811115620001cf578251825591602001919060010190620001b2565b5b509050620001df9190620001e3565b5090565b6200020891905b8082111562000204576000816000905550600101620001ea565b5090565b90565b610c96806200021b6000396000f3fe608060405234801561001057600080fd5b50600436106100a95760003560e01c80638b45bd89116100715780638b45bd89146102685780638da5cb5b146102c7578063984617a814610311578063a6f9dae11461037f578063cfbe4e23146103c3578063d8270dce146103e1576100a9565b806306fdde03146100ae5780630f05dfd9146101315780631e9bf0da1461015f57806328fc81ed1461016957806366605ba4146101ad575b600080fd5b6100b66103ff565b6040518080602001828103825283818151815260200191508051906020019080838360005b838110156100f65780820151818401526020810190506100db565b50505050905090810190601f1680156101235780820380516001836020036101000a031916815260200191505b509250505060405180910390f35b61015d6004803603602081101561014757600080fd5b810190808035906020019092919050505061049d565b005b610167610674565b005b6101ab6004803603602081101561017f57600080fd5b81019080803573ffffffffffffffffffffffffffffffffffffffff1690602001909291905050506107dd565b005b610266600480360360208110156101c357600080fd5b81019080803590602001906401000000008111156101e057600080fd5b8201836020820111156101f257600080fd5b8035906020019184600183028401116401000000008311171561021457600080fd5b91908080601f016020809104026020016040519081016040528093929190818152602001838380828437600081840152601f19601f8201169050808301925050505050505091929192905050506108a9565b005b610270610987565b6040518080602001828103825283818151815260200191508051906020019060200280838360005b838110156102b3578082015181840152602081019050610298565b505050509050019250505060405180910390f35b6102cf610a15565b604051808273ffffffffffffffffffffffffffffffffffffffff1673ffffffffffffffffffffffffffffffffffffffff16815260200191505060405180910390f35b61033d6004803603602081101561032757600080fd5b8101908080359060200190929190505050610a3a565b604051808273ffffffffffffffffffffffffffffffffffffffff1673ffffffffffffffffffffffffffffffffffffffff16815260200191505060405180910390f35b6103c16004803603602081101561039557600080fd5b81019080803573ffffffffffffffffffffffffffffffffffffffff169060200190929190505050610a76565b005b6103cb610b7d565b6040518082815260200191505060405180910390f35b6103e9610b8a565b6040518082815260200191505060405180910390f35b60038054600181600116156101000203166002900480601f0160208091040260200160405190810160405280929190818152602001828054600181600116156101000203166002900480156104955780601f1061046a57610100808354040283529160200191610495565b820191906000526020600020905b81548152906001019060200180831161047857829003601f168201915b505050505081565b6000809054906101000a900473ffffffffffffffffffffffffffffffffffffffff168073ffffffffffffffffffffffffffffffffffffffff163373ffffffffffffffffffffffffffffffffffffffff1614610560576040517f08c379a00000000000000000000000000000000000000000000000000000000081526004018080602001828103825260168152602001807f53656e646572206e6f7420617574686f72697a65642e0000000000000000000081525060200191505060405180910390fd5b600060026001600280549050038154811061057757fe5b9060005260206000200160009054906101000a900473ffffffffffffffffffffffffffffffffffffffff16905080600284815481106105b257fe5b9060005260206000200160006101000a81548173ffffffffffffffffffffffffffffffffffffffff021916908373ffffffffffffffffffffffffffffffffffffffff160217905550600060026001600280549050038154811061061157fe5b9060005260206000200160006101000a81548173ffffffffffffffffffffffffffffffffffffffff021916908373ffffffffffffffffffffffffffffffffffffffff160217905550600280548091906001900361066e9190610b90565b50505050565b6000809054906101000a900473ffffffffffffffffffffffffffffffffffffffff168073ffffffffffffffffffffffffffffffffffffffff163373ffffffffffffffffffffffffffffffffffffffff1614610737576040517f08c379a00000000000000000000000000000000000000000000000000000000081526004018080602001828103825260168152602001807f53656e646572206e6f7420617574686f72697a65642e0000000000000000000081525060200191505060405180910390fd5b62375f0060015401804210156107b5576040517f08c379a000000000000000000000000000000000000000000000000000000000815260040180806020018281038252601a8152602001807f46756e6374696f6e2063616c6c656420746f6f206561726c792e00000000000081525060200191505060405180910390fd5b6000806101000a81549073ffffffffffffffffffffffffffffffffffffffff02191690555050565b60028190806001815401808255809150509060018203906000526020600020016000909192909190916101000a81548173ffffffffffffffffffffffffffffffffffffffff021916908373ffffffffffffffffffffffffffffffffffffffff160217905550507f3d161e346251d835e0a657f8873cd7a7d010932c2a3f43a4ee721b9bd8ffa01c81604051808273ffffffffffffffffffffffffffffffffffffffff1673ffffffffffffffffffffffffffffffffffffffff16815260200191505060405180910390a150565b6000809054906101000a900473ffffffffffffffffffffffffffffffffffffffff168073ffffffffffffffffffffffffffffffffffffffff163373ffffffffffffffffffffffffffffffffffffffff161461096c576040517f08c379a00000000000000000000000000000000000000000000000000000000081526004018080602001828103825260168152602001807f53656e646572206e6f7420617574686f72697a65642e0000000000000000000081525060200191505060405180910390fd5b8160039080519060200190610982929190610bbc565b505050565b60606002805480602002602001604051908101604052809291908181526020018280548015610a0b57602002820191906000526020600020905b8160009054906101000a900473ffffffffffffffffffffffffffffffffffffffff1673ffffffffffffffffffffffffffffffffffffffff16815260200190600101908083116109c1575b5050505050905090565b6000809054906101000a900473ffffffffffffffffffffffffffffffffffffffff1681565b60028181548110610a4757fe5b906000526020600020016000915054906101000a900473ffffffffffffffffffffffffffffffffffffffff1681565b6000809054906101000a900473ffffffffffffffffffffffffffffffffffffffff168073ffffffffffffffffffffffffffffffffffffffff163373ffffffffffffffffffffffffffffffffffffffff1614610b39576040517f08c379a00000000000000000000000000000000000000000000000000000000081526004018080602001828103825260168152602001807f53656e646572206e6f7420617574686f72697a65642e0000000000000000000081525060200191505060405180910390fd5b816000806101000a81548173ffffffffffffffffffffffffffffffffffffffff021916908373ffffffffffffffffffffffffffffffffffffffff1602179055505050565b6000600280549050905090565b60015481565b815481835581811115610bb757818360005260206000209182019101610bb69190610c3c565b5b505050565b828054600181600116156101000203166002900490600052602060002090601f016020900481019282601f10610bfd57805160ff1916838001178555610c2b565b82800160010185558215610c2b579182015b82811115610c2a578251825591602001919060010190610c0f565b5b509050610c389190610c3c565b5090565b610c5e91905b80821115610c5a576000816000905550600101610c42565b5090565b9056fea265627a7a7231582041cf0602fbb0c32fface7c5be204922e9adc2a43b6d39ccb62ee7f49129925c164736f6c63430005100032",
  "source": "pragma solidity ^0.5.16;\n\nimport \"./AccessRestriction.sol\";\nimport \"./Treaty.sol\";\n\n\ncontract TreatyIndex is AccessRestriction {\n    address[] public treatyIndex;\n    string public name;\n\n    event AddTreaty(address _treatyAddress);\n\n    constructor(string memory _name) public {\n        name = _name;\n    }\n\n    function getNumTreaties() public view returns (uint256) {\n        return treatyIndex.length;\n    }\n\n    function rename(string memory _name) public onlyBy(owner) {\n        name = _name;\n    }\n\n    function addTreaty(address _treatyAddress) public {\n        treatyIndex.push(_treatyAddress);\n        emit AddTreaty(_treatyAddress);\n    }\n\n    function deleteTreaty(uint256 _indexToDelete) public onlyBy(owner) {\n        address keyToMove = treatyIndex[treatyIndex.length - 1];\n        treatyIndex[_indexToDelete] = keyToMove;\n        treatyIndex[treatyIndex.length - 1] = address(0);\n        treatyIndex.length--;\n    }\n\n    function getTreatyIndex() public view returns (address[] memory) {\n        return treatyIndex;\n    }\n}\n",
  "sourcePath": "/home/grifma/Code/treatify-web3/contracts/TreatyIndex.sol",
  "compiler": {
    "name": "solc",
    "version": "0.5.16+commit.9c3226ce.Emscripten.clang"
  },
  "schemaVersion": "3.0.23",
  "updatedAt": "2020-07-23T15:44:06.071Z",
  "networkType": "ethereum",
  "devdoc": {
    "methods": {}
  },
  "userdoc": {
    "methods": {
      "changeOwner(address)": {
        "notice": "Make `_newOwner` the new owner of this contract."
      },
      "disown()": {
        "notice": "Erase ownership information. May only be called 6 weeks after the contract has been created."
      }
    }
  }
}