{
  "contractName": "Treaty",
  "abi": [
    {
      "inputs": [
        {
          "internalType": "uint256",
          "name": "_id",
          "type": "uint256"
        },
        {
          "internalType": "string",
          "name": "_name",
          "type": "string"
        },
        {
          "internalType": "string",
          "name": "_initialText",
          "type": "string"
        }
      ],
      "payable": false,
      "stateMutability": "nonpayable",
      "type": "constructor"
    },
    {
      "anonymous": false,
      "inputs": [
        {
          "indexed": true,
          "internalType": "address",
          "name": "_lawyerAddress",
          "type": "address"
        }
      ],
      "name": "ChangeLawyer",
      "type": "event"
    },
    {
      "anonymous": false,
      "inputs": [
        {
          "indexed": false,
          "internalType": "uint256",
          "name": "_lockTime",
          "type": "uint256"
        }
      ],
      "name": "Locked",
      "type": "event"
    },
    {
      "anonymous": false,
      "inputs": [
        {
          "indexed": false,
          "internalType": "bytes32",
          "name": "_b",
          "type": "bytes32"
        }
      ],
      "name": "LogBytes32",
      "type": "event"
    },
    {
      "anonymous": false,
      "inputs": [],
      "name": "LogNotOK",
      "type": "event"
    },
    {
      "anonymous": false,
      "inputs": [],
      "name": "LogOK",
      "type": "event"
    },
    {
      "anonymous": false,
      "inputs": [
        {
          "indexed": true,
          "internalType": "address",
          "name": "_treatyAddress",
          "type": "address"
        }
      ],
      "name": "MakeActive",
      "type": "event"
    },
    {
      "anonymous": false,
      "inputs": [],
      "name": "MutuallyWithdrawn",
      "type": "event"
    },
    {
      "anonymous": false,
      "inputs": [
        {
          "indexed": false,
          "internalType": "address",
          "name": "_signer",
          "type": "address"
        }
      ],
      "name": "RegisterAsSigner",
      "type": "event"
    },
    {
      "anonymous": false,
      "inputs": [
        {
          "indexed": true,
          "internalType": "address",
          "name": "_signer",
          "type": "address"
        },
        {
          "indexed": true,
          "internalType": "bytes32",
          "name": "_hash",
          "type": "bytes32"
        }
      ],
      "name": "SignHash",
      "type": "event"
    },
    {
      "anonymous": false,
      "inputs": [
        {
          "indexed": true,
          "internalType": "address",
          "name": "_signer",
          "type": "address"
        }
      ],
      "name": "SignedBy",
      "type": "event"
    },
    {
      "anonymous": false,
      "inputs": [
        {
          "indexed": true,
          "internalType": "address",
          "name": "_treatyAddress",
          "type": "address"
        }
      ],
      "name": "SignedByAll",
      "type": "event"
    },
    {
      "anonymous": false,
      "inputs": [
        {
          "indexed": false,
          "internalType": "enum Treaty.States",
          "name": "_newState",
          "type": "uint8"
        }
      ],
      "name": "StateChange",
      "type": "event"
    },
    {
      "anonymous": false,
      "inputs": [],
      "name": "UnLocked",
      "type": "event"
    },
    {
      "anonymous": false,
      "inputs": [],
      "name": "UnsignedTreatyTextDeleted",
      "type": "event"
    },
    {
      "anonymous": false,
      "inputs": [
        {
          "indexed": true,
          "internalType": "address",
          "name": "_signer",
          "type": "address"
        }
      ],
      "name": "WithdrawnFromTreaty",
      "type": "event"
    },
    {
      "anonymous": false,
      "inputs": [
        {
          "indexed": true,
          "internalType": "string",
          "name": "_text",
          "type": "string"
        }
      ],
      "name": "WriteToTreaty",
      "type": "event"
    },
    {
      "constant": false,
      "inputs": [
        {
          "internalType": "address",
          "name": "_newOwner",
          "type": "address"
        }
      ],
      "name": "changeOwner",
      "outputs": [],
      "payable": false,
      "stateMutability": "nonpayable",
      "type": "function"
    },
    {
      "constant": true,
      "inputs": [],
      "name": "creationTime",
      "outputs": [
        {
          "internalType": "uint256",
          "name": "",
          "type": "uint256"
        }
      ],
      "payable": false,
      "stateMutability": "view",
      "type": "function"
    },
    {
      "constant": false,
      "inputs": [],
      "name": "disown",
      "outputs": [],
      "payable": false,
      "stateMutability": "nonpayable",
      "type": "function"
    },
    {
      "constant": true,
      "inputs": [],
      "name": "id",
      "outputs": [
        {
          "internalType": "uint256",
          "name": "",
          "type": "uint256"
        }
      ],
      "payable": false,
      "stateMutability": "view",
      "type": "function"
    },
    {
      "constant": true,
      "inputs": [],
      "name": "lastStateChange",
      "outputs": [
        {
          "internalType": "uint256",
          "name": "",
          "type": "uint256"
        }
      ],
      "payable": false,
      "stateMutability": "view",
      "type": "function"
    },
    {
      "constant": true,
      "inputs": [],
      "name": "lawyerAddress",
      "outputs": [
        {
          "internalType": "address",
          "name": "",
          "type": "address"
        }
      ],
      "payable": false,
      "stateMutability": "view",
      "type": "function"
    },
    {
      "constant": true,
      "inputs": [],
      "name": "lockAt",
      "outputs": [
        {
          "internalType": "uint256",
          "name": "",
          "type": "uint256"
        }
      ],
      "payable": false,
      "stateMutability": "view",
      "type": "function"
    },
    {
      "constant": true,
      "inputs": [],
      "name": "locked",
      "outputs": [
        {
          "internalType": "bool",
          "name": "",
          "type": "bool"
        }
      ],
      "payable": false,
      "stateMutability": "view",
      "type": "function"
    },
    {
      "constant": true,
      "inputs": [],
      "name": "name",
      "outputs": [
        {
          "internalType": "string",
          "name": "",
          "type": "string"
        }
      ],
      "payable": false,
      "stateMutability": "view",
      "type": "function"
    },
    {
      "constant": true,
      "inputs": [],
      "name": "owner",
      "outputs": [
        {
          "internalType": "address",
          "name": "",
          "type": "address"
        }
      ],
      "payable": false,
      "stateMutability": "view",
      "type": "function"
    },
    {
      "constant": true,
      "inputs": [],
      "name": "releaseAt",
      "outputs": [
        {
          "internalType": "uint256",
          "name": "",
          "type": "uint256"
        }
      ],
      "payable": false,
      "stateMutability": "view",
      "type": "function"
    },
    {
      "constant": true,
      "inputs": [
        {
          "internalType": "uint256",
          "name": "",
          "type": "uint256"
        }
      ],
      "name": "signatureList",
      "outputs": [
        {
          "internalType": "address",
          "name": "",
          "type": "address"
        }
      ],
      "payable": false,
      "stateMutability": "view",
      "type": "function"
    },
    {
      "constant": true,
      "inputs": [
        {
          "internalType": "address",
          "name": "",
          "type": "address"
        }
      ],
      "name": "signatureState",
      "outputs": [
        {
          "internalType": "enum Treaty.SignatureState",
          "name": "",
          "type": "uint8"
        }
      ],
      "payable": false,
      "stateMutability": "view",
      "type": "function"
    },
    {
      "constant": true,
      "inputs": [
        {
          "internalType": "uint256",
          "name": "",
          "type": "uint256"
        }
      ],
      "name": "signedHash",
      "outputs": [
        {
          "internalType": "bytes32",
          "name": "",
          "type": "bytes32"
        }
      ],
      "payable": false,
      "stateMutability": "view",
      "type": "function"
    },
    {
      "constant": true,
      "inputs": [
        {
          "internalType": "uint256",
          "name": "",
          "type": "uint256"
        }
      ],
      "name": "signedTreatyText",
      "outputs": [
        {
          "internalType": "string",
          "name": "",
          "type": "string"
        }
      ],
      "payable": false,
      "stateMutability": "view",
      "type": "function"
    },
    {
      "constant": true,
      "inputs": [],
      "name": "treatyState",
      "outputs": [
        {
          "internalType": "enum Treaty.States",
          "name": "",
          "type": "uint8"
        }
      ],
      "payable": false,
      "stateMutability": "view",
      "type": "function"
    },
    {
      "constant": true,
      "inputs": [
        {
          "internalType": "uint256",
          "name": "",
          "type": "uint256"
        }
      ],
      "name": "unsignedHash",
      "outputs": [
        {
          "internalType": "bytes32",
          "name": "",
          "type": "bytes32"
        }
      ],
      "payable": false,
      "stateMutability": "view",
      "type": "function"
    },
    {
      "constant": true,
      "inputs": [
        {
          "internalType": "uint256",
          "name": "",
          "type": "uint256"
        }
      ],
      "name": "unsignedTreatyText",
      "outputs": [
        {
          "internalType": "string",
          "name": "",
          "type": "string"
        }
      ],
      "payable": false,
      "stateMutability": "view",
      "type": "function"
    },
    {
      "constant": false,
      "inputs": [],
      "name": "registerAsSigner",
      "outputs": [],
      "payable": false,
      "stateMutability": "nonpayable",
      "type": "function"
    },
    {
      "constant": false,
      "inputs": [],
      "name": "makeActive",
      "outputs": [],
      "payable": false,
      "stateMutability": "nonpayable",
      "type": "function"
    },
    {
      "constant": false,
      "inputs": [
        {
          "internalType": "string",
          "name": "_text",
          "type": "string"
        }
      ],
      "name": "writeToTreaty",
      "outputs": [],
      "payable": false,
      "stateMutability": "nonpayable",
      "type": "function"
    },
    {
      "constant": true,
      "inputs": [
        {
          "internalType": "bytes",
          "name": "_bytes",
          "type": "bytes"
        }
      ],
      "name": "calcSHA3",
      "outputs": [
        {
          "internalType": "bytes32",
          "name": "",
          "type": "bytes32"
        }
      ],
      "payable": false,
      "stateMutability": "pure",
      "type": "function"
    },
    {
      "constant": false,
      "inputs": [],
      "name": "signTreaty",
      "outputs": [],
      "payable": false,
      "stateMutability": "nonpayable",
      "type": "function"
    },
    {
      "constant": false,
      "inputs": [
        {
          "internalType": "bytes32",
          "name": "_hash",
          "type": "bytes32"
        }
      ],
      "name": "signHash",
      "outputs": [],
      "payable": false,
      "stateMutability": "nonpayable",
      "type": "function"
    },
    {
      "constant": false,
      "inputs": [],
      "name": "makeBinding",
      "outputs": [],
      "payable": false,
      "stateMutability": "nonpayable",
      "type": "function"
    },
    {
      "constant": false,
      "inputs": [],
      "name": "undoBinding",
      "outputs": [],
      "payable": false,
      "stateMutability": "nonpayable",
      "type": "function"
    },
    {
      "constant": false,
      "inputs": [
        {
          "internalType": "address",
          "name": "_newLawyer",
          "type": "address"
        }
      ],
      "name": "changeLawyer",
      "outputs": [],
      "payable": false,
      "stateMutability": "nonpayable",
      "type": "function"
    },
    {
      "constant": false,
      "inputs": [],
      "name": "withdrawFromTreaty",
      "outputs": [],
      "payable": false,
      "stateMutability": "nonpayable",
      "type": "function"
    },
    {
      "constant": true,
      "inputs": [],
      "name": "getSignersAsText",
      "outputs": [
        {
          "internalType": "string",
          "name": "",
          "type": "string"
        }
      ],
      "payable": false,
      "stateMutability": "view",
      "type": "function"
    },
    {
      "constant": true,
      "inputs": [],
      "name": "getNumSignatures",
      "outputs": [
        {
          "internalType": "uint256",
          "name": "",
          "type": "uint256"
        }
      ],
      "payable": false,
      "stateMutability": "view",
      "type": "function"
    },
    {
      "constant": true,
      "inputs": [
        {
          "internalType": "uint256",
          "name": "_index",
          "type": "uint256"
        }
      ],
      "name": "getUnsignedTreatyText",
      "outputs": [
        {
          "internalType": "string",
          "name": "treatyText",
          "type": "string"
        }
      ],
      "payable": false,
      "stateMutability": "view",
      "type": "function"
    },
    {
      "constant": true,
      "inputs": [
        {
          "internalType": "uint256",
          "name": "_index",
          "type": "uint256"
        }
      ],
      "name": "getSignedTreatyText",
      "outputs": [
        {
          "internalType": "string",
          "name": "treatyText",
          "type": "string"
        }
      ],
      "payable": false,
      "stateMutability": "view",
      "type": "function"
    },
    {
      "constant": true,
      "inputs": [],
      "name": "getNumUnsigned",
      "outputs": [
        {
          "internalType": "uint256",
          "name": "",
          "type": "uint256"
        }
      ],
      "payable": false,
      "stateMutability": "view",
      "type": "function"
    },
    {
      "constant": true,
      "inputs": [],
      "name": "getNumSigned",
      "outputs": [
        {
          "internalType": "uint256",
          "name": "",
          "type": "uint256"
        }
      ],
      "payable": false,
      "stateMutability": "view",
      "type": "function"
    },
    {
      "constant": true,
      "inputs": [],
      "name": "okToUnlock",
      "outputs": [
        {
          "internalType": "bool",
          "name": "ok",
          "type": "bool"
        }
      ],
      "payable": false,
      "stateMutability": "view",
      "type": "function"
    },
    {
      "constant": false,
      "inputs": [
        {
          "internalType": "uint256",
          "name": "_lockTime",
          "type": "uint256"
        }
      ],
      "name": "lockFor",
      "outputs": [],
      "payable": false,
      "stateMutability": "nonpayable",
      "type": "function"
    },
    {
      "constant": false,
      "inputs": [
        {
          "internalType": "uint256",
          "name": "_months",
          "type": "uint256"
        }
      ],
      "name": "lockForMonths",
      "outputs": [],
      "payable": false,
      "stateMutability": "nonpayable",
      "type": "function"
    },
    {
      "constant": false,
      "inputs": [
        {
          "internalType": "uint256",
          "name": "_days",
          "type": "uint256"
        }
      ],
      "name": "lockForDays",
      "outputs": [],
      "payable": false,
      "stateMutability": "nonpayable",
      "type": "function"
    },
    {
      "constant": false,
      "inputs": [],
      "name": "getLocked",
      "outputs": [
        {
          "internalType": "bool",
          "name": "",
          "type": "bool"
        }
      ],
      "payable": false,
      "stateMutability": "nonpayable",
      "type": "function"
    },
    {
      "constant": true,
      "inputs": [],
      "name": "getLastUnsignedText",
      "outputs": [
        {
          "internalType": "string",
          "name": "",
          "type": "string"
        }
      ],
      "payable": false,
      "stateMutability": "view",
      "type": "function"
    },
    {
      "constant": true,
      "inputs": [],
      "name": "getLastSignedText",
      "outputs": [
        {
          "internalType": "string",
          "name": "",
          "type": "string"
        }
      ],
      "payable": false,
      "stateMutability": "view",
      "type": "function"
    },
    {
      "constant": true,
      "inputs": [],
      "name": "getLastUnsignedHash",
      "outputs": [
        {
          "internalType": "bytes32",
          "name": "",
          "type": "bytes32"
        }
      ],
      "payable": false,
      "stateMutability": "view",
      "type": "function"
    },
    {
      "constant": true,
      "inputs": [],
      "name": "getLastSignedHash",
      "outputs": [
        {
          "internalType": "bytes32",
          "name": "",
          "type": "bytes32"
        }
      ],
      "payable": false,
      "stateMutability": "view",
      "type": "function"
    }
  ],
  "bytecode": "0x6080604052336000806101000a81548173ffffffffffffffffffffffffffffffffffffffff021916908373ffffffffffffffffffffffffffffffffffffffff160217905550426001556000600460006101000a81548160ff021916908360048111156200006857fe5b021790555042600c5542600d5542600e556000600f60006101000a81548160ff02191690831515021790555042601055348015620000a557600080fd5b5060405162003e6b38038062003e6b83398181016040526060811015620000cb57600080fd5b810190808051906020019092919080516040519392919084640100000000821115620000f657600080fd5b838201915060208201858111156200010d57600080fd5b82518660018202830111640100000000821117156200012b57600080fd5b8083526020830192505050908051906020019080838360005b838110156200016157808201518184015260208101905062000144565b50505050905090810190601f1680156200018f5780820380516001836020036101000a031916815260200191505b5060405260200180516040519392919084640100000000821115620001b357600080fd5b83820191506020820185811115620001ca57600080fd5b8251866001820283011164010000000082111715620001e857600080fd5b8083526020830192505050908051906020019080838360005b838110156200021e57808201518184015260208101905062000201565b50505050905090810190601f1680156200024c5780820380516001836020036101000a031916815260200191505b5060405250505082600281905550816003908051906020019062000272929190620002fe565b506006819080600181540180825580915050906001820390600052602060002001600090919290919091509080519060200190620002b2929190620002fe565b505033600b60006101000a81548173ffffffffffffffffffffffffffffffffffffffff021916908373ffffffffffffffffffffffffffffffffffffffff160217905550505050620003ad565b828054600181600116156101000203166002900490600052602060002090601f016020900481019282601f106200034157805160ff191683800117855562000372565b8280016001018555821562000372579182015b828111156200037157825182559160200191906001019062000354565b5b50905062000381919062000385565b5090565b620003aa91905b80821115620003a65760008160009055506001016200038c565b5090565b90565b613aae80620003bd6000396000f3fe608060405234801561001057600080fd5b50600436106102695760003560e01c806398edc24f11610151578063b2bac483116100c3578063d8270dce11610087578063d8270dce14610bc6578063e203712e14610be4578063e66f865014610c12578063e9847e5114610c1c578063eb25775b14610c82578063f1a8aefb14610d2957610269565b8063b2bac48314610a02578063c19b7a0414610aa9578063c749cd2214610b17578063cc34d5b214610b21578063cf30901214610ba457610269565b8063aa54f5f011610115578063aa54f5f0146108a1578063ada1329f146108bf578063ae69ef4c146108ed578063aee792f81461090b578063af640d0f14610929578063af65335c1461094757610269565b806398edc24f146107165780639e4ea65b14610744578063a02b20ba14610762578063a352f1a81461078e578063a6f9dae11461085d57610269565b80634b7698c6116101ea5780637d6092e0116101ae5780637d6092e01461057b5780638b6ccc83146105bf5780638bcd1753146105e15780638da5cb5b146105ff57806390dc61b414610649578063978de6a41461069357610269565b80634b7698c6146104845780635a3e8364146104c65780635ac8dc94146104d05780636e10e4ea146104da5780637c217e6c146104f857610269565b8063254451041161023157806325445104146103655780632cac98f9146103935780632d49ffcd146103b157806336fc1171146103d3578063434bb1181461047a57610269565b806306fdde031461026e57806315c9f1e5146102f15780631cb4256e1461030f5780631e3fc865146103195780631e9bf0da1461035b575b600080fd5b610276610dd0565b6040518080602001828103825283818151815260200191508051906020019080838360005b838110156102b657808201518184015260208101905061029b565b50505050905090810190601f1680156102e35780820380516001836020036101000a031916815260200191505b509250505060405180910390f35b6102f9610e6e565b6040518082815260200191505060405180910390f35b610317610eae565b005b6103456004803603602081101561032f57600080fd5b8101908080359060200190929190505050611172565b6040518082815260200191505060405180910390f35b610363611193565b005b6103916004803603602081101561037b57600080fd5b81019080803590602001909291905050506112fc565b005b61039b6115fc565b6040518082815260200191505060405180910390f35b6103b961163c565b604051808215151515815260200191505060405180910390f35b6103ff600480360360208110156103e957600080fd5b8101908080359060200190929190505050611694565b6040518080602001828103825283818151815260200191508051906020019080838360005b8381101561043f578082015181840152602081019050610424565b50505050905090810190601f16801561046c5780820380516001836020036101000a031916815260200191505b509250505060405180910390f35b610482611799565b005b6104b06004803603602081101561049a57600080fd5b81019080803590602001909291905050506119ea565b6040518082815260200191505060405180910390f35b6104ce611a0b565b005b6104d8611c22565b005b6104e2611e76565b6040518082815260200191505060405180910390f35b610500611e83565b6040518080602001828103825283818151815260200191508051906020019080838360005b83811015610540578082015181840152602081019050610525565b50505050905090810190601f16801561056d5780820380516001836020036101000a031916815260200191505b509250505060405180910390f35b6105bd6004803603602081101561059157600080fd5b81019080803573ffffffffffffffffffffffffffffffffffffffff169060200190929190505050611f8e565b005b6105c7612162565b604051808215151515815260200191505060405180910390f35b6105e961217e565b6040518082815260200191505060405180910390f35b61060761218b565b604051808273ffffffffffffffffffffffffffffffffffffffff1673ffffffffffffffffffffffffffffffffffffffff16815260200191505060405180910390f35b6106516121b0565b604051808273ffffffffffffffffffffffffffffffffffffffff1673ffffffffffffffffffffffffffffffffffffffff16815260200191505060405180910390f35b61069b6121d6565b6040518080602001828103825283818151815260200191508051906020019080838360005b838110156106db5780820151818401526020810190506106c0565b50505050905090810190601f1680156107085780820380516001836020036101000a031916815260200191505b509250505060405180910390f35b6107426004803603602081101561072c57600080fd5b8101908080359060200190929190505050612294565b005b61074c61232b565b6040518082815260200191505060405180910390f35b61076a612331565b6040518082600481111561077a57fe5b60ff16815260200191505060405180910390f35b610847600480360360208110156107a457600080fd5b81019080803590602001906401000000008111156107c157600080fd5b8201836020820111156107d357600080fd5b803590602001918460018302840111640100000000831117156107f557600080fd5b91908080601f016020809104026020016040519081016040528093929190818152602001838380828437600081840152601f19601f820116905080830192505050505050509192919290505050612344565b6040518082815260200191505060405180910390f35b61089f6004803603602081101561087357600080fd5b81019080803573ffffffffffffffffffffffffffffffffffffffff169060200190929190505050612355565b005b6108a961245c565b6040518082815260200191505060405180910390f35b6108eb600480360360208110156108d557600080fd5b8101908080359060200190929190505050612469565b005b6108f56125c9565b6040518082815260200191505060405180910390f35b6109136125cf565b6040518082815260200191505060405180910390f35b6109316125d5565b6040518082815260200191505060405180910390f35b610a006004803603602081101561095d57600080fd5b810190808035906020019064010000000081111561097a57600080fd5b82018360208201111561098c57600080fd5b803590602001918460018302840111640100000000831117156109ae57600080fd5b91908080601f016020809104026020016040519081016040528093929190818152602001838380828437600081840152601f19601f8201169050808301925050505050505091929192905050506125db565b005b610a2e60048036036020811015610a1857600080fd5b810190808035906020019092919050505061274f565b6040518080602001828103825283818151815260200191508051906020019080838360005b83811015610a6e578082015181840152602081019050610a53565b50505050905090810190601f168015610a9b5780820380516001836020036101000a031916815260200191505b509250505060405180910390f35b610ad560048036036020811015610abf57600080fd5b8101908080359060200190929190505050612808565b604051808273ffffffffffffffffffffffffffffffffffffffff1673ffffffffffffffffffffffffffffffffffffffff16815260200191505060405180910390f35b610b1f612844565b005b610b296129d2565b6040518080602001828103825283818151815260200191508051906020019080838360005b83811015610b69578082015181840152602081019050610b4e565b50505050905090810190601f168015610b965780820380516001836020036101000a031916815260200191505b509250505060405180910390f35b610bac612add565b604051808215151515815260200191505060405180910390f35b610bce612af0565b6040518082815260200191505060405180910390f35b610c1060048036036020811015610bfa57600080fd5b8101908080359060200190929190505050612af6565b005b610c1a612be3565b005b610c5e60048036036020811015610c3257600080fd5b81019080803573ffffffffffffffffffffffffffffffffffffffff169060200190929190505050612e9e565b60405180826003811115610c6e57fe5b60ff16815260200191505060405180910390f35b610cae60048036036020811015610c9857600080fd5b8101908080359060200190929190505050612ebe565b6040518080602001828103825283818151815260200191508051906020019080838360005b83811015610cee578082015181840152602081019050610cd3565b50505050905090810190601f168015610d1b5780820380516001836020036101000a031916815260200191505b509250505060405180910390f35b610d5560048036036020811015610d3f57600080fd5b8101908080359060200190929190505050612fc3565b6040518080602001828103825283818151815260200191508051906020019080838360005b83811015610d95578082015181840152602081019050610d7a565b50505050905090810190601f168015610dc25780820380516001836020036101000a031916815260200191505b509250505060405180910390f35b60038054600181600116156101000203166002900480601f016020809104026020016040519081016040528092919081815260200182805460018160011615610100020316600290048015610e665780601f10610e3b57610100808354040283529160200191610e66565b820191906000526020600020905b815481529060010190602001808311610e4957829003601f168201915b505050505081565b6000806009805490501415610e88576000801b9050610eab565b600960016009805490500381548110610e9d57fe5b906000526020600020015490505b90565b60016003816004811115610ebe57fe5b600460009054906101000a900460ff166004811115610ed957fe5b1480610f095750806004811115610eec57fe5b600460009054906101000a900460ff166004811115610f0757fe5b145b610f7b576040517f08c379a000000000000000000000000000000000000000000000000000000000815260040180806020018281038252601f8152602001807f547265617479206973206e6f7420696e2065787065637465642073746174650081525060200191505060405180910390fd5b60001515610f8761163c565b151514610ffc576040517f08c379a00000000000000000000000000000000000000000000000000000000081526004018080602001828103825260178152602001807f547265617479206d75737420626520756e6c6f636b656400000000000000000081525060200191505060405180910390fd5b6002600560003373ffffffffffffffffffffffffffffffffffffffff1673ffffffffffffffffffffffffffffffffffffffff16815260200190815260200160002060006101000a81548160ff0219169083600381111561105857fe5b02179055506003600460006101000a81548160ff0219169083600481111561107c57fe5b02179055503373ffffffffffffffffffffffffffffffffffffffff167f36470f40a89d93e9f964a247cde9d2b4b634d072690cad651ebd7ecaf67a890d60405160405180910390a27fa4248ceb280c6f9303d3ba87af96d45c3b0c834338095ab6350dbe86d38c9fc56003604051808260048111156110f757fe5b60ff16815260200191505060405180910390a161111261307c565b15611167577fb64360559bafea09179770789bfd43645117bd524ff0c994b758a89a80a97e1f60405160405180910390a160048060006101000a81548160ff0219169083600481111561116157fe5b02179055505b426010819055505050565b6008818154811061117f57fe5b906000526020600020016000915090505481565b6000809054906101000a900473ffffffffffffffffffffffffffffffffffffffff168073ffffffffffffffffffffffffffffffffffffffff163373ffffffffffffffffffffffffffffffffffffffff1614611256576040517f08c379a00000000000000000000000000000000000000000000000000000000081526004018080602001828103825260168152602001807f53656e646572206e6f7420617574686f72697a65642e0000000000000000000081525060200191505060405180910390fd5b62375f0060015401804210156112d4576040517f08c379a000000000000000000000000000000000000000000000000000000000815260040180806020018281038252601a8152602001807f46756e6374696f6e2063616c6c656420746f6f206561726c792e00000000000081525060200191505060405180910390fd5b6000806101000a81549073ffffffffffffffffffffffffffffffffffffffff02191690555050565b600180600481111561130a57fe5b600460009054906101000a900460ff16600481111561132557fe5b14611398576040517f08c379a000000000000000000000000000000000000000000000000000000000815260040180806020018281038252601f8152602001807f547265617479206973206e6f7420696e2065787065637465642073746174650081525060200191505060405180910390fd5b600015156113a461163c565b151514611419576040517f08c379a00000000000000000000000000000000000000000000000000000000081526004018080602001828103825260178152602001807f547265617479206d75737420626520756e6c6f636b656400000000000000000081525060200191505060405180910390fd5b6000600381111561142657fe5b600560003373ffffffffffffffffffffffffffffffffffffffff1673ffffffffffffffffffffffffffffffffffffffff16815260200190815260200160002060009054906101000a900460ff16600381111561147e57fe5b146114f1576040517f08c379a00000000000000000000000000000000000000000000000000000000081526004018080602001828103825260148152602001807f556e6578706563746564207369676e617475726500000000000000000000000081525060200191505060405180910390fd5b6114f96115fc565b82146115345761150761308d565b60088290806001815401808255809150509060018203906000526020600020016000909192909190915055505b6001600560003373ffffffffffffffffffffffffffffffffffffffff1673ffffffffffffffffffffffffffffffffffffffff16815260200190815260200160002060006101000a81548160ff0219169083600381111561159057fe5b0217905550813373ffffffffffffffffffffffffffffffffffffffff167fa14cdc353dbba5bc7ee3531c66d3d8f976c6616a9714d2ae54fe11d791d380e660405160405180910390a36115e36001613148565b156115f1576115f061321e565b5b426010819055505050565b6000806008805490501415611616576000801b9050611639565b60086001600880549050038154811061162b57fe5b906000526020600020015490505b90565b6000600f60009054906101000a900460ff16801561165e575061165d612162565b5b1561167f576000600f60006101000a81548160ff0219169083151502179055505b600f60009054906101000a900460ff16905090565b6060600060078054905014156116e1576040518060400160405280600781526020017f4e6f2074657874000000000000000000000000000000000000000000000000008152509050611794565b600782815481106116ee57fe5b906000526020600020018054600181600116156101000203166002900480601f01602080910402602001604051908101604052809291908181526020018280546001816001161561010002031660029004801561178c5780601f106117615761010080835404028352916020019161178c565b820191906000526020600020905b81548152906001019060200180831161176f57829003601f168201915b505050505090505b919050565b60008060048111156117a757fe5b600460009054906101000a900460ff1660048111156117c257fe5b14611835576040517f08c379a000000000000000000000000000000000000000000000000000000000815260040180806020018281038252601f8152602001807f547265617479206973206e6f7420696e2065787065637465642073746174650081525060200191505060405180910390fd5b6000151561184161163c565b1515146118b6576040517f08c379a00000000000000000000000000000000000000000000000000000000081526004018080602001828103825260178152602001807f547265617479206d75737420626520756e6c6f636b656400000000000000000081525060200191505060405180910390fd5b6000600560003373ffffffffffffffffffffffffffffffffffffffff1673ffffffffffffffffffffffffffffffffffffffff16815260200190815260200160002060006101000a81548160ff0219169083600381111561191257fe5b0217905550600a3390806001815401808255809150509060018203906000526020600020016000909192909190916101000a81548173ffffffffffffffffffffffffffffffffffffffff021916908373ffffffffffffffffffffffffffffffffffffffff160217905550507feadd0daa6774f85dbc780c7e80dee90d5da7b5f9ae188e0a6a4572a5b751b95733604051808273ffffffffffffffffffffffffffffffffffffffff1673ffffffffffffffffffffffffffffffffffffffff16815260200191505060405180910390a14260108190555050565b600981815481106119f757fe5b906000526020600020016000915090505481565b600b60009054906101000a900473ffffffffffffffffffffffffffffffffffffffff168073ffffffffffffffffffffffffffffffffffffffff163373ffffffffffffffffffffffffffffffffffffffff1614611acf576040517f08c379a00000000000000000000000000000000000000000000000000000000081526004018080602001828103825260168152602001807f53656e646572206e6f7420617574686f72697a65642e0000000000000000000081525060200191505060405180910390fd5b60001515611adb61163c565b151514611b50576040517f08c379a00000000000000000000000000000000000000000000000000000000081526004018080602001828103825260178152602001807f547265617479206d75737420626520756e6c6f636b656400000000000000000081525060200191505060405180910390fd5b600060068054905014611bae576040517f08c379a0000000000000000000000000000000000000000000000000000000008152600401808060200182810382526039815260200180613a416039913960400191505060405180910390fd5b6002600460006101000a81548160ff02191690836004811115611bcd57fe5b02179055507fa4248ceb280c6f9303d3ba87af96d45c3b0c834338095ab6350dbe86d38c9fc5600260405180826004811115611c0557fe5b60ff16815260200191505060405180910390a14260108190555050565b600b60009054906101000a900473ffffffffffffffffffffffffffffffffffffffff168073ffffffffffffffffffffffffffffffffffffffff163373ffffffffffffffffffffffffffffffffffffffff1614611ce6576040517f08c379a00000000000000000000000000000000000000000000000000000000081526004018080602001828103825260168152602001807f53656e646572206e6f7420617574686f72697a65642e0000000000000000000081525060200191505060405180910390fd5b60001515611cf261163c565b151514611d67576040517f08c379a00000000000000000000000000000000000000000000000000000000081526004018080602001828103825260178152602001807f547265617479206d75737420626520756e6c6f636b656400000000000000000081525060200191505060405180910390fd5b60026004811115611d7457fe5b600460009054906101000a900460ff166004811115611d8f57fe5b14611e02576040517f08c379a00000000000000000000000000000000000000000000000000000000081526004018080602001828103825260158152602001807f547265617479206973206e6f742062696e64696e67000000000000000000000081525060200191505060405180910390fd5b6001600460006101000a81548160ff02191690836004811115611e2157fe5b02179055507fa4248ceb280c6f9303d3ba87af96d45c3b0c834338095ab6350dbe86d38c9fc5600160405180826004811115611e5957fe5b60ff16815260200191505060405180910390a14260108190555050565b6000600780549050905090565b606060006007805490501415611ed0576040518060400160405280600e81526020017f4e6f207369676e656420746578740000000000000000000000000000000000008152509050611f8b565b600760016007805490500381548110611ee557fe5b906000526020600020018054600181600116156101000203166002900480601f016020809104026020016040519081016040528092919081815260200182805460018160011615610100020316600290048015611f835780601f10611f5857610100808354040283529160200191611f83565b820191906000526020600020905b815481529060010190602001808311611f6657829003601f168201915b505050505090505b90565b600b60009054906101000a900473ffffffffffffffffffffffffffffffffffffffff168073ffffffffffffffffffffffffffffffffffffffff163373ffffffffffffffffffffffffffffffffffffffff1614612052576040517f08c379a00000000000000000000000000000000000000000000000000000000081526004018080602001828103825260168152602001807f53656e646572206e6f7420617574686f72697a65642e0000000000000000000081525060200191505060405180910390fd5b6000151561205e61163c565b1515146120d3576040517f08c379a00000000000000000000000000000000000000000000000000000000081526004018080602001828103825260178152602001807f547265617479206d75737420626520756e6c6f636b656400000000000000000081525060200191505060405180910390fd5b81600b60006101000a81548173ffffffffffffffffffffffffffffffffffffffff021916908373ffffffffffffffffffffffffffffffffffffffff1602179055508173ffffffffffffffffffffffffffffffffffffffff167fbb1b0880e9db25ac9a3db07b4ee026eee1fba02dd4cc0178a402a0dfd17f1a4e60405160405180910390a2426010819055505050565b6000600e544210612176576001905061217b565b600090505b90565b6000600680549050905090565b6000809054906101000a900473ffffffffffffffffffffffffffffffffffffffff1681565b600b60009054906101000a900473ffffffffffffffffffffffffffffffffffffffff1681565b60608060405180602001604052806000815250905060008090505b600a8054905081101561228c5761227d82612242600a848154811061221257fe5b9060005260206000200160009054906101000a900473ffffffffffffffffffffffffffffffffffffffff16613460565b6040518060400160405280600381526020017f207c200000000000000000000000000000000000000000000000000000000000815250613527565b915080806001019150506121f1565b508091505090565b600015156122a061163c565b151514612315576040517f08c379a00000000000000000000000000000000000000000000000000000000081526004018080602001828103825260178152602001807f547265617479206d75737420626520756e6c6f636b656400000000000000000081525060200191505060405180910390fd5b612321601e8202612469565b4260108190555050565b600d5481565b600460009054906101000a900460ff1681565b600081805190602001209050919050565b6000809054906101000a900473ffffffffffffffffffffffffffffffffffffffff168073ffffffffffffffffffffffffffffffffffffffff163373ffffffffffffffffffffffffffffffffffffffff1614612418576040517f08c379a00000000000000000000000000000000000000000000000000000000081526004018080602001828103825260168152602001807f53656e646572206e6f7420617574686f72697a65642e0000000000000000000081525060200191505060405180910390fd5b816000806101000a81548173ffffffffffffffffffffffffffffffffffffffff021916908373ffffffffffffffffffffffffffffffffffffffff1602179055505050565b6000600a80549050905090565b6000151561247561163c565b1515146124ea576040517f08c379a00000000000000000000000000000000000000000000000000000000081526004018080602001828103825260178152602001807f547265617479206d75737420626520756e6c6f636b656400000000000000000081525060200191505060405180910390fd5b6000809054906101000a900473ffffffffffffffffffffffffffffffffffffffff168073ffffffffffffffffffffffffffffffffffffffff163373ffffffffffffffffffffffffffffffffffffffff16146125ad576040517f08c379a00000000000000000000000000000000000000000000000000000000081526004018080602001828103825260168152602001807f53656e646572206e6f7420617574686f72697a65642e0000000000000000000081525060200191505060405180910390fd5b6125be603c80601885020202612af6565b504260108190555050565b600e5481565b60105481565b60025481565b60018060048111156125e957fe5b600460009054906101000a900460ff16600481111561260457fe5b14612677576040517f08c379a000000000000000000000000000000000000000000000000000000000815260040180806020018281038252601f8152602001807f547265617479206973206e6f7420696e2065787065637465642073746174650081525060200191505060405180910390fd5b60068290806001815401808255809150509060018203906000526020600020016000909192909190915090805190602001906126b4929190613823565b50506126be61308d565b816040518082805190602001908083835b602083106126f257805182526020820191506020810190506020830392506126cf565b6001836020036101000a03801982511681845116808217855250505050505090500191505060405180910390207f8ba63c349f8417699ae9b92eb060dba424e16d5bb537061344f320a66ce164b160405160405180910390a25050565b6006818154811061275c57fe5b906000526020600020016000915090508054600181600116156101000203166002900480601f0160208091040260200160405190810160405280929190818152602001828054600181600116156101000203166002900480156128005780601f106127d557610100808354040283529160200191612800565b820191906000526020600020905b8154815290600101906020018083116127e357829003601f168201915b505050505081565b600a818154811061281557fe5b906000526020600020016000915054906101000a900473ffffffffffffffffffffffffffffffffffffffff1681565b600080600481111561285257fe5b600460009054906101000a900460ff16600481111561286d57fe5b146128e0576040517f08c379a000000000000000000000000000000000000000000000000000000000815260040180806020018281038252601f8152602001807f547265617479206973206e6f7420696e2065787065637465642073746174650081525060200191505060405180910390fd5b600015156128ec61163c565b151514612961576040517f08c379a00000000000000000000000000000000000000000000000000000000081526004018080602001828103825260178152602001807f547265617479206d75737420626520756e6c6f636b656400000000000000000081525060200191505060405180910390fd5b6001600460006101000a81548160ff0219169083600481111561298057fe5b02179055503073ffffffffffffffffffffffffffffffffffffffff167fb995a908760e28089233dd7da242c38943c3a60569281435a7ebff0d491ba09160405160405180910390a24260108190555050565b606060006006805490501415612a1f576040518060400160405280601081526020017f4e6f20756e7369676e65642074657874000000000000000000000000000000008152509050612ada565b600660016006805490500381548110612a3457fe5b906000526020600020018054600181600116156101000203166002900480601f016020809104026020016040519081016040528092919081815260200182805460018160011615610100020316600290048015612ad25780601f10612aa757610100808354040283529160200191612ad2565b820191906000526020600020905b815481529060010190602001808311612ab557829003601f168201915b505050505090505b90565b600f60009054906101000a900460ff1681565b600c5481565b60001515612b0261163c565b151514612b77576040517f08c379a00000000000000000000000000000000000000000000000000000000081526004018080602001828103825260178152602001807f547265617479206d75737420626520756e6c6f636b656400000000000000000081525060200191505060405180910390fd5b6001600f60006101000a81548160ff02191690831515021790555042600d81905550804201600e819055507f032bc66be43dbccb7487781d168eb7bda224628a3b2c3388bdf69b532a3a1611816040518082815260200191505060405180910390a14260108190555050565b6001806004811115612bf157fe5b600460009054906101000a900460ff166004811115612c0c57fe5b14612c7f576040517f08c379a000000000000000000000000000000000000000000000000000000000815260040180806020018281038252601f8152602001807f547265617479206973206e6f7420696e2065787065637465642073746174650081525060200191505060405180910390fd5b60001515612c8b61163c565b151514612d00576040517f08c379a00000000000000000000000000000000000000000000000000000000081526004018080602001828103825260178152602001807f547265617479206d75737420626520756e6c6f636b656400000000000000000081525060200191505060405180910390fd5b60006003811115612d0d57fe5b600560003373ffffffffffffffffffffffffffffffffffffffff1673ffffffffffffffffffffffffffffffffffffffff16815260200190815260200160002060009054906101000a900460ff166003811115612d6557fe5b14612dd8576040517f08c379a00000000000000000000000000000000000000000000000000000000081526004018080602001828103825260148152602001807f556e6578706563746564207369676e617475726500000000000000000000000081525060200191505060405180910390fd5b6001600560003373ffffffffffffffffffffffffffffffffffffffff1673ffffffffffffffffffffffffffffffffffffffff16815260200190815260200160002060006101000a81548160ff02191690836003811115612e3457fe5b02179055503373ffffffffffffffffffffffffffffffffffffffff167f16d0bc037ab8c610c70861ff797d0f28a881c4fbd1d5b4df28115575d183518060405160405180910390a2612e866001613148565b15612e9457612e9361321e565b5b4260108190555050565b60056020528060005260406000206000915054906101000a900460ff1681565b606060006006805490501415612f0b576040518060400160405280600781526020017f4e6f2074657874000000000000000000000000000000000000000000000000008152509050612fbe565b60068281548110612f1857fe5b906000526020600020018054600181600116156101000203166002900480601f016020809104026020016040519081016040528092919081815260200182805460018160011615610100020316600290048015612fb65780601f10612f8b57610100808354040283529160200191612fb6565b820191906000526020600020905b815481529060010190602001808311612f9957829003601f168201915b505050505090505b919050565b60078181548110612fd057fe5b906000526020600020016000915090508054600181600116156101000203166002900480601f0160208091040260200160405190810160405280929190818152602001828054600181600116156101000203166002900480156130745780601f1061304957610100808354040283529160200191613074565b820191906000526020600020905b81548152906001019060200180831161305757829003601f168201915b505050505081565b60006130886002613148565b905090565b60008090505b600a8054905081101561314557600060056000600a84815481106130b357fe5b9060005260206000200160009054906101000a900473ffffffffffffffffffffffffffffffffffffffff1673ffffffffffffffffffffffffffffffffffffffff1673ffffffffffffffffffffffffffffffffffffffff16815260200190815260200160002060006101000a81548160ff0219169083600381111561313357fe5b02179055508080600101915050613093565b50565b6000806001905060008090505b600a805490508110156132145783600381111561316e57fe5b60056000600a848154811061317f57fe5b9060005260206000200160009054906101000a900473ffffffffffffffffffffffffffffffffffffffff1673ffffffffffffffffffffffffffffffffffffffff1673ffffffffffffffffffffffffffffffffffffffff16815260200190815260200160002060009054906101000a900460ff1660038111156131fd57fe5b1461320757600091505b8080600101915050613155565b5080915050919050565b60008090505b6006805490508110156132c25760076006828154811061324057fe5b9060005260206000200190806001815401808255809150509060018203906000526020600020016000909192909190915090805460018160011615610100020316600290046132909291906138a3565b50506006818154811061329f57fe5b9060005260206000200160006132b5919061392a565b8080600101915050613224565b5060008090505b600880549050811015613341576009600882815481106132e557fe5b906000526020600020015490806001815401808255809150509060018203906000526020600020016000909192909190915055506008818154811061332657fe5b906000526020600020016000905580806001019150506132c9565b5060008090505b600a805490508110156133fa57600060056000600a848154811061336857fe5b9060005260206000200160009054906101000a900473ffffffffffffffffffffffffffffffffffffffff1673ffffffffffffffffffffffffffffffffffffffff1673ffffffffffffffffffffffffffffffffffffffff16815260200190815260200160002060006101000a81548160ff021916908360038111156133e857fe5b02179055508080600101915050613348565b50600060068161340a9190613972565b50600060088161341a919061399e565b503073ffffffffffffffffffffffffffffffffffffffff167fefc8db9fadd1e0b8e6bdbc5c07894f1832f5e840a137a5d68fafb7302f7e483a60405160405180910390a2565b60608060146040519080825280601f01601f1916602001820160405280156134975781602001600182028038833980820191505090505b50905060008090505b601481101561351d578060130360080260020a8473ffffffffffffffffffffffffffffffffffffffff16816134d157fe5b0460f81b8282815181106134e157fe5b60200101907effffffffffffffffffffffffffffffffffffffffffffffffffffffffffffff1916908160001a90535080806001019150506134a0565b5080915050919050565b6060613554848484604051806020016040528060008152506040518060200160405280600081525061355d565b90509392505050565b6060808690506060869050606086905060608690506060869050606081518351855187518951010101016040519080825280601f01601f1916602001820160405280156135b95781602001600182028038833980820191505090505b5090506060819050600080905060008090505b885181101561363a578881815181106135e157fe5b602001015160f81c60f81b8383806001019450815181106135fe57fe5b60200101907effffffffffffffffffffffffffffffffffffffffffffffffffffffffffffff1916908160001a90535080806001019150506135cc565b5060008090505b87518110156136af5787818151811061365657fe5b602001015160f81c60f81b83838060010194508151811061367357fe5b60200101907effffffffffffffffffffffffffffffffffffffffffffffffffffffffffffff1916908160001a9053508080600101915050613641565b5060008090505b8651811015613724578681815181106136cb57fe5b602001015160f81c60f81b8383806001019450815181106136e857fe5b60200101907effffffffffffffffffffffffffffffffffffffffffffffffffffffffffffff1916908160001a90535080806001019150506136b6565b5060008090505b85518110156137995785818151811061374057fe5b602001015160f81c60f81b83838060010194508151811061375d57fe5b60200101907effffffffffffffffffffffffffffffffffffffffffffffffffffffffffffff1916908160001a905350808060010191505061372b565b5060008090505b845181101561380e578481815181106137b557fe5b602001015160f81c60f81b8383806001019450815181106137d257fe5b60200101907effffffffffffffffffffffffffffffffffffffffffffffffffffffffffffff1916908160001a90535080806001019150506137a0565b50819850505050505050505095945050505050565b828054600181600116156101000203166002900490600052602060002090601f016020900481019282601f1061386457805160ff1916838001178555613892565b82800160010185558215613892579182015b82811115613891578251825591602001919060010190613876565b5b50905061389f91906139ca565b5090565b828054600181600116156101000203166002900490600052602060002090601f016020900481019282601f106138dc5780548555613919565b8280016001018555821561391957600052602060002091601f016020900482015b828111156139185782548255916001019190600101906138fd565b5b50905061392691906139ca565b5090565b50805460018160011615610100020316600290046000825580601f10613950575061396f565b601f01602090049060005260206000209081019061396e91906139ca565b5b50565b8154818355818111156139995781836000526020600020918201910161399891906139ef565b5b505050565b8154818355818111156139c5578183600052602060002091820191016139c49190613a1b565b5b505050565b6139ec91905b808211156139e85760008160009055506001016139d0565b5090565b90565b613a1891905b80821115613a145760008181613a0b919061392a565b506001016139f5565b5090565b90565b613a3d91905b80821115613a39576000816000905550600101613a21565b5090565b9056fe416c6c207472656174792074657874206d757374206265207369676e6564206265666f72652063616e206265206d6164652062696e64696e67a265627a7a72315820427c70d1da0a3fbd92714aeb1198b041eea1d406d510c887cf52a0c5151a1ae864736f6c63430005100032",
  "source": "pragma solidity ^0.5.16;\n\nimport \"./AccessRestriction.sol\";\nimport \"./StringUtils.sol\";\n\ncontract Treaty is AccessRestriction {\n  /// Constants ///\n  States constant INITIAL_STATE = States.Draft;\n\n  /// Treaty info ///\n  uint256 public id;\n  string public name;\n\n  /// Treaty state ///\n  States public treatyState = INITIAL_STATE;\n  mapping(address => SignatureState) public signatureState;\n\n  /// Agreement text (plain text) ///\n  string[] public unsignedTreatyText;\n  string[] public signedTreatyText;\n  /// Agreement text (bytes32 hash) ///\n  bytes32[] public unsignedHash;\n  bytes32[] public signedHash;\n\n  /// Addresses ///\n  address[] public signatureList;\n  address public lawyerAddress;\n\n  /// Locking ///\n  uint256 public creationTime = now;\n  uint256 public lockAt = now;\n  uint256 public releaseAt = now;\n  bool public locked = false;\n  uint256 public lastStateChange = now;\n\n  /// Enums ///\n  enum States { Draft, Active, Binding, Broken, MutuallyWithdrawn }\n  enum SignatureState { Unsigned, Signed, Withdrawn, Broken }\n  enum TreatyType { ProjectToFounder, ProjectToMentor, Volunteer }\n\n  /// Events ///\n  event Locked(uint256 _lockTime);\n  event UnLocked();\n  event SignedBy(address indexed _signer);\n  event SignHash(address indexed _signer, bytes32 indexed _hash);\n  event SignedByAll(address indexed _treatyAddress);\n  event WithdrawnFromTreaty(address indexed _signer);\n  event MutuallyWithdrawn();\n  event StateChange(States _newState);\n  event UnsignedTreatyTextDeleted();\n  event ChangeLawyer(address indexed _lawyerAddress);\n  event WriteToTreaty(string indexed _text);\n  event MakeActive(address indexed _treatyAddress);\n  event RegisterAsSigner(address _signer);\n\n  event LogBytes32(bytes32 _b);\n  // event LogString(string memory _s);\n  event LogOK();\n  event LogNotOK();\n\n  /// Modifiers ///\n  modifier inState(States _state) {\n    require(treatyState == _state, \"Treaty is not in expected state\");\n    _;\n  }\n\n  modifier inEitherState(States _state1, States _state2) {\n    require(\n      treatyState == _state1 || treatyState == _state2,\n      \"Treaty is not in expected state\"\n    );\n    _;\n  }\n\n  modifier stateChange() {\n    require(getLocked() == false, \"Treaty must be unlocked\");\n    _;\n    lastStateChange = now;\n  }\n\n  constructor(\n    uint256 _id,\n    string memory _name,\n    string memory _initialText\n  ) public {\n    id = _id;\n    name = _name;\n    unsignedTreatyText.push(_initialText);\n    lawyerAddress = msg.sender;\n  }\n\n  //////////////\n  //Functions used by parties:\n  //////////////\n\n  function registerAsSigner() public inState(States.Draft) stateChange() {\n    signatureState[msg.sender] = SignatureState.Unsigned;\n    signatureList.push(msg.sender);\n    emit RegisterAsSigner(msg.sender);\n  }\n\n  function makeActive() public inState(States.Draft) stateChange() {\n    treatyState = States.Active;\n    emit MakeActive(address(this));\n  }\n\n  function writeToTreaty(string memory _text) public inState(States.Active) {\n    unsignedTreatyText.push(_text);\n    resetSignatures();\n    emit WriteToTreaty(_text);\n  }\n\n  function calcSHA3(bytes memory _bytes) public pure returns (bytes32) {\n    return keccak256(_bytes);\n  }\n\n  function signTreaty() public inState(States.Active) stateChange() {\n    require(\n      signatureState[msg.sender] == SignatureState.Unsigned,\n      \"Unexpected signature\"\n    );\n    signatureState[msg.sender] = SignatureState.Signed;\n    emit SignedBy(msg.sender);\n\n    if (allSignaturesInState(SignatureState.Signed)) {\n      confirmTreatyText();\n    }\n  }\n\n  function signHash(bytes32 _hash) public inState(States.Active) stateChange() {\n    require(\n      signatureState[msg.sender] == SignatureState.Unsigned,\n      \"Unexpected signature\"\n    );\n    if (_hash != getLastUnsignedHash()) {\n      resetSignatures();\n      unsignedHash.push(_hash);\n    }\n    signatureState[msg.sender] = SignatureState.Signed;\n    emit SignHash(msg.sender, _hash);\n    if (allSignaturesInState(SignatureState.Signed)) {\n      confirmTreatyText();\n    }\n  }\n\n  function makeBinding() public onlyBy(lawyerAddress) stateChange() {\n    require(\n      unsignedTreatyText.length == 0,\n      \"All treaty text must be signed before can be made binding\"\n    );\n    treatyState = States.Binding;\n    emit StateChange(States.Binding);\n  }\n\n  function undoBinding() public onlyBy(lawyerAddress) stateChange() {\n    require(treatyState == States.Binding, \"Treaty is not binding\");\n    treatyState = States.Active;\n    emit StateChange(States.Active);\n  }\n\n  function changeLawyer(address _newLawyer)\n    public\n    onlyBy(lawyerAddress)\n    stateChange()\n  {\n    lawyerAddress = _newLawyer;\n    emit ChangeLawyer(_newLawyer);\n  }\n\n  function withdrawFromTreaty()\n    public\n    inEitherState(States.Active, States.Broken)\n    stateChange()\n  {\n    signatureState[msg.sender] = SignatureState.Withdrawn;\n    treatyState = States.Broken;\n    emit WithdrawnFromTreaty(msg.sender);\n    emit StateChange(States.Broken);\n\n    if (allPartiesWithdrawn()) {\n      emit MutuallyWithdrawn();\n      treatyState = States.MutuallyWithdrawn;\n    }\n  }\n\n  /////////////////\n  // Getters\n  ////////////////\n\n  function getSignersAsText() public view returns (string memory) {\n    string memory result = \"\";\n    for (uint256 i = 0; i < signatureList.length; i++) {\n      result = StringUtils.strConcat(\n        result,\n        StringUtils.toString(signatureList[i]),\n        \" | \"\n      );\n    }\n    return result;\n  }\n\n  function getNumSignatures() public view returns (uint256) {\n    return signatureList.length;\n  }\n\n  function getUnsignedTreatyText(uint256 _index)\n    public\n    view\n    returns (string memory treatyText)\n  {\n    if (unsignedTreatyText.length == 0) {\n      return \"No text\";\n    }\n    return unsignedTreatyText[_index];\n  }\n\n  function getSignedTreatyText(uint256 _index)\n    public\n    view\n    returns (string memory treatyText)\n  {\n    if (signedTreatyText.length == 0) return \"No text\";\n    return signedTreatyText[_index];\n  }\n\n  function getNumUnsigned() public view returns (uint256) {\n    return unsignedTreatyText.length;\n  }\n\n  function getNumSigned() public view returns (uint256) {\n    return signedTreatyText.length;\n  }\n\n  //////////////\n  // Locking\n  //////////////\n\n  function okToUnlock() public view returns (bool ok) {\n    if (now >= releaseAt) {\n      return true;\n    } else {\n      return false;\n    }\n  }\n\n  function lockFor(uint256 _lockTime) public stateChange {\n    locked = true;\n    lockAt = now;\n    releaseAt = now + _lockTime;\n    emit Locked(_lockTime);\n  }\n\n  function lockForMonths(uint256 _months) public stateChange {\n    lockForDays(_months * 30);\n  }\n\n  function lockForDays(uint256 _days) public stateChange onlyBy(owner) {\n    lockFor(_days * 24 * 60 * 60);\n  }\n\n  function getLocked() public returns (bool) {\n    if (locked && okToUnlock()) {\n      locked = false;\n    }\n    return locked;\n  }\n\n  /////////////\n  // Internal Functions\n  ////////////\n\n  function resetSignatures() internal {\n    for (uint256 i = 0; i < signatureList.length; i++) {\n      signatureState[signatureList[i]] = SignatureState.Unsigned;\n    }\n  }\n\n  function allSignaturesInState(SignatureState _state)\n    internal\n    view\n    returns (bool)\n  {\n    bool result = true;\n    for (uint256 i = 0; i < signatureList.length; i++) {\n      if (signatureState[signatureList[i]] != _state) {\n        result = false;\n      }\n    }\n    return result;\n  }\n\n  function deleteUnsignedTreatyText() internal {\n    delete unsignedTreatyText;\n    emit UnsignedTreatyTextDeleted();\n  }\n\n  function allPartiesWithdrawn() internal view returns (bool) {\n    return allSignaturesInState(SignatureState.Withdrawn);\n  }\n\n  function confirmTreatyText() internal {\n    for (uint256 i = 0; i < unsignedTreatyText.length; i++) {\n      signedTreatyText.push(unsignedTreatyText[i]);\n      delete unsignedTreatyText[i];\n    }\n    for (uint256 i = 0; i < unsignedHash.length; i++) {\n      signedHash.push(unsignedHash[i]);\n      delete unsignedHash[i];\n    }\n    for (uint256 i = 0; i < signatureList.length; i++) {\n      signatureState[signatureList[i]] = SignatureState.Unsigned;\n    }\n    unsignedTreatyText.length = 0;\n    unsignedHash.length = 0;\n    emit SignedByAll(address(this));\n  }\n\n  function isSignedByAll() internal view returns (bool) {\n    return allSignaturesInState(SignatureState.Signed);\n  }\n\n  function getLastUnsignedText() public view returns (string memory) {\n    if (unsignedTreatyText.length == 0) {\n      return \"No unsigned text\";\n    }\n    return unsignedTreatyText[unsignedTreatyText.length - 1];\n  }\n\n  function getLastSignedText() public view returns (string memory) {\n    if (signedTreatyText.length == 0) {\n      return \"No signed text\";\n    }\n    return signedTreatyText[signedTreatyText.length - 1];\n  }\n\n  function getLastUnsignedHash() public view returns (bytes32) {\n    if (unsignedHash.length == 0) {\n      return bytes32(0x0);\n    }\n    return unsignedHash[unsignedHash.length - 1];\n  }\n\n  function getLastSignedHash() public view returns (bytes32) {\n    if (signedHash.length == 0) {\n      return bytes32(0x0);\n    }\n    return signedHash[signedHash.length - 1];\n  }\n}\n",
  "sourcePath": "/home/grifma/Code/treatify-web3/contracts/Treaty.sol",
  "compiler": {
    "name": "solc",
    "version": "0.5.16+commit.9c3226ce.Emscripten.clang"
  },
  "schemaVersion": "3.2.3",
  "updatedAt": "2020-09-04T15:14:28.734Z",
  "networkType": "ethereum",
  "devdoc": {
    "methods": {}
  },
  "userdoc": {
    "methods": {
      "changeOwner(address)": {
        "notice": "Make `_newOwner` the new owner of this contract."
      },
      "disown()": {
        "notice": "Erase ownership information. May only be called 6 weeks after the contract has been created."
      },
      "getSignersAsText()": {
        "notice": "/////////////"
      },
      "okToUnlock()": {
        "notice": "///////////"
      },
      "registerAsSigner()": {
        "notice": "///////////"
      }
    }
  }
}