{
  "contractName": "Treaty",
  "abi": [
    {
      "inputs": [
        {
          "internalType": "uint256",
          "name": "_id",
          "type": "uint256"
        },
        {
          "internalType": "string",
          "name": "_name",
          "type": "string"
        },
        {
          "internalType": "string",
          "name": "_initialText",
          "type": "string"
        }
      ],
      "payable": false,
      "stateMutability": "nonpayable",
      "type": "constructor"
    },
    {
      "anonymous": false,
      "inputs": [
        {
          "indexed": false,
          "internalType": "address",
          "name": "_lawyerAddress",
          "type": "address"
        }
      ],
      "name": "ChangeLawyer",
      "type": "event"
    },
    {
      "anonymous": false,
      "inputs": [
        {
          "indexed": false,
          "internalType": "uint256",
          "name": "_lockTime",
          "type": "uint256"
        }
      ],
      "name": "Locked",
      "type": "event"
    },
    {
      "anonymous": false,
      "inputs": [],
      "name": "MakeActive",
      "type": "event"
    },
    {
      "anonymous": false,
      "inputs": [],
      "name": "MutuallyWithdrawn",
      "type": "event"
    },
    {
      "anonymous": false,
      "inputs": [
        {
          "indexed": false,
          "internalType": "address",
          "name": "_signer",
          "type": "address"
        }
      ],
      "name": "SignedBy",
      "type": "event"
    },
    {
      "anonymous": false,
      "inputs": [],
      "name": "SignedByAll",
      "type": "event"
    },
    {
      "anonymous": false,
      "inputs": [
        {
          "indexed": false,
          "internalType": "enum Treaty.States",
          "name": "_newState",
          "type": "uint8"
        }
      ],
      "name": "StateChange",
      "type": "event"
    },
    {
      "anonymous": false,
      "inputs": [],
      "name": "UnLocked",
      "type": "event"
    },
    {
      "anonymous": false,
      "inputs": [],
      "name": "UnsignedTreatyTextDeleted",
      "type": "event"
    },
    {
      "anonymous": false,
      "inputs": [
        {
          "indexed": false,
          "internalType": "address",
          "name": "_signer",
          "type": "address"
        }
      ],
      "name": "WithdrawnFromTreaty",
      "type": "event"
    },
    {
      "anonymous": false,
      "inputs": [
        {
          "indexed": false,
          "internalType": "string",
          "name": "_text",
          "type": "string"
        }
      ],
      "name": "WriteToTreaty",
      "type": "event"
    },
    {
      "constant": false,
      "inputs": [
        {
          "internalType": "address",
          "name": "_newOwner",
          "type": "address"
        }
      ],
      "name": "changeOwner",
      "outputs": [],
      "payable": false,
      "stateMutability": "nonpayable",
      "type": "function"
    },
    {
      "constant": true,
      "inputs": [],
      "name": "creationTime",
      "outputs": [
        {
          "internalType": "uint256",
          "name": "",
          "type": "uint256"
        }
      ],
      "payable": false,
      "stateMutability": "view",
      "type": "function"
    },
    {
      "constant": false,
      "inputs": [],
      "name": "disown",
      "outputs": [],
      "payable": false,
      "stateMutability": "nonpayable",
      "type": "function"
    },
    {
      "constant": true,
      "inputs": [],
      "name": "id",
      "outputs": [
        {
          "internalType": "uint256",
          "name": "",
          "type": "uint256"
        }
      ],
      "payable": false,
      "stateMutability": "view",
      "type": "function"
    },
    {
      "constant": true,
      "inputs": [],
      "name": "lastStateChange",
      "outputs": [
        {
          "internalType": "uint256",
          "name": "",
          "type": "uint256"
        }
      ],
      "payable": false,
      "stateMutability": "view",
      "type": "function"
    },
    {
      "constant": true,
      "inputs": [],
      "name": "lawyerAddress",
      "outputs": [
        {
          "internalType": "address",
          "name": "",
          "type": "address"
        }
      ],
      "payable": false,
      "stateMutability": "view",
      "type": "function"
    },
    {
      "constant": true,
      "inputs": [],
      "name": "lockAt",
      "outputs": [
        {
          "internalType": "uint256",
          "name": "",
          "type": "uint256"
        }
      ],
      "payable": false,
      "stateMutability": "view",
      "type": "function"
    },
    {
      "constant": true,
      "inputs": [],
      "name": "locked",
      "outputs": [
        {
          "internalType": "bool",
          "name": "",
          "type": "bool"
        }
      ],
      "payable": false,
      "stateMutability": "view",
      "type": "function"
    },
    {
      "constant": true,
      "inputs": [],
      "name": "name",
      "outputs": [
        {
          "internalType": "string",
          "name": "",
          "type": "string"
        }
      ],
      "payable": false,
      "stateMutability": "view",
      "type": "function"
    },
    {
      "constant": true,
      "inputs": [],
      "name": "owner",
      "outputs": [
        {
          "internalType": "address",
          "name": "",
          "type": "address"
        }
      ],
      "payable": false,
      "stateMutability": "view",
      "type": "function"
    },
    {
      "constant": true,
      "inputs": [],
      "name": "releaseAt",
      "outputs": [
        {
          "internalType": "uint256",
          "name": "",
          "type": "uint256"
        }
      ],
      "payable": false,
      "stateMutability": "view",
      "type": "function"
    },
    {
      "constant": true,
      "inputs": [
        {
          "internalType": "uint256",
          "name": "",
          "type": "uint256"
        }
      ],
      "name": "signatureList",
      "outputs": [
        {
          "internalType": "address",
          "name": "",
          "type": "address"
        }
      ],
      "payable": false,
      "stateMutability": "view",
      "type": "function"
    },
    {
      "constant": true,
      "inputs": [
        {
          "internalType": "address",
          "name": "",
          "type": "address"
        }
      ],
      "name": "signatureState",
      "outputs": [
        {
          "internalType": "enum Treaty.SignatureState",
          "name": "",
          "type": "uint8"
        }
      ],
      "payable": false,
      "stateMutability": "view",
      "type": "function"
    },
    {
      "constant": true,
      "inputs": [
        {
          "internalType": "uint256",
          "name": "",
          "type": "uint256"
        }
      ],
      "name": "signedTreatyText",
      "outputs": [
        {
          "internalType": "string",
          "name": "",
          "type": "string"
        }
      ],
      "payable": false,
      "stateMutability": "view",
      "type": "function"
    },
    {
      "constant": true,
      "inputs": [],
      "name": "treatyState",
      "outputs": [
        {
          "internalType": "enum Treaty.States",
          "name": "",
          "type": "uint8"
        }
      ],
      "payable": false,
      "stateMutability": "view",
      "type": "function"
    },
    {
      "constant": true,
      "inputs": [
        {
          "internalType": "uint256",
          "name": "",
          "type": "uint256"
        }
      ],
      "name": "unsignedTreatyText",
      "outputs": [
        {
          "internalType": "string",
          "name": "",
          "type": "string"
        }
      ],
      "payable": false,
      "stateMutability": "view",
      "type": "function"
    },
    {
      "constant": false,
      "inputs": [],
      "name": "registerAsSigner",
      "outputs": [],
      "payable": false,
      "stateMutability": "nonpayable",
      "type": "function"
    },
    {
      "constant": false,
      "inputs": [],
      "name": "makeActive",
      "outputs": [],
      "payable": false,
      "stateMutability": "nonpayable",
      "type": "function"
    },
    {
      "constant": false,
      "inputs": [
        {
          "internalType": "string",
          "name": "_text",
          "type": "string"
        }
      ],
      "name": "writeToTreaty",
      "outputs": [],
      "payable": false,
      "stateMutability": "nonpayable",
      "type": "function"
    },
    {
      "constant": true,
      "inputs": [
        {
          "internalType": "bytes",
          "name": "_bytes",
          "type": "bytes"
        }
      ],
      "name": "calcSHA3",
      "outputs": [
        {
          "internalType": "bytes32",
          "name": "",
          "type": "bytes32"
        }
      ],
      "payable": false,
      "stateMutability": "pure",
      "type": "function"
    },
    {
      "constant": false,
      "inputs": [],
      "name": "signTreaty",
      "outputs": [],
      "payable": false,
      "stateMutability": "nonpayable",
      "type": "function"
    },
    {
      "constant": false,
      "inputs": [],
      "name": "makeBinding",
      "outputs": [],
      "payable": false,
      "stateMutability": "nonpayable",
      "type": "function"
    },
    {
      "constant": false,
      "inputs": [],
      "name": "undoBinding",
      "outputs": [],
      "payable": false,
      "stateMutability": "nonpayable",
      "type": "function"
    },
    {
      "constant": false,
      "inputs": [
        {
          "internalType": "address",
          "name": "_newLawyer",
          "type": "address"
        }
      ],
      "name": "changeLawyer",
      "outputs": [],
      "payable": false,
      "stateMutability": "nonpayable",
      "type": "function"
    },
    {
      "constant": false,
      "inputs": [],
      "name": "withdrawFromTreaty",
      "outputs": [],
      "payable": false,
      "stateMutability": "nonpayable",
      "type": "function"
    },
    {
      "constant": true,
      "inputs": [],
      "name": "getSignersAsText",
      "outputs": [
        {
          "internalType": "string",
          "name": "",
          "type": "string"
        }
      ],
      "payable": false,
      "stateMutability": "view",
      "type": "function"
    },
    {
      "constant": true,
      "inputs": [],
      "name": "getNumSignatures",
      "outputs": [
        {
          "internalType": "uint256",
          "name": "",
          "type": "uint256"
        }
      ],
      "payable": false,
      "stateMutability": "view",
      "type": "function"
    },
    {
      "constant": true,
      "inputs": [
        {
          "internalType": "uint256",
          "name": "_index",
          "type": "uint256"
        }
      ],
      "name": "getUnsignedTreatyText",
      "outputs": [
        {
          "internalType": "string",
          "name": "treatyText",
          "type": "string"
        }
      ],
      "payable": false,
      "stateMutability": "view",
      "type": "function"
    },
    {
      "constant": true,
      "inputs": [
        {
          "internalType": "uint256",
          "name": "_index",
          "type": "uint256"
        }
      ],
      "name": "getSignedTreatyText",
      "outputs": [
        {
          "internalType": "string",
          "name": "treatyText",
          "type": "string"
        }
      ],
      "payable": false,
      "stateMutability": "view",
      "type": "function"
    },
    {
      "constant": true,
      "inputs": [],
      "name": "getNumUnsigned",
      "outputs": [
        {
          "internalType": "uint256",
          "name": "",
          "type": "uint256"
        }
      ],
      "payable": false,
      "stateMutability": "view",
      "type": "function"
    },
    {
      "constant": true,
      "inputs": [],
      "name": "getNumSigned",
      "outputs": [
        {
          "internalType": "uint256",
          "name": "",
          "type": "uint256"
        }
      ],
      "payable": false,
      "stateMutability": "view",
      "type": "function"
    },
    {
      "constant": true,
      "inputs": [],
      "name": "okToUnlock",
      "outputs": [
        {
          "internalType": "bool",
          "name": "ok",
          "type": "bool"
        }
      ],
      "payable": false,
      "stateMutability": "view",
      "type": "function"
    },
    {
      "constant": false,
      "inputs": [
        {
          "internalType": "uint256",
          "name": "_lockTime",
          "type": "uint256"
        }
      ],
      "name": "lockFor",
      "outputs": [],
      "payable": false,
      "stateMutability": "nonpayable",
      "type": "function"
    },
    {
      "constant": false,
      "inputs": [
        {
          "internalType": "uint256",
          "name": "_months",
          "type": "uint256"
        }
      ],
      "name": "lockForMonths",
      "outputs": [],
      "payable": false,
      "stateMutability": "nonpayable",
      "type": "function"
    },
    {
      "constant": false,
      "inputs": [
        {
          "internalType": "uint256",
          "name": "_days",
          "type": "uint256"
        }
      ],
      "name": "lockForDays",
      "outputs": [],
      "payable": false,
      "stateMutability": "nonpayable",
      "type": "function"
    },
    {
      "constant": false,
      "inputs": [],
      "name": "getLocked",
      "outputs": [
        {
          "internalType": "bool",
          "name": "",
          "type": "bool"
        }
      ],
      "payable": false,
      "stateMutability": "nonpayable",
      "type": "function"
    }
  ],
  "bytecode": "0x6080604052336000806101000a81548173ffffffffffffffffffffffffffffffffffffffff021916908373ffffffffffffffffffffffffffffffffffffffff160217905550426001556000600460006101000a81548160ff021916908360048111156200006857fe5b021790555042600a5542600b5542600c556000600d60006101000a81548160ff02191690831515021790555042600e55348015620000a557600080fd5b50604051620033bf380380620033bf83398181016040526060811015620000cb57600080fd5b810190808051906020019092919080516040519392919084640100000000821115620000f657600080fd5b838201915060208201858111156200010d57600080fd5b82518660018202830111640100000000821117156200012b57600080fd5b8083526020830192505050908051906020019080838360005b838110156200016157808201518184015260208101905062000144565b50505050905090810190601f1680156200018f5780820380516001836020036101000a031916815260200191505b5060405260200180516040519392919084640100000000821115620001b357600080fd5b83820191506020820185811115620001ca57600080fd5b8251866001820283011164010000000082111715620001e857600080fd5b8083526020830192505050908051906020019080838360005b838110156200021e57808201518184015260208101905062000201565b50505050905090810190601f1680156200024c5780820380516001836020036101000a031916815260200191505b5060405250505082600281905550816003908051906020019062000272929190620002fe565b506006819080600181540180825580915050906001820390600052602060002001600090919290919091509080519060200190620002b2929190620002fe565b505033600960006101000a81548173ffffffffffffffffffffffffffffffffffffffff021916908373ffffffffffffffffffffffffffffffffffffffff160217905550505050620003ad565b828054600181600116156101000203166002900490600052602060002090601f016020900481019282601f106200034157805160ff191683800117855562000372565b8280016001018555821562000372579182015b828111156200037157825182559160200191906001019062000354565b5b50905062000381919062000385565b5090565b620003aa91905b80821115620003a65760008160009055506001016200038c565b5090565b90565b61300280620003bd6000396000f3fe608060405234801561001057600080fd5b506004361061021c5760003560e01c8063a352f1a811610125578063c19b7a04116100ad578063e203712e1161007c578063e203712e146109a3578063e66f8650146109d1578063e9847e51146109db578063eb25775b14610a41578063f1a8aefb14610ae85761021c565b8063c19b7a04146108eb578063c749cd2214610959578063cf30901214610963578063d8270dce146109855761021c565b8063ae69ef4c116100f4578063ae69ef4c1461072f578063aee792f81461074d578063af640d0f1461076b578063af65335c14610789578063b2bac483146108445761021c565b8063a352f1a8146105d0578063a6f9dae11461069f578063aa54f5f0146106e3578063ada1329f146107015761021c565b80637d6092e0116101a857806390dc61b41161017757806390dc61b41461048b578063978de6a4146104d557806398edc24f146105585780639e4ea65b14610586578063a02b20ba146105a45761021c565b80637d6092e0146103bd5780638b6ccc83146104015780638bcd1753146104235780638da5cb5b146104415761021c565b806336fc1171116101ef57806336fc1171146102da578063434bb118146103815780635a3e83641461038b5780635ac8dc94146103955780636e10e4ea1461039f5761021c565b806306fdde03146102215780631cb4256e146102a45780631e9bf0da146102ae5780632d49ffcd146102b8575b600080fd5b610229610b8f565b6040518080602001828103825283818151815260200191508051906020019080838360005b8381101561026957808201518184015260208101905061024e565b50505050905090810190601f1680156102965780820380516001836020036101000a031916815260200191505b509250505060405180910390f35b6102ac610c2d565b005b6102b6610f11565b005b6102c061107a565b604051808215151515815260200191505060405180910390f35b610306600480360360208110156102f057600080fd5b81019080803590602001909291905050506110d2565b6040518080602001828103825283818151815260200191508051906020019080838360005b8381101561034657808201518184015260208101905061032b565b50505050905090810190601f1680156103735780820380516001836020036101000a031916815260200191505b509250505060405180910390f35b6103896111d7565b005b6103936113c5565b005b61039d6115dc565b005b6103a7611830565b6040518082815260200191505060405180910390f35b6103ff600480360360208110156103d357600080fd5b81019080803573ffffffffffffffffffffffffffffffffffffffff16906020019092919050505061183d565b005b610409611a31565b604051808215151515815260200191505060405180910390f35b61042b611a4d565b6040518082815260200191505060405180910390f35b610449611a5a565b604051808273ffffffffffffffffffffffffffffffffffffffff1673ffffffffffffffffffffffffffffffffffffffff16815260200191505060405180910390f35b610493611a7f565b604051808273ffffffffffffffffffffffffffffffffffffffff1673ffffffffffffffffffffffffffffffffffffffff16815260200191505060405180910390f35b6104dd611aa5565b6040518080602001828103825283818151815260200191508051906020019080838360005b8381101561051d578082015181840152602081019050610502565b50505050905090810190601f16801561054a5780820380516001836020036101000a031916815260200191505b509250505060405180910390f35b6105846004803603602081101561056e57600080fd5b8101908080359060200190929190505050611b63565b005b61058e611bfa565b6040518082815260200191505060405180910390f35b6105ac611c00565b604051808260048111156105bc57fe5b60ff16815260200191505060405180910390f35b610689600480360360208110156105e657600080fd5b810190808035906020019064010000000081111561060357600080fd5b82018360208201111561061557600080fd5b8035906020019184600183028401116401000000008311171561063757600080fd5b91908080601f016020809104026020016040519081016040528093929190818152602001838380828437600081840152601f19601f820116905080830192505050505050509192919290505050611c13565b6040518082815260200191505060405180910390f35b6106e1600480360360208110156106b557600080fd5b81019080803573ffffffffffffffffffffffffffffffffffffffff169060200190929190505050611c24565b005b6106eb611d2b565b6040518082815260200191505060405180910390f35b61072d6004803603602081101561071757600080fd5b8101908080359060200190929190505050611d38565b005b610737611e98565b6040518082815260200191505060405180910390f35b610755611e9e565b6040518082815260200191505060405180910390f35b610773611ea4565b6040518082815260200191505060405180910390f35b6108426004803603602081101561079f57600080fd5b81019080803590602001906401000000008111156107bc57600080fd5b8201836020820111156107ce57600080fd5b803590602001918460018302840111640100000000831117156107f057600080fd5b91908080601f016020809104026020016040519081016040528093929190818152602001838380828437600081840152601f19601f820116905080830192505050505050509192919290505050611eaa565b005b6108706004803603602081101561085a57600080fd5b810190808035906020019092919050505061202d565b6040518080602001828103825283818151815260200191508051906020019080838360005b838110156108b0578082015181840152602081019050610895565b50505050905090810190601f1680156108dd5780820380516001836020036101000a031916815260200191505b509250505060405180910390f35b6109176004803603602081101561090157600080fd5b81019080803590602001909291905050506120e6565b604051808273ffffffffffffffffffffffffffffffffffffffff1673ffffffffffffffffffffffffffffffffffffffff16815260200191505060405180910390f35b610961612122565b005b61096b612299565b604051808215151515815260200191505060405180910390f35b61098d6122ac565b6040518082815260200191505060405180910390f35b6109cf600480360360208110156109b957600080fd5b81019080803590602001909291905050506122b2565b005b6109d961239f565b005b610a1d600480360360208110156109f157600080fd5b81019080803573ffffffffffffffffffffffffffffffffffffffff1690602001909291905050506125a2565b60405180826003811115610a2d57fe5b60ff16815260200191505060405180910390f35b610a6d60048036036020811015610a5757600080fd5b81019080803590602001909291905050506125c2565b6040518080602001828103825283818151815260200191508051906020019080838360005b83811015610aad578082015181840152602081019050610a92565b50505050905090810190601f168015610ada5780820380516001836020036101000a031916815260200191505b509250505060405180910390f35b610b1460048036036020811015610afe57600080fd5b81019080803590602001909291905050506126c7565b6040518080602001828103825283818151815260200191508051906020019080838360005b83811015610b54578082015181840152602081019050610b39565b50505050905090810190601f168015610b815780820380516001836020036101000a031916815260200191505b509250505060405180910390f35b60038054600181600116156101000203166002900480601f016020809104026020016040519081016040528092919081815260200182805460018160011615610100020316600290048015610c255780601f10610bfa57610100808354040283529160200191610c25565b820191906000526020600020905b815481529060010190602001808311610c0857829003601f168201915b505050505081565b60016003816004811115610c3d57fe5b600460009054906101000a900460ff166004811115610c5857fe5b1480610c885750806004811115610c6b57fe5b600460009054906101000a900460ff166004811115610c8657fe5b145b610cfa576040517f08c379a000000000000000000000000000000000000000000000000000000000815260040180806020018281038252601f8152602001807f547265617479206973206e6f7420696e2065787065637465642073746174650081525060200191505060405180910390fd5b60001515610d0661107a565b151514610d7b576040517f08c379a00000000000000000000000000000000000000000000000000000000081526004018080602001828103825260178152602001807f547265617479206d75737420626520756e6c6f636b656400000000000000000081525060200191505060405180910390fd5b6002600560003373ffffffffffffffffffffffffffffffffffffffff1673ffffffffffffffffffffffffffffffffffffffff16815260200190815260200160002060006101000a81548160ff02191690836003811115610dd757fe5b02179055506003600460006101000a81548160ff02191690836004811115610dfb57fe5b02179055507f36470f40a89d93e9f964a247cde9d2b4b634d072690cad651ebd7ecaf67a890d33604051808273ffffffffffffffffffffffffffffffffffffffff1673ffffffffffffffffffffffffffffffffffffffff16815260200191505060405180910390a17fa4248ceb280c6f9303d3ba87af96d45c3b0c834338095ab6350dbe86d38c9fc5600360405180826004811115610e9657fe5b60ff16815260200191505060405180910390a1610eb1612780565b15610f06577fb64360559bafea09179770789bfd43645117bd524ff0c994b758a89a80a97e1f60405160405180910390a160048060006101000a81548160ff02191690836004811115610f0057fe5b02179055505b42600e819055505050565b6000809054906101000a900473ffffffffffffffffffffffffffffffffffffffff168073ffffffffffffffffffffffffffffffffffffffff163373ffffffffffffffffffffffffffffffffffffffff1614610fd4576040517f08c379a00000000000000000000000000000000000000000000000000000000081526004018080602001828103825260168152602001807f53656e646572206e6f7420617574686f72697a65642e0000000000000000000081525060200191505060405180910390fd5b62375f006001540180421015611052576040517f08c379a000000000000000000000000000000000000000000000000000000000815260040180806020018281038252601a8152602001807f46756e6374696f6e2063616c6c656420746f6f206561726c792e00000000000081525060200191505060405180910390fd5b6000806101000a81549073ffffffffffffffffffffffffffffffffffffffff02191690555050565b6000600d60009054906101000a900460ff16801561109c575061109b611a31565b5b156110bd576000600d60006101000a81548160ff0219169083151502179055505b600d60009054906101000a900460ff16905090565b60606000600780549050141561111f576040518060400160405280600781526020017f4e6f20746578740000000000000000000000000000000000000000000000000081525090506111d2565b6007828154811061112c57fe5b906000526020600020018054600181600116156101000203166002900480601f0160208091040260200160405190810160405280929190818152602001828054600181600116156101000203166002900480156111ca5780601f1061119f576101008083540402835291602001916111ca565b820191906000526020600020905b8154815290600101906020018083116111ad57829003601f168201915b505050505090505b919050565b60008060048111156111e557fe5b600460009054906101000a900460ff16600481111561120057fe5b14611273576040517f08c379a000000000000000000000000000000000000000000000000000000000815260040180806020018281038252601f8152602001807f547265617479206973206e6f7420696e2065787065637465642073746174650081525060200191505060405180910390fd5b6000151561127f61107a565b1515146112f4576040517f08c379a00000000000000000000000000000000000000000000000000000000081526004018080602001828103825260178152602001807f547265617479206d75737420626520756e6c6f636b656400000000000000000081525060200191505060405180910390fd5b6000600560003373ffffffffffffffffffffffffffffffffffffffff1673ffffffffffffffffffffffffffffffffffffffff16815260200190815260200160002060006101000a81548160ff0219169083600381111561135057fe5b021790555060083390806001815401808255809150509060018203906000526020600020016000909192909190916101000a81548173ffffffffffffffffffffffffffffffffffffffff021916908373ffffffffffffffffffffffffffffffffffffffff1602179055505042600e8190555050565b600960009054906101000a900473ffffffffffffffffffffffffffffffffffffffff168073ffffffffffffffffffffffffffffffffffffffff163373ffffffffffffffffffffffffffffffffffffffff1614611489576040517f08c379a00000000000000000000000000000000000000000000000000000000081526004018080602001828103825260168152602001807f53656e646572206e6f7420617574686f72697a65642e0000000000000000000081525060200191505060405180910390fd5b6000151561149561107a565b15151461150a576040517f08c379a00000000000000000000000000000000000000000000000000000000081526004018080602001828103825260178152602001807f547265617479206d75737420626520756e6c6f636b656400000000000000000081525060200191505060405180910390fd5b600060068054905014611568576040517f08c379a0000000000000000000000000000000000000000000000000000000008152600401808060200182810382526039815260200180612f956039913960400191505060405180910390fd5b6002600460006101000a81548160ff0219169083600481111561158757fe5b02179055507fa4248ceb280c6f9303d3ba87af96d45c3b0c834338095ab6350dbe86d38c9fc56002604051808260048111156115bf57fe5b60ff16815260200191505060405180910390a142600e8190555050565b600960009054906101000a900473ffffffffffffffffffffffffffffffffffffffff168073ffffffffffffffffffffffffffffffffffffffff163373ffffffffffffffffffffffffffffffffffffffff16146116a0576040517f08c379a00000000000000000000000000000000000000000000000000000000081526004018080602001828103825260168152602001807f53656e646572206e6f7420617574686f72697a65642e0000000000000000000081525060200191505060405180910390fd5b600015156116ac61107a565b151514611721576040517f08c379a00000000000000000000000000000000000000000000000000000000081526004018080602001828103825260178152602001807f547265617479206d75737420626520756e6c6f636b656400000000000000000081525060200191505060405180910390fd5b6002600481111561172e57fe5b600460009054906101000a900460ff16600481111561174957fe5b146117bc576040517f08c379a00000000000000000000000000000000000000000000000000000000081526004018080602001828103825260158152602001807f547265617479206973206e6f742062696e64696e67000000000000000000000081525060200191505060405180910390fd5b6001600460006101000a81548160ff021916908360048111156117db57fe5b02179055507fa4248ceb280c6f9303d3ba87af96d45c3b0c834338095ab6350dbe86d38c9fc560016040518082600481111561181357fe5b60ff16815260200191505060405180910390a142600e8190555050565b6000600780549050905090565b600960009054906101000a900473ffffffffffffffffffffffffffffffffffffffff168073ffffffffffffffffffffffffffffffffffffffff163373ffffffffffffffffffffffffffffffffffffffff1614611901576040517f08c379a00000000000000000000000000000000000000000000000000000000081526004018080602001828103825260168152602001807f53656e646572206e6f7420617574686f72697a65642e0000000000000000000081525060200191505060405180910390fd5b6000151561190d61107a565b151514611982576040517f08c379a00000000000000000000000000000000000000000000000000000000081526004018080602001828103825260178152602001807f547265617479206d75737420626520756e6c6f636b656400000000000000000081525060200191505060405180910390fd5b81600960006101000a81548173ffffffffffffffffffffffffffffffffffffffff021916908373ffffffffffffffffffffffffffffffffffffffff1602179055507fbb1b0880e9db25ac9a3db07b4ee026eee1fba02dd4cc0178a402a0dfd17f1a4e82604051808273ffffffffffffffffffffffffffffffffffffffff1673ffffffffffffffffffffffffffffffffffffffff16815260200191505060405180910390a142600e819055505050565b6000600c544210611a455760019050611a4a565b600090505b90565b6000600680549050905090565b6000809054906101000a900473ffffffffffffffffffffffffffffffffffffffff1681565b600960009054906101000a900473ffffffffffffffffffffffffffffffffffffffff1681565b60608060405180602001604052806000815250905060008090505b600880549050811015611b5b57611b4c82611b1160088481548110611ae157fe5b9060005260206000200160009054906101000a900473ffffffffffffffffffffffffffffffffffffffff16612791565b6040518060400160405280600381526020017f207c200000000000000000000000000000000000000000000000000000000000815250612858565b91508080600101915050611ac0565b508091505090565b60001515611b6f61107a565b151514611be4576040517f08c379a00000000000000000000000000000000000000000000000000000000081526004018080602001828103825260178152602001807f547265617479206d75737420626520756e6c6f636b656400000000000000000081525060200191505060405180910390fd5b611bf0601e8202611d38565b42600e8190555050565b600b5481565b600460009054906101000a900460ff1681565b600081805190602001209050919050565b6000809054906101000a900473ffffffffffffffffffffffffffffffffffffffff168073ffffffffffffffffffffffffffffffffffffffff163373ffffffffffffffffffffffffffffffffffffffff1614611ce7576040517f08c379a00000000000000000000000000000000000000000000000000000000081526004018080602001828103825260168152602001807f53656e646572206e6f7420617574686f72697a65642e0000000000000000000081525060200191505060405180910390fd5b816000806101000a81548173ffffffffffffffffffffffffffffffffffffffff021916908373ffffffffffffffffffffffffffffffffffffffff1602179055505050565b6000600880549050905090565b60001515611d4461107a565b151514611db9576040517f08c379a00000000000000000000000000000000000000000000000000000000081526004018080602001828103825260178152602001807f547265617479206d75737420626520756e6c6f636b656400000000000000000081525060200191505060405180910390fd5b6000809054906101000a900473ffffffffffffffffffffffffffffffffffffffff168073ffffffffffffffffffffffffffffffffffffffff163373ffffffffffffffffffffffffffffffffffffffff1614611e7c576040517f08c379a00000000000000000000000000000000000000000000000000000000081526004018080602001828103825260168152602001807f53656e646572206e6f7420617574686f72697a65642e0000000000000000000081525060200191505060405180910390fd5b611e8d603c806018850202026122b2565b5042600e8190555050565b600c5481565b600e5481565b60025481565b6001806004811115611eb857fe5b600460009054906101000a900460ff166004811115611ed357fe5b14611f46576040517f08c379a000000000000000000000000000000000000000000000000000000000815260040180806020018281038252601f8152602001807f547265617479206973206e6f7420696e2065787065637465642073746174650081525060200191505060405180910390fd5b6006829080600181540180825580915050906001820390600052602060002001600090919290919091509080519060200190611f83929190612dc8565b5050611f8d61288e565b7f8ba63c349f8417699ae9b92eb060dba424e16d5bb537061344f320a66ce164b1826040518080602001828103825283818151815260200191508051906020019080838360005b83811015611fef578082015181840152602081019050611fd4565b50505050905090810190601f16801561201c5780820380516001836020036101000a031916815260200191505b509250505060405180910390a15050565b6006818154811061203a57fe5b906000526020600020016000915090508054600181600116156101000203166002900480601f0160208091040260200160405190810160405280929190818152602001828054600181600116156101000203166002900480156120de5780601f106120b3576101008083540402835291602001916120de565b820191906000526020600020905b8154815290600101906020018083116120c157829003601f168201915b505050505081565b600881815481106120f357fe5b906000526020600020016000915054906101000a900473ffffffffffffffffffffffffffffffffffffffff1681565b600080600481111561213057fe5b600460009054906101000a900460ff16600481111561214b57fe5b146121be576040517f08c379a000000000000000000000000000000000000000000000000000000000815260040180806020018281038252601f8152602001807f547265617479206973206e6f7420696e2065787065637465642073746174650081525060200191505060405180910390fd5b600015156121ca61107a565b15151461223f576040517f08c379a00000000000000000000000000000000000000000000000000000000081526004018080602001828103825260178152602001807f547265617479206d75737420626520756e6c6f636b656400000000000000000081525060200191505060405180910390fd5b6001600460006101000a81548160ff0219169083600481111561225e57fe5b02179055507f3f7bec85c6022ae5b9a331a5de1d29c393740c9fbd6ad059845ec15679b1ee0560405160405180910390a142600e8190555050565b600d60009054906101000a900460ff1681565b600a5481565b600015156122be61107a565b151514612333576040517f08c379a00000000000000000000000000000000000000000000000000000000081526004018080602001828103825260178152602001807f547265617479206d75737420626520756e6c6f636b656400000000000000000081525060200191505060405180910390fd5b6001600d60006101000a81548160ff02191690831515021790555042600b81905550804201600c819055507f032bc66be43dbccb7487781d168eb7bda224628a3b2c3388bdf69b532a3a1611816040518082815260200191505060405180910390a142600e8190555050565b60018060048111156123ad57fe5b600460009054906101000a900460ff1660048111156123c857fe5b1461243b576040517f08c379a000000000000000000000000000000000000000000000000000000000815260040180806020018281038252601f8152602001807f547265617479206973206e6f7420696e2065787065637465642073746174650081525060200191505060405180910390fd5b6000151561244761107a565b1515146124bc576040517f08c379a00000000000000000000000000000000000000000000000000000000081526004018080602001828103825260178152602001807f547265617479206d75737420626520756e6c6f636b656400000000000000000081525060200191505060405180910390fd5b6001600560003373ffffffffffffffffffffffffffffffffffffffff1673ffffffffffffffffffffffffffffffffffffffff16815260200190815260200160002060006101000a81548160ff0219169083600381111561251857fe5b02179055507f16d0bc037ab8c610c70861ff797d0f28a881c4fbd1d5b4df28115575d183518033604051808273ffffffffffffffffffffffffffffffffffffffff1673ffffffffffffffffffffffffffffffffffffffff16815260200191505060405180910390a161258a6001612949565b1561259857612597612a1f565b5b42600e8190555050565b60056020528060005260406000206000915054906101000a900460ff1681565b60606000600680549050141561260f576040518060400160405280600781526020017f4e6f20746578740000000000000000000000000000000000000000000000000081525090506126c2565b6006828154811061261c57fe5b906000526020600020018054600181600116156101000203166002900480601f0160208091040260200160405190810160405280929190818152602001828054600181600116156101000203166002900480156126ba5780601f1061268f576101008083540402835291602001916126ba565b820191906000526020600020905b81548152906001019060200180831161269d57829003601f168201915b505050505090505b919050565b600781815481106126d457fe5b906000526020600020016000915090508054600181600116156101000203166002900480601f0160208091040260200160405190810160405280929190818152602001828054600181600116156101000203166002900480156127785780601f1061274d57610100808354040283529160200191612778565b820191906000526020600020905b81548152906001019060200180831161275b57829003601f168201915b505050505081565b600061278c6002612949565b905090565b60608060146040519080825280601f01601f1916602001820160405280156127c85781602001600182028038833980820191505090505b50905060008090505b601481101561284e578060130360080260020a8473ffffffffffffffffffffffffffffffffffffffff168161280257fe5b0460f81b82828151811061281257fe5b60200101907effffffffffffffffffffffffffffffffffffffffffffffffffffffffffffff1916908160001a90535080806001019150506127d1565b5080915050919050565b60606128858484846040518060200160405280600081525060405180602001604052806000815250612b02565b90509392505050565b60008090505b60088054905081101561294657600060056000600884815481106128b457fe5b9060005260206000200160009054906101000a900473ffffffffffffffffffffffffffffffffffffffff1673ffffffffffffffffffffffffffffffffffffffff1673ffffffffffffffffffffffffffffffffffffffff16815260200190815260200160002060006101000a81548160ff0219169083600381111561293457fe5b02179055508080600101915050612894565b50565b6000806001905060008090505b600880549050811015612a155783600381111561296f57fe5b600560006008848154811061298057fe5b9060005260206000200160009054906101000a900473ffffffffffffffffffffffffffffffffffffffff1673ffffffffffffffffffffffffffffffffffffffff1673ffffffffffffffffffffffffffffffffffffffff16815260200190815260200160002060009054906101000a900460ff1660038111156129fe57fe5b14612a0857600091505b8080600101915050612956565b5080915050919050565b60008090505b600680549050811015612ac357600760068281548110612a4157fe5b906000526020600020019080600181540180825580915050906001820390600052602060002001600090919290919091509080546001816001161561010002031660029004612a91929190612e48565b505060068181548110612aa057fe5b906000526020600020016000612ab69190612ecf565b8080600101915050612a25565b506000600681612ad39190612f17565b507fc68cc84bef33d2c2ba747d329ba4ddb673513350f327c6c78adc4c96605a6b9460405160405180910390a1565b6060808690506060869050606086905060608690506060869050606081518351855187518951010101016040519080825280601f01601f191660200182016040528015612b5e5781602001600182028038833980820191505090505b5090506060819050600080905060008090505b8851811015612bdf57888181518110612b8657fe5b602001015160f81c60f81b838380600101945081518110612ba357fe5b60200101907effffffffffffffffffffffffffffffffffffffffffffffffffffffffffffff1916908160001a9053508080600101915050612b71565b5060008090505b8751811015612c5457878181518110612bfb57fe5b602001015160f81c60f81b838380600101945081518110612c1857fe5b60200101907effffffffffffffffffffffffffffffffffffffffffffffffffffffffffffff1916908160001a9053508080600101915050612be6565b5060008090505b8651811015612cc957868181518110612c7057fe5b602001015160f81c60f81b838380600101945081518110612c8d57fe5b60200101907effffffffffffffffffffffffffffffffffffffffffffffffffffffffffffff1916908160001a9053508080600101915050612c5b565b5060008090505b8551811015612d3e57858181518110612ce557fe5b602001015160f81c60f81b838380600101945081518110612d0257fe5b60200101907effffffffffffffffffffffffffffffffffffffffffffffffffffffffffffff1916908160001a9053508080600101915050612cd0565b5060008090505b8451811015612db357848181518110612d5a57fe5b602001015160f81c60f81b838380600101945081518110612d7757fe5b60200101907effffffffffffffffffffffffffffffffffffffffffffffffffffffffffffff1916908160001a9053508080600101915050612d45565b50819850505050505050505095945050505050565b828054600181600116156101000203166002900490600052602060002090601f016020900481019282601f10612e0957805160ff1916838001178555612e37565b82800160010185558215612e37579182015b82811115612e36578251825591602001919060010190612e1b565b5b509050612e449190612f43565b5090565b828054600181600116156101000203166002900490600052602060002090601f016020900481019282601f10612e815780548555612ebe565b82800160010185558215612ebe57600052602060002091601f016020900482015b82811115612ebd578254825591600101919060010190612ea2565b5b509050612ecb9190612f43565b5090565b50805460018160011615610100020316600290046000825580601f10612ef55750612f14565b601f016020900490600052602060002090810190612f139190612f43565b5b50565b815481835581811115612f3e57818360005260206000209182019101612f3d9190612f68565b5b505050565b612f6591905b80821115612f61576000816000905550600101612f49565b5090565b90565b612f9191905b80821115612f8d5760008181612f849190612ecf565b50600101612f6e565b5090565b9056fe416c6c207472656174792074657874206d757374206265207369676e6564206265666f72652063616e206265206d6164652062696e64696e67a265627a7a7231582062fa1b2ca9610b4c64e4345c00b83c1a337259c63ffe7982b9e74321ac574a6564736f6c63430005100032",
  "source": "pragma solidity ^0.5.16;\n\nimport \"./AccessRestriction.sol\";\nimport \"./StringUtils.sol\";\n\n\ncontract Treaty is AccessRestriction {\n    /// Constants ///\n    States constant INITIAL_STATE = States.Draft;\n\n    /// Treaty info ///\n    uint256 public id;\n    string public name;\n\n    /// Treaty state ///\n    States public treatyState = INITIAL_STATE;\n    mapping(address => SignatureState) public signatureState;\n\n    /// Agreement text (plain or hashed) ///\n    string[] public unsignedTreatyText;\n    string[] public signedTreatyText;\n\n    /// Addresses ///\n    address[] public signatureList;\n    address public lawyerAddress;\n\n    /// Locking ///\n    uint256 public creationTime = now;\n    uint256 public lockAt = now;\n    uint256 public releaseAt = now;\n    bool public locked = false;\n    uint256 public lastStateChange = now;\n\n    /// Enums ///\n    enum States {Draft, Active, Binding, Broken, MutuallyWithdrawn}\n    enum SignatureState {Unsigned, Signed, Withdrawn, Broken}\n    enum TreatyType {ProjectToFounder, ProjectToMentor, Volunteer}\n\n    /// Events ///\n    event Locked(uint256 _lockTime);\n    event UnLocked();\n    event SignedBy(address _signer);\n    event SignedByAll();\n    event WithdrawnFromTreaty(address _signer);\n    event MutuallyWithdrawn();\n    event StateChange(States _newState);\n    event UnsignedTreatyTextDeleted();\n    event ChangeLawyer(address _lawyerAddress);\n    event WriteToTreaty(string _text);\n    event MakeActive();\n\n    /// Modifiers ///\n    modifier inState(States _state) {\n        require(treatyState == _state, \"Treaty is not in expected state\");\n        _;\n    }\n\n    modifier inEitherState(States _state1, States _state2) {\n        require(\n            treatyState == _state1 || treatyState == _state2,\n            \"Treaty is not in expected state\"\n        );\n        _;\n    }\n\n    modifier stateChange() {\n        require(getLocked() == false, \"Treaty must be unlocked\");\n        _;\n        lastStateChange = now;\n    }\n\n    constructor(\n        uint256 _id,\n        string memory _name,\n        string memory _initialText\n    ) public {\n        id = _id;\n        name = _name;\n        unsignedTreatyText.push(_initialText);\n        lawyerAddress = msg.sender;\n    }\n\n    //////////////\n    //Functions used by parties:\n    //////////////\n\n    function registerAsSigner() public inState(States.Draft) stateChange() {\n        signatureState[msg.sender] = SignatureState.Unsigned;\n        signatureList.push(msg.sender);\n    }\n\n    function makeActive() public inState(States.Draft) stateChange() {\n        treatyState = States.Active;\n        emit MakeActive();\n    }\n\n    function writeToTreaty(string memory _text) public inState(States.Active) {\n        unsignedTreatyText.push(_text);\n        resetSignatures();\n        emit WriteToTreaty(_text);\n    }\n\n    function calcSHA3(bytes memory _bytes) public pure returns (bytes32) {\n        return keccak256(_bytes);\n    }\n\n    function signTreaty() public inState(States.Active) stateChange() {\n        signatureState[msg.sender] = SignatureState.Signed;\n        emit SignedBy(msg.sender);\n\n        if (allSignaturesInState(SignatureState.Signed)) {\n            confirmTreatyText();\n        }\n    }\n\n    function makeBinding() public onlyBy(lawyerAddress) stateChange() {\n        require(\n            unsignedTreatyText.length == 0,\n            \"All treaty text must be signed before can be made binding\"\n        );\n        treatyState = States.Binding;\n        emit StateChange(States.Binding);\n    }\n\n    function undoBinding() public onlyBy(lawyerAddress) stateChange() {\n        require(treatyState == States.Binding, \"Treaty is not binding\");\n        treatyState = States.Active;\n        emit StateChange(States.Active);\n    }\n\n    function changeLawyer(address _newLawyer)\n        public\n        onlyBy(lawyerAddress)\n        stateChange()\n    {\n        lawyerAddress = _newLawyer;\n        emit ChangeLawyer(_newLawyer);\n    }\n\n    function withdrawFromTreaty()\n        public\n        inEitherState(States.Active, States.Broken)\n        stateChange()\n    {\n        signatureState[msg.sender] = SignatureState.Withdrawn;\n        treatyState = States.Broken;\n        emit WithdrawnFromTreaty(msg.sender);\n        emit StateChange(States.Broken);\n\n        if (allPartiesWithdrawn()) {\n            emit MutuallyWithdrawn();\n            treatyState = States.MutuallyWithdrawn;\n        }\n    }\n\n    /////////////////\n    // Getters\n    ////////////////\n\n    function getSignersAsText() public view returns (string memory) {\n        string memory result = \"\";\n        for (uint256 i = 0; i < signatureList.length; i++) {\n            result = StringUtils.strConcat(\n                result,\n                StringUtils.toString(signatureList[i]),\n                \" | \"\n            );\n        }\n        return result;\n    }\n\n    function getNumSignatures() public view returns (uint256) {\n        return signatureList.length;\n    }\n\n    function getUnsignedTreatyText(uint256 _index)\n        public\n        view\n        returns (string memory treatyText)\n    {\n        if (unsignedTreatyText.length == 0) {\n            return \"No text\";\n        }\n        return unsignedTreatyText[_index];\n    }\n\n    function getSignedTreatyText(uint256 _index)\n        public\n        view\n        returns (string memory treatyText)\n    {\n        if (signedTreatyText.length == 0) return \"No text\";\n        return signedTreatyText[_index];\n    }\n\n    function getNumUnsigned() public view returns (uint256) {\n        return unsignedTreatyText.length;\n    }\n\n    function getNumSigned() public view returns (uint256) {\n        return signedTreatyText.length;\n    }\n\n    //////////////\n    // Locking\n    //////////////\n\n    function okToUnlock() public view returns (bool ok) {\n        if (now >= releaseAt) {\n            return true;\n        } else {\n            return false;\n        }\n    }\n\n    function lockFor(uint256 _lockTime) public stateChange {\n        locked = true;\n        lockAt = now;\n        releaseAt = now + _lockTime;\n        emit Locked(_lockTime);\n    }\n\n    function lockForMonths(uint256 _months) public stateChange {\n        lockForDays(_months * 30);\n    }\n\n    function lockForDays(uint256 _days) public stateChange onlyBy(owner) {\n        lockFor(_days * 24 * 60 * 60);\n    }\n\n    function getLocked() public returns (bool) {\n        if (locked && okToUnlock()) {\n            locked = false;\n        }\n        return locked;\n    }\n\n    /////////////\n    // Internal Functions\n    ////////////\n\n    function resetSignatures() internal {\n        for (uint256 i = 0; i < signatureList.length; i++) {\n            signatureState[signatureList[i]] = SignatureState.Unsigned;\n        }\n    }\n\n    function allSignaturesInState(SignatureState _state)\n        internal\n        view\n        returns (bool)\n    {\n        bool result = true;\n        for (uint256 i = 0; i < signatureList.length; i++) {\n            if (signatureState[signatureList[i]] != _state) {\n                result = false;\n            }\n        }\n        return result;\n    }\n\n    function deleteUnsignedTreatyText() internal {\n        delete unsignedTreatyText;\n        emit UnsignedTreatyTextDeleted();\n    }\n\n    function allPartiesWithdrawn() internal view returns (bool) {\n        return allSignaturesInState(SignatureState.Withdrawn);\n    }\n\n    function confirmTreatyText() internal {\n        for (uint256 i = 0; i < unsignedTreatyText.length; i++) {\n            signedTreatyText.push(unsignedTreatyText[i]);\n            delete unsignedTreatyText[i];\n        }\n        unsignedTreatyText.length = 0;\n        emit SignedByAll();\n    }\n\n    function isSignedByAll() internal view returns (bool) {\n        return allSignaturesInState(SignatureState.Signed);\n    }\n}\n",
  "sourcePath": "/home/grifma/Code/treatify-web3/contracts/Treaty.sol",
  "compiler": {
    "name": "solc",
    "version": "0.5.16+commit.9c3226ce.Emscripten.clang"
  },
  "schemaVersion": "3.0.23",
  "updatedAt": "2020-06-06T23:35:58.278Z",
  "networkType": "ethereum",
  "devdoc": {
    "methods": {}
  },
  "userdoc": {
    "methods": {
      "changeOwner(address)": {
        "notice": "Make `_newOwner` the new owner of this contract."
      },
      "disown()": {
        "notice": "Erase ownership information. May only be called 6 weeks after the contract has been created."
      },
      "getSignersAsText()": {
        "notice": "/////////////"
      },
      "okToUnlock()": {
        "notice": "///////////"
      },
      "registerAsSigner()": {
        "notice": "///////////"
      }
    }
  }
}