{
  "contractName": "Treaty",
  "abi": [
    {
      "inputs": [
        {
          "internalType": "uint256",
          "name": "_id",
          "type": "uint256"
        },
        {
          "internalType": "string",
          "name": "_name",
          "type": "string"
        },
        {
          "internalType": "string",
          "name": "_initialText",
          "type": "string"
        }
      ],
      "payable": false,
      "stateMutability": "nonpayable",
      "type": "constructor"
    },
    {
      "anonymous": false,
      "inputs": [
        {
          "indexed": true,
          "internalType": "address",
          "name": "_lawyerAddress",
          "type": "address"
        }
      ],
      "name": "ChangeLawyer",
      "type": "event"
    },
    {
      "anonymous": false,
      "inputs": [
        {
          "indexed": false,
          "internalType": "uint256",
          "name": "_lockTime",
          "type": "uint256"
        }
      ],
      "name": "Locked",
      "type": "event"
    },
    {
      "anonymous": false,
      "inputs": [
        {
          "indexed": true,
          "internalType": "address",
          "name": "_treatyAddress",
          "type": "address"
        }
      ],
      "name": "MakeActive",
      "type": "event"
    },
    {
      "anonymous": false,
      "inputs": [],
      "name": "MutuallyWithdrawn",
      "type": "event"
    },
    {
      "anonymous": false,
      "inputs": [
        {
          "indexed": false,
          "internalType": "address",
          "name": "_signer",
          "type": "address"
        }
      ],
      "name": "RegisterAsSigner",
      "type": "event"
    },
    {
      "anonymous": false,
      "inputs": [
        {
          "indexed": true,
          "internalType": "address",
          "name": "_signer",
          "type": "address"
        },
        {
          "indexed": true,
          "internalType": "string",
          "name": "_hash",
          "type": "string"
        }
      ],
      "name": "SignedBy",
      "type": "event"
    },
    {
      "anonymous": false,
      "inputs": [
        {
          "indexed": true,
          "internalType": "address",
          "name": "_treatyAddress",
          "type": "address"
        }
      ],
      "name": "SignedByAll",
      "type": "event"
    },
    {
      "anonymous": false,
      "inputs": [
        {
          "indexed": false,
          "internalType": "enum Treaty.States",
          "name": "_newState",
          "type": "uint8"
        }
      ],
      "name": "StateChange",
      "type": "event"
    },
    {
      "anonymous": false,
      "inputs": [],
      "name": "UnLocked",
      "type": "event"
    },
    {
      "anonymous": false,
      "inputs": [],
      "name": "UnsignedTreatyTextDeleted",
      "type": "event"
    },
    {
      "anonymous": false,
      "inputs": [
        {
          "indexed": true,
          "internalType": "address",
          "name": "_signer",
          "type": "address"
        }
      ],
      "name": "WithdrawnFromTreaty",
      "type": "event"
    },
    {
      "anonymous": false,
      "inputs": [
        {
          "indexed": true,
          "internalType": "string",
          "name": "_text",
          "type": "string"
        }
      ],
      "name": "WriteToTreaty",
      "type": "event"
    },
    {
      "constant": false,
      "inputs": [
        {
          "internalType": "address",
          "name": "_newOwner",
          "type": "address"
        }
      ],
      "name": "changeOwner",
      "outputs": [],
      "payable": false,
      "stateMutability": "nonpayable",
      "type": "function"
    },
    {
      "constant": true,
      "inputs": [],
      "name": "creationTime",
      "outputs": [
        {
          "internalType": "uint256",
          "name": "",
          "type": "uint256"
        }
      ],
      "payable": false,
      "stateMutability": "view",
      "type": "function"
    },
    {
      "constant": false,
      "inputs": [],
      "name": "disown",
      "outputs": [],
      "payable": false,
      "stateMutability": "nonpayable",
      "type": "function"
    },
    {
      "constant": true,
      "inputs": [],
      "name": "id",
      "outputs": [
        {
          "internalType": "uint256",
          "name": "",
          "type": "uint256"
        }
      ],
      "payable": false,
      "stateMutability": "view",
      "type": "function"
    },
    {
      "constant": true,
      "inputs": [],
      "name": "lastStateChange",
      "outputs": [
        {
          "internalType": "uint256",
          "name": "",
          "type": "uint256"
        }
      ],
      "payable": false,
      "stateMutability": "view",
      "type": "function"
    },
    {
      "constant": true,
      "inputs": [],
      "name": "lawyerAddress",
      "outputs": [
        {
          "internalType": "address",
          "name": "",
          "type": "address"
        }
      ],
      "payable": false,
      "stateMutability": "view",
      "type": "function"
    },
    {
      "constant": true,
      "inputs": [],
      "name": "lockAt",
      "outputs": [
        {
          "internalType": "uint256",
          "name": "",
          "type": "uint256"
        }
      ],
      "payable": false,
      "stateMutability": "view",
      "type": "function"
    },
    {
      "constant": true,
      "inputs": [],
      "name": "locked",
      "outputs": [
        {
          "internalType": "bool",
          "name": "",
          "type": "bool"
        }
      ],
      "payable": false,
      "stateMutability": "view",
      "type": "function"
    },
    {
      "constant": true,
      "inputs": [],
      "name": "name",
      "outputs": [
        {
          "internalType": "string",
          "name": "",
          "type": "string"
        }
      ],
      "payable": false,
      "stateMutability": "view",
      "type": "function"
    },
    {
      "constant": true,
      "inputs": [],
      "name": "owner",
      "outputs": [
        {
          "internalType": "address",
          "name": "",
          "type": "address"
        }
      ],
      "payable": false,
      "stateMutability": "view",
      "type": "function"
    },
    {
      "constant": true,
      "inputs": [],
      "name": "releaseAt",
      "outputs": [
        {
          "internalType": "uint256",
          "name": "",
          "type": "uint256"
        }
      ],
      "payable": false,
      "stateMutability": "view",
      "type": "function"
    },
    {
      "constant": true,
      "inputs": [
        {
          "internalType": "uint256",
          "name": "",
          "type": "uint256"
        }
      ],
      "name": "signatureList",
      "outputs": [
        {
          "internalType": "address",
          "name": "",
          "type": "address"
        }
      ],
      "payable": false,
      "stateMutability": "view",
      "type": "function"
    },
    {
      "constant": true,
      "inputs": [
        {
          "internalType": "address",
          "name": "",
          "type": "address"
        }
      ],
      "name": "signatureState",
      "outputs": [
        {
          "internalType": "enum Treaty.SignatureState",
          "name": "",
          "type": "uint8"
        }
      ],
      "payable": false,
      "stateMutability": "view",
      "type": "function"
    },
    {
      "constant": true,
      "inputs": [
        {
          "internalType": "uint256",
          "name": "",
          "type": "uint256"
        }
      ],
      "name": "signedTreatyText",
      "outputs": [
        {
          "internalType": "string",
          "name": "",
          "type": "string"
        }
      ],
      "payable": false,
      "stateMutability": "view",
      "type": "function"
    },
    {
      "constant": true,
      "inputs": [],
      "name": "treatyState",
      "outputs": [
        {
          "internalType": "enum Treaty.States",
          "name": "",
          "type": "uint8"
        }
      ],
      "payable": false,
      "stateMutability": "view",
      "type": "function"
    },
    {
      "constant": true,
      "inputs": [
        {
          "internalType": "uint256",
          "name": "",
          "type": "uint256"
        }
      ],
      "name": "unsignedTreatyText",
      "outputs": [
        {
          "internalType": "string",
          "name": "",
          "type": "string"
        }
      ],
      "payable": false,
      "stateMutability": "view",
      "type": "function"
    },
    {
      "constant": false,
      "inputs": [],
      "name": "registerAsSigner",
      "outputs": [],
      "payable": false,
      "stateMutability": "nonpayable",
      "type": "function"
    },
    {
      "constant": false,
      "inputs": [],
      "name": "makeActive",
      "outputs": [],
      "payable": false,
      "stateMutability": "nonpayable",
      "type": "function"
    },
    {
      "constant": false,
      "inputs": [
        {
          "internalType": "string",
          "name": "_text",
          "type": "string"
        }
      ],
      "name": "writeToTreaty",
      "outputs": [],
      "payable": false,
      "stateMutability": "nonpayable",
      "type": "function"
    },
    {
      "constant": true,
      "inputs": [
        {
          "internalType": "bytes",
          "name": "_bytes",
          "type": "bytes"
        }
      ],
      "name": "calcSHA3",
      "outputs": [
        {
          "internalType": "bytes32",
          "name": "",
          "type": "bytes32"
        }
      ],
      "payable": false,
      "stateMutability": "pure",
      "type": "function"
    },
    {
      "constant": false,
      "inputs": [],
      "name": "signTreaty",
      "outputs": [],
      "payable": false,
      "stateMutability": "nonpayable",
      "type": "function"
    },
    {
      "constant": false,
      "inputs": [
        {
          "internalType": "string",
          "name": "_hash",
          "type": "string"
        }
      ],
      "name": "signHash",
      "outputs": [],
      "payable": false,
      "stateMutability": "nonpayable",
      "type": "function"
    },
    {
      "constant": false,
      "inputs": [],
      "name": "makeBinding",
      "outputs": [],
      "payable": false,
      "stateMutability": "nonpayable",
      "type": "function"
    },
    {
      "constant": false,
      "inputs": [],
      "name": "undoBinding",
      "outputs": [],
      "payable": false,
      "stateMutability": "nonpayable",
      "type": "function"
    },
    {
      "constant": false,
      "inputs": [
        {
          "internalType": "address",
          "name": "_newLawyer",
          "type": "address"
        }
      ],
      "name": "changeLawyer",
      "outputs": [],
      "payable": false,
      "stateMutability": "nonpayable",
      "type": "function"
    },
    {
      "constant": false,
      "inputs": [],
      "name": "withdrawFromTreaty",
      "outputs": [],
      "payable": false,
      "stateMutability": "nonpayable",
      "type": "function"
    },
    {
      "constant": true,
      "inputs": [],
      "name": "getSignersAsText",
      "outputs": [
        {
          "internalType": "string",
          "name": "",
          "type": "string"
        }
      ],
      "payable": false,
      "stateMutability": "view",
      "type": "function"
    },
    {
      "constant": true,
      "inputs": [],
      "name": "getNumSignatures",
      "outputs": [
        {
          "internalType": "uint256",
          "name": "",
          "type": "uint256"
        }
      ],
      "payable": false,
      "stateMutability": "view",
      "type": "function"
    },
    {
      "constant": true,
      "inputs": [
        {
          "internalType": "uint256",
          "name": "_index",
          "type": "uint256"
        }
      ],
      "name": "getUnsignedTreatyText",
      "outputs": [
        {
          "internalType": "string",
          "name": "treatyText",
          "type": "string"
        }
      ],
      "payable": false,
      "stateMutability": "view",
      "type": "function"
    },
    {
      "constant": true,
      "inputs": [
        {
          "internalType": "uint256",
          "name": "_index",
          "type": "uint256"
        }
      ],
      "name": "getSignedTreatyText",
      "outputs": [
        {
          "internalType": "string",
          "name": "treatyText",
          "type": "string"
        }
      ],
      "payable": false,
      "stateMutability": "view",
      "type": "function"
    },
    {
      "constant": true,
      "inputs": [],
      "name": "getNumUnsigned",
      "outputs": [
        {
          "internalType": "uint256",
          "name": "",
          "type": "uint256"
        }
      ],
      "payable": false,
      "stateMutability": "view",
      "type": "function"
    },
    {
      "constant": true,
      "inputs": [],
      "name": "getNumSigned",
      "outputs": [
        {
          "internalType": "uint256",
          "name": "",
          "type": "uint256"
        }
      ],
      "payable": false,
      "stateMutability": "view",
      "type": "function"
    },
    {
      "constant": true,
      "inputs": [],
      "name": "okToUnlock",
      "outputs": [
        {
          "internalType": "bool",
          "name": "ok",
          "type": "bool"
        }
      ],
      "payable": false,
      "stateMutability": "view",
      "type": "function"
    },
    {
      "constant": false,
      "inputs": [
        {
          "internalType": "uint256",
          "name": "_lockTime",
          "type": "uint256"
        }
      ],
      "name": "lockFor",
      "outputs": [],
      "payable": false,
      "stateMutability": "nonpayable",
      "type": "function"
    },
    {
      "constant": false,
      "inputs": [
        {
          "internalType": "uint256",
          "name": "_months",
          "type": "uint256"
        }
      ],
      "name": "lockForMonths",
      "outputs": [],
      "payable": false,
      "stateMutability": "nonpayable",
      "type": "function"
    },
    {
      "constant": false,
      "inputs": [
        {
          "internalType": "uint256",
          "name": "_days",
          "type": "uint256"
        }
      ],
      "name": "lockForDays",
      "outputs": [],
      "payable": false,
      "stateMutability": "nonpayable",
      "type": "function"
    },
    {
      "constant": false,
      "inputs": [],
      "name": "getLocked",
      "outputs": [
        {
          "internalType": "bool",
          "name": "",
          "type": "bool"
        }
      ],
      "payable": false,
      "stateMutability": "nonpayable",
      "type": "function"
    },
    {
      "constant": true,
      "inputs": [],
      "name": "getLastUnsignedText",
      "outputs": [
        {
          "internalType": "string",
          "name": "",
          "type": "string"
        }
      ],
      "payable": false,
      "stateMutability": "view",
      "type": "function"
    },
    {
      "constant": true,
      "inputs": [],
      "name": "getLastSignedText",
      "outputs": [
        {
          "internalType": "string",
          "name": "",
          "type": "string"
        }
      ],
      "payable": false,
      "stateMutability": "view",
      "type": "function"
    },
    {
      "constant": true,
      "inputs": [
        {
          "internalType": "string",
          "name": "a",
          "type": "string"
        },
        {
          "internalType": "string",
          "name": "b",
          "type": "string"
        }
      ],
      "name": "compareStrings",
      "outputs": [
        {
          "internalType": "bool",
          "name": "",
          "type": "bool"
        }
      ],
      "payable": false,
      "stateMutability": "view",
      "type": "function"
    }
  ],
  "bytecode": "0x6080604052336000806101000a81548173ffffffffffffffffffffffffffffffffffffffff021916908373ffffffffffffffffffffffffffffffffffffffff160217905550426001556000600460006101000a81548160ff021916908360048111156200006857fe5b021790555042600a5542600b5542600c556000600d60006101000a81548160ff02191690831515021790555042600e55348015620000a557600080fd5b5060405162003e2c38038062003e2c83398181016040526060811015620000cb57600080fd5b810190808051906020019092919080516040519392919084640100000000821115620000f657600080fd5b838201915060208201858111156200010d57600080fd5b82518660018202830111640100000000821117156200012b57600080fd5b8083526020830192505050908051906020019080838360005b838110156200016157808201518184015260208101905062000144565b50505050905090810190601f1680156200018f5780820380516001836020036101000a031916815260200191505b5060405260200180516040519392919084640100000000821115620001b357600080fd5b83820191506020820185811115620001ca57600080fd5b8251866001820283011164010000000082111715620001e857600080fd5b8083526020830192505050908051906020019080838360005b838110156200021e57808201518184015260208101905062000201565b50505050905090810190601f1680156200024c5780820380516001836020036101000a031916815260200191505b5060405250505082600281905550816003908051906020019062000272929190620002fe565b506006819080600181540180825580915050906001820390600052602060002001600090919290919091509080519060200190620002b2929190620002fe565b505033600960006101000a81548173ffffffffffffffffffffffffffffffffffffffff021916908373ffffffffffffffffffffffffffffffffffffffff160217905550505050620003ad565b828054600181600116156101000203166002900490600052602060002090601f016020900481019282601f106200034157805160ff191683800117855562000372565b8280016001018555821562000372579182015b828111156200037157825182559160200191906001019062000354565b5b50905062000381919062000385565b5090565b620003aa91905b80821115620003a65760008160009055506001016200038c565b5090565b90565b613a6f80620003bd6000396000f3fe608060405234801561001057600080fd5b50600436106102485760003560e01c8063a6f9dae11161013b578063c749cd22116100b8578063e66f86501161007c578063e66f865014610c6d578063e9847e5114610c77578063eb25775b14610cdd578063f1a8aefb14610d84578063f45c2c6514610e2b57610248565b8063c749cd2214610b72578063cc34d5b214610b7c578063cf30901214610bff578063d8270dce14610c21578063e203712e14610c3f57610248565b8063af640d0f116100ff578063af640d0f1461081a578063af65335c14610838578063b2bac483146108f3578063bed34bba1461099a578063c19b7a0414610b0457610248565b8063a6f9dae11461074e578063aa54f5f014610792578063ada1329f146107b0578063ae69ef4c146107de578063aee792f8146107fc57610248565b80637d6092e0116101c9578063978de6a41161018d578063978de6a41461058457806398edc24f146106075780639e4ea65b14610635578063a02b20ba14610653578063a352f1a81461067f57610248565b80637d6092e01461046c5780638b6ccc83146104b05780638bcd1753146104d25780638da5cb5b146104f057806390dc61b41461053a57610248565b8063434bb11811610210578063434bb118146103ad5780635a3e8364146103b75780635ac8dc94146103c15780636e10e4ea146103cb5780637c217e6c146103e957610248565b806306fdde031461024d5780631cb4256e146102d05780631e9bf0da146102da5780632d49ffcd146102e457806336fc117114610306575b600080fd5b610255610ee6565b6040518080602001828103825283818151815260200191508051906020019080838360005b8381101561029557808201518184015260208101905061027a565b50505050905090810190601f1680156102c25780820380516001836020036101000a031916815260200191505b509250505060405180910390f35b6102d8610f84565b005b6102e2611248565b005b6102ec6113b1565b604051808215151515815260200191505060405180910390f35b6103326004803603602081101561031c57600080fd5b8101908080359060200190929190505050611409565b6040518080602001828103825283818151815260200191508051906020019080838360005b83811015610372578082015181840152602081019050610357565b50505050905090810190601f16801561039f5780820380516001836020036101000a031916815260200191505b509250505060405180910390f35b6103b561150e565b005b6103bf61175f565b005b6103c9611976565b005b6103d3611bca565b6040518082815260200191505060405180910390f35b6103f1611bd7565b6040518080602001828103825283818151815260200191508051906020019080838360005b83811015610431578082015181840152602081019050610416565b50505050905090810190601f16801561045e5780820380516001836020036101000a031916815260200191505b509250505060405180910390f35b6104ae6004803603602081101561048257600080fd5b81019080803573ffffffffffffffffffffffffffffffffffffffff169060200190929190505050611c96565b005b6104b8611e6a565b604051808215151515815260200191505060405180910390f35b6104da611e86565b6040518082815260200191505060405180910390f35b6104f8611e93565b604051808273ffffffffffffffffffffffffffffffffffffffff1673ffffffffffffffffffffffffffffffffffffffff16815260200191505060405180910390f35b610542611eb8565b604051808273ffffffffffffffffffffffffffffffffffffffff1673ffffffffffffffffffffffffffffffffffffffff16815260200191505060405180910390f35b61058c611ede565b6040518080602001828103825283818151815260200191508051906020019080838360005b838110156105cc5780820151818401526020810190506105b1565b50505050905090810190601f1680156105f95780820380516001836020036101000a031916815260200191505b509250505060405180910390f35b6106336004803603602081101561061d57600080fd5b8101908080359060200190929190505050611f9c565b005b61063d612033565b6040518082815260200191505060405180910390f35b61065b612039565b6040518082600481111561066b57fe5b60ff16815260200191505060405180910390f35b6107386004803603602081101561069557600080fd5b81019080803590602001906401000000008111156106b257600080fd5b8201836020820111156106c457600080fd5b803590602001918460018302840111640100000000831117156106e657600080fd5b91908080601f016020809104026020016040519081016040528093929190818152602001838380828437600081840152601f19601f82011690508083019250505050505050919291929050505061204c565b6040518082815260200191505060405180910390f35b6107906004803603602081101561076457600080fd5b81019080803573ffffffffffffffffffffffffffffffffffffffff16906020019092919050505061205d565b005b61079a612164565b6040518082815260200191505060405180910390f35b6107dc600480360360208110156107c657600080fd5b8101908080359060200190929190505050612171565b005b6107e66122d1565b6040518082815260200191505060405180910390f35b6108046122d7565b6040518082815260200191505060405180910390f35b6108226122dd565b6040518082815260200191505060405180910390f35b6108f16004803603602081101561084e57600080fd5b810190808035906020019064010000000081111561086b57600080fd5b82018360208201111561087d57600080fd5b8035906020019184600183028401116401000000008311171561089f57600080fd5b91908080601f016020809104026020016040519081016040528093929190818152602001838380828437600081840152601f19601f8201169050808301925050505050505091929192905050506122e3565b005b61091f6004803603602081101561090957600080fd5b8101908080359060200190929190505050612457565b6040518080602001828103825283818151815260200191508051906020019080838360005b8381101561095f578082015181840152602081019050610944565b50505050905090810190601f16801561098c5780820380516001836020036101000a031916815260200191505b509250505060405180910390f35b610aea600480360360408110156109b057600080fd5b81019080803590602001906401000000008111156109cd57600080fd5b8201836020820111156109df57600080fd5b80359060200191846001830284011164010000000083111715610a0157600080fd5b91908080601f016020809104026020016040519081016040528093929190818152602001838380828437600081840152601f19601f82011690508083019250505050505050919291929080359060200190640100000000811115610a6457600080fd5b820183602082011115610a7657600080fd5b80359060200191846001830284011164010000000083111715610a9857600080fd5b91908080601f016020809104026020016040519081016040528093929190818152602001838380828437600081840152601f19601f820116905080830192505050505050509192919290505050612510565b604051808215151515815260200191505060405180910390f35b610b3060048036036020811015610b1a57600080fd5b810190808035906020019092919050505061251c565b604051808273ffffffffffffffffffffffffffffffffffffffff1673ffffffffffffffffffffffffffffffffffffffff16815260200191505060405180910390f35b610b7a612558565b005b610b846126e6565b6040518080602001828103825283818151815260200191508051906020019080838360005b83811015610bc4578082015181840152602081019050610ba9565b50505050905090810190601f168015610bf15780820380516001836020036101000a031916815260200191505b509250505060405180910390f35b610c076127a5565b604051808215151515815260200191505060405180910390f35b610c296127b8565b6040518082815260200191505060405180910390f35b610c6b60048036036020811015610c5557600080fd5b81019080803590602001909291905050506127be565b005b610c756128ab565b005b610cb960048036036020811015610c8d57600080fd5b81019080803573ffffffffffffffffffffffffffffffffffffffff169060200190929190505050612b77565b60405180826003811115610cc957fe5b60ff16815260200191505060405180910390f35b610d0960048036036020811015610cf357600080fd5b8101908080359060200190929190505050612b97565b6040518080602001828103825283818151815260200191508051906020019080838360005b83811015610d49578082015181840152602081019050610d2e565b50505050905090810190601f168015610d765780820380516001836020036101000a031916815260200191505b509250505060405180910390f35b610db060048036036020811015610d9a57600080fd5b8101908080359060200190929190505050612c9c565b6040518080602001828103825283818151815260200191508051906020019080838360005b83811015610df0578082015181840152602081019050610dd5565b50505050905090810190601f168015610e1d5780820380516001836020036101000a031916815260200191505b509250505060405180910390f35b610ee460048036036020811015610e4157600080fd5b8101908080359060200190640100000000811115610e5e57600080fd5b820183602082011115610e7057600080fd5b80359060200191846001830284011164010000000083111715610e9257600080fd5b91908080601f016020809104026020016040519081016040528093929190818152602001838380828437600081840152601f19601f820116905080830192505050505050509192919290505050612d55565b005b60038054600181600116156101000203166002900480601f016020809104026020016040519081016040528092919081815260200182805460018160011615610100020316600290048015610f7c5780601f10610f5157610100808354040283529160200191610f7c565b820191906000526020600020905b815481529060010190602001808311610f5f57829003601f168201915b505050505081565b60016003816004811115610f9457fe5b600460009054906101000a900460ff166004811115610faf57fe5b1480610fdf5750806004811115610fc257fe5b600460009054906101000a900460ff166004811115610fdd57fe5b145b611051576040517f08c379a000000000000000000000000000000000000000000000000000000000815260040180806020018281038252601f8152602001807f547265617479206973206e6f7420696e2065787065637465642073746174650081525060200191505060405180910390fd5b6000151561105d6113b1565b1515146110d2576040517f08c379a00000000000000000000000000000000000000000000000000000000081526004018080602001828103825260178152602001807f547265617479206d75737420626520756e6c6f636b656400000000000000000081525060200191505060405180910390fd5b6002600560003373ffffffffffffffffffffffffffffffffffffffff1673ffffffffffffffffffffffffffffffffffffffff16815260200190815260200160002060006101000a81548160ff0219169083600381111561112e57fe5b02179055506003600460006101000a81548160ff0219169083600481111561115257fe5b02179055503373ffffffffffffffffffffffffffffffffffffffff167f36470f40a89d93e9f964a247cde9d2b4b634d072690cad651ebd7ecaf67a890d60405160405180910390a27fa4248ceb280c6f9303d3ba87af96d45c3b0c834338095ab6350dbe86d38c9fc56003604051808260048111156111cd57fe5b60ff16815260200191505060405180910390a16111e861311d565b1561123d577fb64360559bafea09179770789bfd43645117bd524ff0c994b758a89a80a97e1f60405160405180910390a160048060006101000a81548160ff0219169083600481111561123757fe5b02179055505b42600e819055505050565b6000809054906101000a900473ffffffffffffffffffffffffffffffffffffffff168073ffffffffffffffffffffffffffffffffffffffff163373ffffffffffffffffffffffffffffffffffffffff161461130b576040517f08c379a00000000000000000000000000000000000000000000000000000000081526004018080602001828103825260168152602001807f53656e646572206e6f7420617574686f72697a65642e0000000000000000000081525060200191505060405180910390fd5b62375f006001540180421015611389576040517f08c379a000000000000000000000000000000000000000000000000000000000815260040180806020018281038252601a8152602001807f46756e6374696f6e2063616c6c656420746f6f206561726c792e00000000000081525060200191505060405180910390fd5b6000806101000a81549073ffffffffffffffffffffffffffffffffffffffff02191690555050565b6000600d60009054906101000a900460ff1680156113d357506113d2611e6a565b5b156113f4576000600d60006101000a81548160ff0219169083151502179055505b600d60009054906101000a900460ff16905090565b606060006007805490501415611456576040518060400160405280600781526020017f4e6f2074657874000000000000000000000000000000000000000000000000008152509050611509565b6007828154811061146357fe5b906000526020600020018054600181600116156101000203166002900480601f0160208091040260200160405190810160405280929190818152602001828054600181600116156101000203166002900480156115015780601f106114d657610100808354040283529160200191611501565b820191906000526020600020905b8154815290600101906020018083116114e457829003601f168201915b505050505090505b919050565b600080600481111561151c57fe5b600460009054906101000a900460ff16600481111561153757fe5b146115aa576040517f08c379a000000000000000000000000000000000000000000000000000000000815260040180806020018281038252601f8152602001807f547265617479206973206e6f7420696e2065787065637465642073746174650081525060200191505060405180910390fd5b600015156115b66113b1565b15151461162b576040517f08c379a00000000000000000000000000000000000000000000000000000000081526004018080602001828103825260178152602001807f547265617479206d75737420626520756e6c6f636b656400000000000000000081525060200191505060405180910390fd5b6000600560003373ffffffffffffffffffffffffffffffffffffffff1673ffffffffffffffffffffffffffffffffffffffff16815260200190815260200160002060006101000a81548160ff0219169083600381111561168757fe5b021790555060083390806001815401808255809150509060018203906000526020600020016000909192909190916101000a81548173ffffffffffffffffffffffffffffffffffffffff021916908373ffffffffffffffffffffffffffffffffffffffff160217905550507feadd0daa6774f85dbc780c7e80dee90d5da7b5f9ae188e0a6a4572a5b751b95733604051808273ffffffffffffffffffffffffffffffffffffffff1673ffffffffffffffffffffffffffffffffffffffff16815260200191505060405180910390a142600e8190555050565b600960009054906101000a900473ffffffffffffffffffffffffffffffffffffffff168073ffffffffffffffffffffffffffffffffffffffff163373ffffffffffffffffffffffffffffffffffffffff1614611823576040517f08c379a00000000000000000000000000000000000000000000000000000000081526004018080602001828103825260168152602001807f53656e646572206e6f7420617574686f72697a65642e0000000000000000000081525060200191505060405180910390fd5b6000151561182f6113b1565b1515146118a4576040517f08c379a00000000000000000000000000000000000000000000000000000000081526004018080602001828103825260178152602001807f547265617479206d75737420626520756e6c6f636b656400000000000000000081525060200191505060405180910390fd5b600060068054905014611902576040517f08c379a0000000000000000000000000000000000000000000000000000000008152600401808060200182810382526039815260200180613a026039913960400191505060405180910390fd5b6002600460006101000a81548160ff0219169083600481111561192157fe5b02179055507fa4248ceb280c6f9303d3ba87af96d45c3b0c834338095ab6350dbe86d38c9fc560026040518082600481111561195957fe5b60ff16815260200191505060405180910390a142600e8190555050565b600960009054906101000a900473ffffffffffffffffffffffffffffffffffffffff168073ffffffffffffffffffffffffffffffffffffffff163373ffffffffffffffffffffffffffffffffffffffff1614611a3a576040517f08c379a00000000000000000000000000000000000000000000000000000000081526004018080602001828103825260168152602001807f53656e646572206e6f7420617574686f72697a65642e0000000000000000000081525060200191505060405180910390fd5b60001515611a466113b1565b151514611abb576040517f08c379a00000000000000000000000000000000000000000000000000000000081526004018080602001828103825260178152602001807f547265617479206d75737420626520756e6c6f636b656400000000000000000081525060200191505060405180910390fd5b60026004811115611ac857fe5b600460009054906101000a900460ff166004811115611ae357fe5b14611b56576040517f08c379a00000000000000000000000000000000000000000000000000000000081526004018080602001828103825260158152602001807f547265617479206973206e6f742062696e64696e67000000000000000000000081525060200191505060405180910390fd5b6001600460006101000a81548160ff02191690836004811115611b7557fe5b02179055507fa4248ceb280c6f9303d3ba87af96d45c3b0c834338095ab6350dbe86d38c9fc5600160405180826004811115611bad57fe5b60ff16815260200191505060405180910390a142600e8190555050565b6000600780549050905090565b6060600760016007805490500381548110611bee57fe5b906000526020600020018054600181600116156101000203166002900480601f016020809104026020016040519081016040528092919081815260200182805460018160011615610100020316600290048015611c8c5780601f10611c6157610100808354040283529160200191611c8c565b820191906000526020600020905b815481529060010190602001808311611c6f57829003601f168201915b5050505050905090565b600960009054906101000a900473ffffffffffffffffffffffffffffffffffffffff168073ffffffffffffffffffffffffffffffffffffffff163373ffffffffffffffffffffffffffffffffffffffff1614611d5a576040517f08c379a00000000000000000000000000000000000000000000000000000000081526004018080602001828103825260168152602001807f53656e646572206e6f7420617574686f72697a65642e0000000000000000000081525060200191505060405180910390fd5b60001515611d666113b1565b151514611ddb576040517f08c379a00000000000000000000000000000000000000000000000000000000081526004018080602001828103825260178152602001807f547265617479206d75737420626520756e6c6f636b656400000000000000000081525060200191505060405180910390fd5b81600960006101000a81548173ffffffffffffffffffffffffffffffffffffffff021916908373ffffffffffffffffffffffffffffffffffffffff1602179055508173ffffffffffffffffffffffffffffffffffffffff167fbb1b0880e9db25ac9a3db07b4ee026eee1fba02dd4cc0178a402a0dfd17f1a4e60405160405180910390a242600e819055505050565b6000600c544210611e7e5760019050611e83565b600090505b90565b6000600680549050905090565b6000809054906101000a900473ffffffffffffffffffffffffffffffffffffffff1681565b600960009054906101000a900473ffffffffffffffffffffffffffffffffffffffff1681565b60608060405180602001604052806000815250905060008090505b600880549050811015611f9457611f8582611f4a60088481548110611f1a57fe5b9060005260206000200160009054906101000a900473ffffffffffffffffffffffffffffffffffffffff1661312e565b6040518060400160405280600381526020017f207c2000000000000000000000000000000000000000000000000000000000008152506131f5565b91508080600101915050611ef9565b508091505090565b60001515611fa86113b1565b15151461201d576040517f08c379a00000000000000000000000000000000000000000000000000000000081526004018080602001828103825260178152602001807f547265617479206d75737420626520756e6c6f636b656400000000000000000081525060200191505060405180910390fd5b612029601e8202612171565b42600e8190555050565b600b5481565b600460009054906101000a900460ff1681565b600081805190602001209050919050565b6000809054906101000a900473ffffffffffffffffffffffffffffffffffffffff168073ffffffffffffffffffffffffffffffffffffffff163373ffffffffffffffffffffffffffffffffffffffff1614612120576040517f08c379a00000000000000000000000000000000000000000000000000000000081526004018080602001828103825260168152602001807f53656e646572206e6f7420617574686f72697a65642e0000000000000000000081525060200191505060405180910390fd5b816000806101000a81548173ffffffffffffffffffffffffffffffffffffffff021916908373ffffffffffffffffffffffffffffffffffffffff1602179055505050565b6000600880549050905090565b6000151561217d6113b1565b1515146121f2576040517f08c379a00000000000000000000000000000000000000000000000000000000081526004018080602001828103825260178152602001807f547265617479206d75737420626520756e6c6f636b656400000000000000000081525060200191505060405180910390fd5b6000809054906101000a900473ffffffffffffffffffffffffffffffffffffffff168073ffffffffffffffffffffffffffffffffffffffff163373ffffffffffffffffffffffffffffffffffffffff16146122b5576040517f08c379a00000000000000000000000000000000000000000000000000000000081526004018080602001828103825260168152602001807f53656e646572206e6f7420617574686f72697a65642e0000000000000000000081525060200191505060405180910390fd5b6122c6603c806018850202026127be565b5042600e8190555050565b600c5481565b600e5481565b60025481565b60018060048111156122f157fe5b600460009054906101000a900460ff16600481111561230c57fe5b1461237f576040517f08c379a000000000000000000000000000000000000000000000000000000000815260040180806020018281038252601f8152602001807f547265617479206973206e6f7420696e2065787065637465642073746174650081525060200191505060405180910390fd5b60068290806001815401808255809150509060018203906000526020600020016000909192909190915090805190602001906123bc929190613835565b50506123c661322b565b816040518082805190602001908083835b602083106123fa57805182526020820191506020810190506020830392506123d7565b6001836020036101000a03801982511681845116808217855250505050505090500191505060405180910390207f8ba63c349f8417699ae9b92eb060dba424e16d5bb537061344f320a66ce164b160405160405180910390a25050565b6006818154811061246457fe5b906000526020600020016000915090508054600181600116156101000203166002900480601f0160208091040260200160405190810160405280929190818152602001828054600181600116156101000203166002900480156125085780601f106124dd57610100808354040283529160200191612508565b820191906000526020600020905b8154815290600101906020018083116124eb57829003601f168201915b505050505081565b60006001905092915050565b6008818154811061252957fe5b906000526020600020016000915054906101000a900473ffffffffffffffffffffffffffffffffffffffff1681565b600080600481111561256657fe5b600460009054906101000a900460ff16600481111561258157fe5b146125f4576040517f08c379a000000000000000000000000000000000000000000000000000000000815260040180806020018281038252601f8152602001807f547265617479206973206e6f7420696e2065787065637465642073746174650081525060200191505060405180910390fd5b600015156126006113b1565b151514612675576040517f08c379a00000000000000000000000000000000000000000000000000000000081526004018080602001828103825260178152602001807f547265617479206d75737420626520756e6c6f636b656400000000000000000081525060200191505060405180910390fd5b6001600460006101000a81548160ff0219169083600481111561269457fe5b02179055503073ffffffffffffffffffffffffffffffffffffffff167fb995a908760e28089233dd7da242c38943c3a60569281435a7ebff0d491ba09160405160405180910390a242600e8190555050565b60606006600160068054905003815481106126fd57fe5b906000526020600020018054600181600116156101000203166002900480601f01602080910402602001604051908101604052809291908181526020018280546001816001161561010002031660029004801561279b5780601f106127705761010080835404028352916020019161279b565b820191906000526020600020905b81548152906001019060200180831161277e57829003601f168201915b5050505050905090565b600d60009054906101000a900460ff1681565b600a5481565b600015156127ca6113b1565b15151461283f576040517f08c379a00000000000000000000000000000000000000000000000000000000081526004018080602001828103825260178152602001807f547265617479206d75737420626520756e6c6f636b656400000000000000000081525060200191505060405180910390fd5b6001600d60006101000a81548160ff02191690831515021790555042600b81905550804201600c819055507f032bc66be43dbccb7487781d168eb7bda224628a3b2c3388bdf69b532a3a1611816040518082815260200191505060405180910390a142600e8190555050565b60018060048111156128b957fe5b600460009054906101000a900460ff1660048111156128d457fe5b14612947576040517f08c379a000000000000000000000000000000000000000000000000000000000815260040180806020018281038252601f8152602001807f547265617479206973206e6f7420696e2065787065637465642073746174650081525060200191505060405180910390fd5b600015156129536113b1565b1515146129c8576040517f08c379a00000000000000000000000000000000000000000000000000000000081526004018080602001828103825260178152602001807f547265617479206d75737420626520756e6c6f636b656400000000000000000081525060200191505060405180910390fd5b600060038111156129d557fe5b600560003373ffffffffffffffffffffffffffffffffffffffff1673ffffffffffffffffffffffffffffffffffffffff16815260200190815260200160002060009054906101000a900460ff166003811115612a2d57fe5b14612aa0576040517f08c379a00000000000000000000000000000000000000000000000000000000081526004018080602001828103825260148152602001807f556e6578706563746564207369676e617475726500000000000000000000000081525060200191505060405180910390fd5b6001600560003373ffffffffffffffffffffffffffffffffffffffff1673ffffffffffffffffffffffffffffffffffffffff16815260200190815260200160002060006101000a81548160ff02191690836003811115612afc57fe5b021790555060405180600001905060405180910390203373ffffffffffffffffffffffffffffffffffffffff167f52eec90fa8e8288637301d39853215c45f4119aaca623977d61cf5dd3e66db2860405160405180910390a3612b5f60016132e6565b15612b6d57612b6c6133bc565b5b42600e8190555050565b60056020528060005260406000206000915054906101000a900460ff1681565b606060006006805490501415612be4576040518060400160405280600781526020017f4e6f2074657874000000000000000000000000000000000000000000000000008152509050612c97565b60068281548110612bf157fe5b906000526020600020018054600181600116156101000203166002900480601f016020809104026020016040519081016040528092919081815260200182805460018160011615610100020316600290048015612c8f5780601f10612c6457610100808354040283529160200191612c8f565b820191906000526020600020905b815481529060010190602001808311612c7257829003601f168201915b505050505090505b919050565b60078181548110612ca957fe5b906000526020600020016000915090508054600181600116156101000203166002900480601f016020809104026020016040519081016040528092919081815260200182805460018160011615610100020316600290048015612d4d5780601f10612d2257610100808354040283529160200191612d4d565b820191906000526020600020905b815481529060010190602001808311612d3057829003601f168201915b505050505081565b6001806004811115612d6357fe5b600460009054906101000a900460ff166004811115612d7e57fe5b14612df1576040517f08c379a000000000000000000000000000000000000000000000000000000000815260040180806020018281038252601f8152602001807f547265617479206973206e6f7420696e2065787065637465642073746174650081525060200191505060405180910390fd5b60001515612dfd6113b1565b151514612e72576040517f08c379a00000000000000000000000000000000000000000000000000000000081526004018080602001828103825260178152602001807f547265617479206d75737420626520756e6c6f636b656400000000000000000081525060200191505060405180910390fd5b60006003811115612e7f57fe5b600560003373ffffffffffffffffffffffffffffffffffffffff1673ffffffffffffffffffffffffffffffffffffffff16815260200190815260200160002060009054906101000a900460ff166003811115612ed757fe5b14612f4a576040517f08c379a00000000000000000000000000000000000000000000000000000000081526004018080602001828103825260148152602001807f556e6578706563746564207369676e617475726500000000000000000000000081525060200191505060405180910390fd5b612f5b82612f566126e6565b612510565b612ff557612f6761322b565b816040518082805190602001908083835b60208310612f9b5780518252602082019150602081019050602083039250612f78565b6001836020036101000a03801982511681845116808217855250505050505090500191505060405180910390207f8ba63c349f8417699ae9b92eb060dba424e16d5bb537061344f320a66ce164b160405160405180910390a25b6001600560003373ffffffffffffffffffffffffffffffffffffffff1673ffffffffffffffffffffffffffffffffffffffff16815260200190815260200160002060006101000a81548160ff0219169083600381111561305157fe5b0217905550816040518082805190602001908083835b6020831061308a5780518252602082019150602081019050602083039250613067565b6001836020036101000a03801982511681845116808217855250505050505090500191505060405180910390203373ffffffffffffffffffffffffffffffffffffffff167f52eec90fa8e8288637301d39853215c45f4119aaca623977d61cf5dd3e66db2860405160405180910390a361310460016132e6565b15613112576131116133bc565b5b42600e819055505050565b600061312960026132e6565b905090565b60608060146040519080825280601f01601f1916602001820160405280156131655781602001600182028038833980820191505090505b50905060008090505b60148110156131eb578060130360080260020a8473ffffffffffffffffffffffffffffffffffffffff168161319f57fe5b0460f81b8282815181106131af57fe5b60200101907effffffffffffffffffffffffffffffffffffffffffffffffffffffffffffff1916908160001a905350808060010191505061316e565b5080915050919050565b6060613222848484604051806020016040528060008152506040518060200160405280600081525061356f565b90509392505050565b60008090505b6008805490508110156132e3576000600560006008848154811061325157fe5b9060005260206000200160009054906101000a900473ffffffffffffffffffffffffffffffffffffffff1673ffffffffffffffffffffffffffffffffffffffff1673ffffffffffffffffffffffffffffffffffffffff16815260200190815260200160002060006101000a81548160ff021916908360038111156132d157fe5b02179055508080600101915050613231565b50565b6000806001905060008090505b6008805490508110156133b25783600381111561330c57fe5b600560006008848154811061331d57fe5b9060005260206000200160009054906101000a900473ffffffffffffffffffffffffffffffffffffffff1673ffffffffffffffffffffffffffffffffffffffff1673ffffffffffffffffffffffffffffffffffffffff16815260200190815260200160002060009054906101000a900460ff16600381111561339b57fe5b146133a557600091505b80806001019150506132f3565b5080915050919050565b60008090505b600680549050811015613460576007600682815481106133de57fe5b90600052602060002001908060018154018082558091505090600182039060005260206000200160009091929091909150908054600181600116156101000203166002900461342e9291906138b5565b50506006818154811061343d57fe5b906000526020600020016000613453919061393c565b80806001019150506133c2565b5060008090505b600880549050811015613519576000600560006008848154811061348757fe5b9060005260206000200160009054906101000a900473ffffffffffffffffffffffffffffffffffffffff1673ffffffffffffffffffffffffffffffffffffffff1673ffffffffffffffffffffffffffffffffffffffff16815260200190815260200160002060006101000a81548160ff0219169083600381111561350757fe5b02179055508080600101915050613467565b5060006006816135299190613984565b503073ffffffffffffffffffffffffffffffffffffffff167fefc8db9fadd1e0b8e6bdbc5c07894f1832f5e840a137a5d68fafb7302f7e483a60405160405180910390a2565b6060808690506060869050606086905060608690506060869050606081518351855187518951010101016040519080825280601f01601f1916602001820160405280156135cb5781602001600182028038833980820191505090505b5090506060819050600080905060008090505b885181101561364c578881815181106135f357fe5b602001015160f81c60f81b83838060010194508151811061361057fe5b60200101907effffffffffffffffffffffffffffffffffffffffffffffffffffffffffffff1916908160001a90535080806001019150506135de565b5060008090505b87518110156136c15787818151811061366857fe5b602001015160f81c60f81b83838060010194508151811061368557fe5b60200101907effffffffffffffffffffffffffffffffffffffffffffffffffffffffffffff1916908160001a9053508080600101915050613653565b5060008090505b8651811015613736578681815181106136dd57fe5b602001015160f81c60f81b8383806001019450815181106136fa57fe5b60200101907effffffffffffffffffffffffffffffffffffffffffffffffffffffffffffff1916908160001a90535080806001019150506136c8565b5060008090505b85518110156137ab5785818151811061375257fe5b602001015160f81c60f81b83838060010194508151811061376f57fe5b60200101907effffffffffffffffffffffffffffffffffffffffffffffffffffffffffffff1916908160001a905350808060010191505061373d565b5060008090505b8451811015613820578481815181106137c757fe5b602001015160f81c60f81b8383806001019450815181106137e457fe5b60200101907effffffffffffffffffffffffffffffffffffffffffffffffffffffffffffff1916908160001a90535080806001019150506137b2565b50819850505050505050505095945050505050565b828054600181600116156101000203166002900490600052602060002090601f016020900481019282601f1061387657805160ff19168380011785556138a4565b828001600101855582156138a4579182015b828111156138a3578251825591602001919060010190613888565b5b5090506138b191906139b0565b5090565b828054600181600116156101000203166002900490600052602060002090601f016020900481019282601f106138ee578054855561392b565b8280016001018555821561392b57600052602060002091601f016020900482015b8281111561392a57825482559160010191906001019061390f565b5b50905061393891906139b0565b5090565b50805460018160011615610100020316600290046000825580601f106139625750613981565b601f01602090049060005260206000209081019061398091906139b0565b5b50565b8154818355818111156139ab578183600052602060002091820191016139aa91906139d5565b5b505050565b6139d291905b808211156139ce5760008160009055506001016139b6565b5090565b90565b6139fe91905b808211156139fa57600081816139f1919061393c565b506001016139db565b5090565b9056fe416c6c207472656174792074657874206d757374206265207369676e6564206265666f72652063616e206265206d6164652062696e64696e67a265627a7a723158206462db3509043bd49bfdd2360e23e6a4c82e12604f854d9d00eacf7e88ef7cb464736f6c63430005100032",
  "source": "pragma solidity ^0.5.16;\n\nimport \"./AccessRestriction.sol\";\nimport \"./StringUtils.sol\";\n\ncontract Treaty is AccessRestriction {\n  /// Constants ///\n  States constant INITIAL_STATE = States.Draft;\n\n  /// Treaty info ///\n  uint256 public id;\n  string public name;\n\n  /// Treaty state ///\n  States public treatyState = INITIAL_STATE;\n  mapping(address => SignatureState) public signatureState;\n\n  /// Agreement text (plain or hashed) ///\n  string[] public unsignedTreatyText;\n  string[] public signedTreatyText;\n\n  /// Addresses ///\n  address[] public signatureList;\n  address public lawyerAddress;\n\n  /// Locking ///\n  uint256 public creationTime = now;\n  uint256 public lockAt = now;\n  uint256 public releaseAt = now;\n  bool public locked = false;\n  uint256 public lastStateChange = now;\n\n  /// Enums ///\n  enum States { Draft, Active, Binding, Broken, MutuallyWithdrawn }\n  enum SignatureState { Unsigned, Signed, Withdrawn, Broken }\n  enum TreatyType { ProjectToFounder, ProjectToMentor, Volunteer }\n\n  /// Events ///\n  event Locked(uint256 _lockTime);\n  event UnLocked();\n  event SignedBy(address indexed _signer, string indexed _hash);\n  event SignedByAll(address indexed _treatyAddress);\n  event WithdrawnFromTreaty(address indexed _signer);\n  event MutuallyWithdrawn();\n  event StateChange(States _newState);\n  event UnsignedTreatyTextDeleted();\n  event ChangeLawyer(address indexed _lawyerAddress);\n  event WriteToTreaty(string indexed _text);\n  event MakeActive(address indexed _treatyAddress);\n  event RegisterAsSigner(address _signer);\n\n  /// Modifiers ///\n  modifier inState(States _state) {\n    require(treatyState == _state, \"Treaty is not in expected state\");\n    _;\n  }\n\n  modifier inEitherState(States _state1, States _state2) {\n    require(\n      treatyState == _state1 || treatyState == _state2,\n      \"Treaty is not in expected state\"\n    );\n    _;\n  }\n\n  modifier stateChange() {\n    require(getLocked() == false, \"Treaty must be unlocked\");\n    _;\n    lastStateChange = now;\n  }\n\n  constructor(\n    uint256 _id,\n    string memory _name,\n    string memory _initialText\n  ) public {\n    id = _id;\n    name = _name;\n    unsignedTreatyText.push(_initialText);\n    lawyerAddress = msg.sender;\n  }\n\n  //////////////\n  //Functions used by parties:\n  //////////////\n\n  function registerAsSigner() public inState(States.Draft) stateChange() {\n    signatureState[msg.sender] = SignatureState.Unsigned;\n    signatureList.push(msg.sender);\n    emit RegisterAsSigner(msg.sender);\n  }\n\n  function makeActive() public inState(States.Draft) stateChange() {\n    treatyState = States.Active;\n    emit MakeActive(address(this));\n  }\n\n  function writeToTreaty(string memory _text) public inState(States.Active) {\n    unsignedTreatyText.push(_text);\n    resetSignatures();\n    emit WriteToTreaty(_text);\n  }\n\n  function calcSHA3(bytes memory _bytes) public pure returns (bytes32) {\n    return keccak256(_bytes);\n  }\n\n  function signTreaty() public inState(States.Active) stateChange() {\n    require(\n      signatureState[msg.sender] == SignatureState.Unsigned,\n      \"Unexpected signature\"\n    );\n    signatureState[msg.sender] = SignatureState.Signed;\n    emit SignedBy(msg.sender, \"\");\n\n    if (allSignaturesInState(SignatureState.Signed)) {\n      confirmTreatyText();\n    }\n  }\n\n  function signHash(string memory _hash)\n    public\n    inState(States.Active)\n    stateChange()\n  {\n    require(\n      signatureState[msg.sender] == SignatureState.Unsigned,\n      \"Unexpected signature\"\n    );\n    if (!compareStrings(_hash, getLastUnsignedText())) {\n      resetSignatures();\n      emit WriteToTreaty(_hash);\n    }\n    signatureState[msg.sender] = SignatureState.Signed;\n    emit SignedBy(msg.sender, _hash);\n    if (allSignaturesInState(SignatureState.Signed)) {\n      confirmTreatyText();\n    }\n  }\n\n  function makeBinding() public onlyBy(lawyerAddress) stateChange() {\n    require(\n      unsignedTreatyText.length == 0,\n      \"All treaty text must be signed before can be made binding\"\n    );\n    treatyState = States.Binding;\n    emit StateChange(States.Binding);\n  }\n\n  function undoBinding() public onlyBy(lawyerAddress) stateChange() {\n    require(treatyState == States.Binding, \"Treaty is not binding\");\n    treatyState = States.Active;\n    emit StateChange(States.Active);\n  }\n\n  function changeLawyer(address _newLawyer)\n    public\n    onlyBy(lawyerAddress)\n    stateChange()\n  {\n    lawyerAddress = _newLawyer;\n    emit ChangeLawyer(_newLawyer);\n  }\n\n  function withdrawFromTreaty()\n    public\n    inEitherState(States.Active, States.Broken)\n    stateChange()\n  {\n    signatureState[msg.sender] = SignatureState.Withdrawn;\n    treatyState = States.Broken;\n    emit WithdrawnFromTreaty(msg.sender);\n    emit StateChange(States.Broken);\n\n    if (allPartiesWithdrawn()) {\n      emit MutuallyWithdrawn();\n      treatyState = States.MutuallyWithdrawn;\n    }\n  }\n\n  /////////////////\n  // Getters\n  ////////////////\n\n  function getSignersAsText() public view returns (string memory) {\n    string memory result = \"\";\n    for (uint256 i = 0; i < signatureList.length; i++) {\n      result = StringUtils.strConcat(\n        result,\n        StringUtils.toString(signatureList[i]),\n        \" | \"\n      );\n    }\n    return result;\n  }\n\n  function getNumSignatures() public view returns (uint256) {\n    return signatureList.length;\n  }\n\n  function getUnsignedTreatyText(uint256 _index)\n    public\n    view\n    returns (string memory treatyText)\n  {\n    if (unsignedTreatyText.length == 0) {\n      return \"No text\";\n    }\n    return unsignedTreatyText[_index];\n  }\n\n  function getSignedTreatyText(uint256 _index)\n    public\n    view\n    returns (string memory treatyText)\n  {\n    if (signedTreatyText.length == 0) return \"No text\";\n    return signedTreatyText[_index];\n  }\n\n  function getNumUnsigned() public view returns (uint256) {\n    return unsignedTreatyText.length;\n  }\n\n  function getNumSigned() public view returns (uint256) {\n    return signedTreatyText.length;\n  }\n\n  //////////////\n  // Locking\n  //////////////\n\n  function okToUnlock() public view returns (bool ok) {\n    if (now >= releaseAt) {\n      return true;\n    } else {\n      return false;\n    }\n  }\n\n  function lockFor(uint256 _lockTime) public stateChange {\n    locked = true;\n    lockAt = now;\n    releaseAt = now + _lockTime;\n    emit Locked(_lockTime);\n  }\n\n  function lockForMonths(uint256 _months) public stateChange {\n    lockForDays(_months * 30);\n  }\n\n  function lockForDays(uint256 _days) public stateChange onlyBy(owner) {\n    lockFor(_days * 24 * 60 * 60);\n  }\n\n  function getLocked() public returns (bool) {\n    if (locked && okToUnlock()) {\n      locked = false;\n    }\n    return locked;\n  }\n\n  /////////////\n  // Internal Functions\n  ////////////\n\n  function resetSignatures() internal {\n    for (uint256 i = 0; i < signatureList.length; i++) {\n      signatureState[signatureList[i]] = SignatureState.Unsigned;\n    }\n  }\n\n  function allSignaturesInState(SignatureState _state)\n    internal\n    view\n    returns (bool)\n  {\n    bool result = true;\n    for (uint256 i = 0; i < signatureList.length; i++) {\n      if (signatureState[signatureList[i]] != _state) {\n        result = false;\n      }\n    }\n    return result;\n  }\n\n  function deleteUnsignedTreatyText() internal {\n    delete unsignedTreatyText;\n    emit UnsignedTreatyTextDeleted();\n  }\n\n  function allPartiesWithdrawn() internal view returns (bool) {\n    return allSignaturesInState(SignatureState.Withdrawn);\n  }\n\n  function confirmTreatyText() internal {\n    for (uint256 i = 0; i < unsignedTreatyText.length; i++) {\n      signedTreatyText.push(unsignedTreatyText[i]);\n      delete unsignedTreatyText[i];\n    }\n    for (uint256 i = 0; i < signatureList.length; i++) {\n      signatureState[signatureList[i]] = SignatureState.Unsigned;\n    }\n    unsignedTreatyText.length = 0;\n    emit SignedByAll(address(this));\n  }\n\n  function isSignedByAll() internal view returns (bool) {\n    return allSignaturesInState(SignatureState.Signed);\n  }\n\n  function getLastUnsignedText() public view returns (string memory) {\n    return unsignedTreatyText[unsignedTreatyText.length - 1];\n  }\n\n  function getLastSignedText() public view returns (string memory) {\n    return signedTreatyText[signedTreatyText.length - 1];\n  }\n\n  // function compareStrings(string memory a, string memory b)\n  //   public\n  //   view\n  //   returns (bool)\n  // {\n  //   return (keccak256(abi.encodePacked((a))) ==\n  //     keccak256(abi.encodePacked((b))));\n  // }\n\n  function compareStrings(string memory a, string memory b)\n    public\n    view\n    returns (bool)\n  {\n    return true;\n  }\n}\n",
  "sourcePath": "/home/grifma/Code/treatify-web3/contracts/Treaty.sol",
  "compiler": {
    "name": "solc",
    "version": "0.5.16+commit.9c3226ce.Emscripten.clang"
  },
  "schemaVersion": "3.0.23",
  "updatedAt": "2020-08-06T15:24:21.863Z",
  "devdoc": {
    "methods": {}
  },
  "userdoc": {
    "methods": {
      "changeOwner(address)": {
        "notice": "Make `_newOwner` the new owner of this contract."
      },
      "disown()": {
        "notice": "Erase ownership information. May only be called 6 weeks after the contract has been created."
      },
      "getSignersAsText()": {
        "notice": "/////////////"
      },
      "okToUnlock()": {
        "notice": "///////////"
      },
      "registerAsSigner()": {
        "notice": "///////////"
      }
    }
  }
}